:020000040800F2
:1000000000000120DD7E00083116000833160008CC
:1000100035160008371600083916000800000000E1
:10002000000000000000000000000000116B00084C
:100030003B16000800000000B16B00089B6600083A
:100040002D7F00082D7F00082D7F00082D7F0008E0
:100050002D7F00082D7F00082D7F00082D7F0008D0
:100060002D7F00082D7F00082D7F00082D7F0008C0
:100070002D7F00082D7F00082D7F00082D7F0008B0
:100080002D7F00082D7F00082D7F00080000000054
:100090000000000000000000000000002D7F0008AC
:1000A0002D7F00082D7F00083D1600082D7F0008D9
:1000B0002D7F00082D7F00082D7F00082D7F000870
:1000C0002D7F00082D7F00082D7F00082D7F000860
:1000D0002D7F00082D7F00082D7F00080000000004
:1000E0002D7F00082D7F00082D7F000800000000F4
:1000F0000000000000000000000000002D7F00084C
:10010000000000002D7F00082D7F00082D7F0008D3
:1001100000000000000000000000000000000000DF
:100120002D7F00082D7F00082D7F00082D7F0008FF
:100130002D7F00080000000000000000000000000B
:100140000000000000000000000000004D16000844
:100150002D7F00082D7F00082D7F00082D7F0008CF
:100160002D7F00082D7F0008000000000000000027
:10017000000000000000000000000000000000007F
:10018000000000002D7F00080000000000000000BB
:080190002D7F00082D7F0008FF
:1001A00010B5054C237833B9044B13B10448AFF3B1
:1001B00000800123237010BD880100200000000092
:1001C0006896000808B5034B1BB103490348AFF319
:1001D000008008BD000000008C0100206896000827
:1001E00001F0FF01102A2BDB10F0070F08D010F8E8
:1001F000013B013A8B422DD010F0070F42B3F6D1EC
:10020000F0B441EA012141EA014122F007047FF004
:1002100000070023F0E80256083C85EA010586EA5B
:10022000010685FA47F5A3FA87F586FA47F6A5FA97
:1002300087F68EB9EED1F0BC01F0FF0102F00702A3
:1002400032B110F8013B013A83EA010313B1F8D14E
:100250000020704701387047002D06BF354603382F
:10026000073815F0010F07D1013015F4807F02BF68
:10027000013015F4C03F0130F0BC0138704700BFB9
:1002800081F0004102E000BF83F0004330B54FEA47
:1002900041044FEA430594EA050F08BF90EA020FB4
:1002A0001FBF54EA000C55EA020C7FEA645C7FEA47
:1002B000655C00F0E2804FEA5454D4EB5555B8BF6A
:1002C0006D420CDD2C4480EA020281EA030382EADB
:1002D000000083EA010180EA020281EA0303362D6D
:1002E00088BF30BD11F0004F4FEA01314FF4801C40
:1002F0004CEA113102D0404261EB410113F0004F52
:100300004FEA03334CEA133302D0524263EB430308
:1003100094EA050F00F0A780A4F10104D5F1200EA6
:100320000DDB02FA0EFC22FA05F2801841F1000101
:1003300003FA0EF2801843FA05F359410EE0A5F1D5
:1003400020050EF1200E012A03FA0EFC28BF4CF006
:10035000020C43FA05F3C01851EBE37101F00045BC
:1003600007D54FF0000EDCF1000C7EEB00006EEBC9
:100370000101B1F5801F1BD3B1F5001F0CD3490853
:100380005FEA30004FEA3C0C04F101044FEA4452AA
:1003900012F5800F80F09A80BCF1004F08BF5FEA31
:1003A000500C50F1000041EB045141EA050130BD11
:1003B0005FEA4C0C404141EB0101013C28BFB1F523
:1003C000801FE9D291F0000F04BF01460020B1FA6E
:1003D00081F308BF2033A3F10B03B3F120020CDA41
:1003E0000C3208DD02F1140CC2F10C0201FA0CF01F
:1003F00021FA02F10CE002F11402D8BFC2F1200C84
:1004000001FA02F120FA0CFCDCBF41EA0C01904039
:10041000E41AA2BF01EB0451294330BD6FEA040482
:100420001F3C1CDA0C340EDC04F11404C4F120026D
:1004300020FA04F001FA02F340EA030021FA04F37F
:1004400045EA030130BDC4F10C04C4F1200220FAD6
:1004500002F001FA04F340EA0300294630BD21FA14
:1004600004F0294630BD94F0000F83F4801306BFDA
:1004700081F480110134013D4EE77FEA645C18BFCE
:100480007FEA655C29D094EA050F08BF90EA020F65
:1004900005D054EA000C04BF1946104630BD91EA5D
:1004A000030F1EBF0021002030BD5FEA545C05D160
:1004B0004000494128BF41F0004130BD14F580049F
:1004C0003CBF01F5801130BD01F0004545F0FE4113
:1004D00041F470014FF0000030BD7FEA645C1ABF48
:1004E000194610467FEA655C1CBF0B46024650EA7F
:1004F000013406BF52EA033591EA030F41F40021AB
:1005000030BD00BF90F0000F04BF0021704730B530
:100510004FF4806404F132044FF000054FF0000105
:1005200050E700BF90F0000F04BF0021704730B5C6
:100530004FF4806404F1320410F0004548BF40429B
:100540004FF000013EE700BF42004FEAE2014FEAF0
:1005500031014FEA02701FBF12F07F4393F07F4FCB
:1005600081F06051704732F07F4208BF704793F0CE
:100570007F4F04BF41F40021704730B54FF46074E1
:1005800001F0004521F000411CE700BF50EA0102E4
:1005900008BF704730B54FF000050AE050EA01028D
:1005A00008BF704730B511F0004502D5404261EBFD
:1005B00041014FF4806404F132045FEA915C3FF43E
:1005C000D8AE4FF003025FEADC0C18BF03325FEADB
:1005D000DC0C18BF033202EBDC02C2F1200300FA8C
:1005E00003FC20FA02F001FA03FE40EA0E0021FAB1
:1005F00002F11444BDE600BF70B54FF0FF0C4CF49F
:10060000E06C1CEA11541DBF1CEA135594EA0C0F50
:1006100095EA0C0F00F0DEF82C4481EA030621EA8B
:100620004C5123EA4C5350EA013518BF52EA0335C6
:1006300041F4801143F4801338D0A0FB02CE4FF078
:100640000005E1FB02E506F00042E0FB03E54FF0A8
:100650000006E1FB03569CF0000F18BF4EF0010EA0
:10066000A4F1FF04B6F5007F64F5407404D25FEA9C
:100670004E0E6D4146EB060642EAC62141EA55514F
:100680004FEAC52040EA5E504FEACE2EB4F1FD0C91
:1006900088BFBCF5E06F1ED8BEF1004F08BF5FEA0F
:1006A000500E50F1000041EB045170BD06F00046C1
:1006B00046EA010140EA020081EA0301B4EB5C046E
:1006C000C2BFD4EB0C0541EA045170BD41F4801166
:1006D0004FF0000E013C00F3AB8014F1360FDEBF8B
:1006E000002001F0004170BDC4F10004203C35DA67
:1006F0000C341BDC04F11404C4F1200500FA05F3EA
:1007000020FA04F001FA05F240EA020001F000428A
:1007100021F0004110EBD37021FA04F642EB060100
:100720005EEA430E08BF20EAD37070BDC4F10C042A
:10073000C4F1200500FA04F320FA05F001FA04F2EE
:1007400040EA020001F0004110EBD37041F10001DA
:100750005EEA430E08BF20EAD37070BDC4F12005E5
:1007600000FA05F24EEA020E20FA04F301FA05F24D
:1007700043EA020321FA04F001F0004121FA04F2F5
:1007800020EA020000EBD3705EEA430E08BF20EAC5
:10079000D37070BD94F0000F0FD101F000464000FF
:1007A00041EB010111F4801F08BF013CF7D041EA81
:1007B000060195F0000F18BF704703F00046520085
:1007C00043EB030313F4801F08BF013DF7D043EA56
:1007D0000603704794EA0C0F0CEA135518BF95EA0C
:1007E0000C0F0CD050EA410618BF52EA4306D1D193
:1007F00081EA030101F000414FF0000070BD50EAB2
:10080000410606BF1046194652EA430619D094EA3B
:100810000C0F02D150EA013613D195EA0C0F05D125
:1008200052EA03361CBF104619460AD181EA030179
:1008300001F0004141F0FE4141F470014FF0000031
:1008400070BD41F0FE4141F4780170BD70B54FF0CC
:10085000FF0C4CF4E06C1CEA11541DBF1CEA13554C
:1008600094EA0C0F95EA0C0F00F0A7F8A4EB05042E
:1008700081EA030E52EA03354FEA013100F0888025
:100880004FEA03334FF0805545EA131343EA1263EE
:100890004FEA022245EA111545EA10654FEA0026A3
:1008A0000EF000419D4208BF964244F1FD0404F55C
:1008B000407402D25B084FEA3202B61A65EB0305B8
:1008C0005B084FEA32024FF480104FF4002CB6EB75
:1008D000020E75EB030E22BFB61A754640EA0C00F5
:1008E0005B084FEA3202B6EB020E75EB030E22BF35
:1008F000B61A754640EA5C005B084FEA3202B6EB76
:10090000020E75EB030E22BFB61A754640EA9C0034
:100910005B084FEA3202B6EB020E75EB030E22BF04
:10092000B61A754640EADC0055EA060E18D04FEAC2
:10093000051545EA16754FEA06164FEAC30343EA62
:1009400052734FEAC2025FEA1C1CC0D111F4801F2F
:100950000BD141EA00014FF000004FF0004CB6E728
:1009600011F4801F04BF01430020B4F1FD0C88BFC7
:10097000BCF5E06F3FF6AFAEB5EB030C04BFB6EBD2
:10098000020C5FEA500C50F1000041EB045170BDC5
:100990000EF0004E4EEA113114EB5C04C2BFD4EBF2
:1009A0000C0541EA045170BD41F480114FF0000E76
:1009B000013C90E645EA060E8DE60CEA135594EAF2
:1009C0000C0F08BF95EA0C0F3FF43BAF94EA0C0FF5
:1009D0000AD150EA01347FF434AF95EA0C0F7FF46A
:1009E00025AF104619462CE795EA0C0F06D152EABE
:1009F00003353FF4FDAE1046194622E750EA4106A2
:100A000018BF52EA43067FF4C5AE50EA41047FF4B2
:100A10000DAF52EA43057FF4EBAE12E74FF0FF3C17
:100A200006E000BF4FF0010C02E000BF4FF0010CE8
:100A30004DF804CD4FEA410C7FEA6C5C4FEA430C61
:100A400018BF7FEA6C5C1BD001B050EA410C0CBFB0
:100A500052EA430C91EA030F02BF90EA020F002012
:100A6000704710F1000F91EA030F58BF994208BF79
:100A700090422CBFD8176FEAE37040F00100704736
:100A80004FEA410C7FEA6C5C02D150EA013C07D18D
:100A90004FEA430C7FEA6C5CD6D152EA033CD3D0D8
:100AA0005DF8040B704700BF8446104662468C46D2
:100AB0001946634600E000BF01B5FFF7B7FF002805
:100AC00048BF10F1000F01BD4DF808EDFFF7F4FF2E
:100AD0000CBF012000205DF808FB00BF4DF808EDB9
:100AE000FFF7EAFF34BF012000205DF808FB00BFDC
:100AF0004DF808EDFFF7E0FF94BF012000205DF8FE
:100B000008FB00BF4DF808EDFFF7CEFF94BF0120B2
:100B100000205DF808FB00BF4DF808EDFFF7C4FFAB
:100B200034BF012000205DF808FB00BF4FEA410CF4
:100B30007FEA6C5C02D150EA013C0AD14FEA430CD7
:100B40007FEA6C5C02D152EA033C02D14FF0000014
:100B500070474FF0010070474A0011D212F50012A1
:100B600011D20DD56FF47873B3EB62520ED44FEA05
:100B7000C12343F0004343EA505323FA02F0704785
:100B80004FF00000704750EA013002D14FF0FF30C3
:100B900070474FF00000704753B94AB9002908BFA9
:100BA00000281CBF4FF0FF314FF0FF3000F074B948
:100BB000ADF1080C6DE904CE00F006F8DDF804E0B4
:100BC000DDE9022304B070472DE9F047089D044693
:100BD0008E46002B4DD18A42944669D9B2FA82F2F0
:100BE00052B101FA02F3C2F1200120FA01F10CFA2C
:100BF00002FC41EA030E94404FEA1C48210CBEFB64
:100C0000F8F61FFA8CF708FB16E341EA034306FBEC
:100C100007F199420AD91CEB030306F1FF3080F07B
:100C20001F81994240F21C81023E63445B1AA4B2C8
:100C3000B3FBF8F008FB103344EA034400FB07F76A
:100C4000A7420AD91CEB040400F1FF3380F00A81AB
:100C5000A74240F207816444023840EA0640E41BA0
:100C600000261DB1D4400023C5E900433146BDE84C
:100C7000F0878B4209D9002D00F0EF800026C5E9EE
:100C8000000130463146BDE8F087B3FA83F6002E06
:100C90004AD18B4202D3824200F2F980841A61EB7E
:100CA000030301209E46002DE0D0C5E9004EDDE79C
:100CB00002B9FFDEB2FA82F2002A40F09280A1EB84
:100CC0000C014FEA1C471FFA8CFE0126200CB1FBD9
:100CD000F7F307FB131140EA01410EFB03F08842D2
:100CE00008D91CEB010103F1FF3802D2884200F25F
:100CF000CB804346091AA4B2B1FBF7F007FB1011F1
:100D000044EA01440EFB00FEA64508D91CEB04048E
:100D100000F1FF3102D2A64500F2BB800846A4EBE9
:100D20000E0440EA03409CE7C6F12007B34022FAD4
:100D300007FC4CEA030C20FA07F401FA06F31C4303
:100D4000F9404FEA1C4900FA06F3B1FBF9F8200C10
:100D50001FFA8CFE09FB181140EA014108FB0EF056
:100D6000884202FA06F20BD91CEB010108F1FF3AA6
:100D700080F08880884240F28580A8F102086144B2
:100D8000091AA4B2B1FBF9F009FB101144EA0141C0
:100D900000FB0EFE8E4508D91CEB010100F1FF346B
:100DA0006CD28E456AD90238614440EA0840A0FB03
:100DB0000294A1EB0E01A142C846A64656D353D0D9
:100DC0005DB1B3EB080261EB0E0101FA07F722FAFD
:100DD00006F3F1401F43C5E9007100263146BDE826
:100DE000F087C2F12003D8400CFA02FC21FA03F389
:100DF000914001434FEA1C471FFA8CFEB3FBF7F00A
:100E000007FB10360B0C43EA064300FB0EF69E422E
:100E100004FA02F408D91CEB030300F1FF382FD2C7
:100E20009E422DD9023863449B1B89B2B3FBF7F66F
:100E300007FB163341EA034106FB0EF38B4208D948
:100E40001CEB010106F1FF3816D28B4214D9023E89
:100E50006144C91A46EA004638E72E46284605E7A7
:100E60000646E3E61846F8E64B45A9D2B9EB020878
:100E700064EB0C0E0138A3E74646EAE7204694E708
:100E80004046D1E7D0467BE7023B614432E730463B
:100E900009E76444023842E7704700BF30B58BB0C1
:100EA00000240594069407940894099401941E4B19
:100EB0001A6B42F004021A631A6B02F004020192E8
:100EC000019A02941A6B42F080021A631A6B02F0C4
:100ED00080020292029A03941A6B42F001021A6392
:100EE0001A6B02F001020392039A04941A6B42F007
:100EF00002021A631B6B03F002030493049B0B4D65
:100F000022464FF46041284603F096FC4FF46043BC
:100F10000593012306930794089405A9284603F036
:100F200023FB0BB030BD00BF003802400008024078
:100F300010B5054B93F89F42044807F0B9F82146D5
:100F4000034807F02FF8FEE7000300208096000812
:100F50009896000810B58CB0574807F0A9F8574884
:100F600007F0A6F899E0564B195D564807F01AF8B5
:100F700001340F2CF7DD524B1B78013B072B7FD838
:100F8000DFE803F0374C7E7E667E7E044C4B9B7B15
:100F9000012B05D0022B1BD04B4807F089F80FE03E
:100FA000474BDA7B494BB2FA82F2520919895868E9
:100FB00003F042FC464B93E807000CAB03E9070043
:100FC00008238DF82030102108A800F057FD5AE0C2
:100FD0003B4BDA7B3F4BB2FA82F2520919895868CF
:100FE00003F02AFC3C4B93E807000CAB03E9070035
:100FF000E6E73A4807F05CF8002300930193029378
:101000000393374BD3E90223CDE9022301238DF863
:1010100000301021684600F031FD34E0314807F01F
:1010200047F8274BD3F8FC03FFF78EFA2E4BC3E9A2
:1010300002010023089309930A930B93CDE90A0157
:1010400002238DF82030102108A800F017FD1AE0C7
:10105000264807F02DF84FF02033049305930693AC
:1010600007934FF080439B6B214AA2FB0323DB0BCA
:10107000642202FB03F307931021684600F0FEFC94
:10108000114807F015F84FF02033089309930A939D
:101090000B93184B002283F89F22164B93F89F3234
:1010A000012BFAD1012003F06DFC054B1978124891
:1010B00006F078FF00245CE7AC960008C4960008B0
:1010C000DC070020F8960008189700081800002098
:1010D000009700080C0000200C9700082C970008CF
:1010E000A80100204C970008C00100206C97000860
:1010F0000180008000030020DC960008F8B52A4C2F
:101100000821204601F0D8F923686422DA632748D1
:1011100003F012FD03F030FC0BE0284603F00CFE58
:1011200000F02EFA224B83ED020B1BE01E4B1B68D6
:10113000DC6303F021FC1F4CA4FB0034A409C8238A
:1011400003FB1404002CF4D1184D284603F0F4FCE2
:101150000A2003F017FC4FF0FF31284603F090FD02
:101160000028DAD0114803F06BFD03F005FC104BAA
:10117000D3E9026732463B460F49D1E90201FFF746
:1011800083F800220D4BFFF737FA32463B46FFF754
:101190005DFBFFF7E1FC85B203F0EEFB642DC5D8E3
:1011A000C5F16404C2E700BF70020020D401002032
:1011B000A80100201F85EB51C0010020000059400C
:1011C00008B500F065FB012005F001FBFBE71046C8
:1011D0004FF0000C0AE000BF4FF060431B68002B8B
:1011E000F9D04FF060431A700CF1010C844510DA0D
:1011F00011F8012B4FF06043D3F8803E13F0010F3C
:10120000F2D04FF06043D3F8003E13F0010FE3D16A
:10121000EAE7704708B50268034B9A4200D008BD60
:1012200003F09EFBFBE700BF0048014072B6FEE7FB
:1012300008B50A480A4B03600A4B436000238360E9
:10124000C3604FF48042026143618361C361036202
:1012500003F042FE00B908BDFFF7E8FF1C020020C2
:1012600000540040A086010000B585B00023009323
:101270000193029303931348134A0260436083600F
:101280000361037680F82030C362104A8262C36033
:101290000122C26180F83030426103F021FC60B964
:1012A000002300930122019202936946054803F04E
:1012B00047FD20B905B05DF804FBFFF7B7FFFFF766
:1012C000B5FF00BFD4010020002001400100000F45
:1012D00000B58FB000230A930B930C930D930893E2
:1012E0000993019302930393049305930693079341
:1012F0001E484FF080420260436083604FF0FF322F
:10130000C2600361836100F043FF28BB4FF4805348
:101310000A930AA9154801F040F8F8B9134800F0FB
:1013200063FFE8B900230893099308A90F4801F067
:101330003BF9B8B96023019300230293039305930B
:10134000082201A9094800F0ADFF68B9074800F07C
:1013500029FA0FB05DF804FBFFF768FFFFF766FF9F
:10136000FFF764FFFFF762FFFFF760FF70020020E6
:1013700000B595B03022002108A806F00BFE00232E
:10138000039304930593069307930193204A116CEA
:1013900041F080511164126C02F080520192019A66
:1013A00002931C4A136823F4404343F40043136040
:1013B000136803F440430293029B012308934FF404
:1013C0008033099302230E934FF480030F93192364
:1013D0001093C023119304231293139308A802F0CF
:1013E00081FD88B90F2303930223049300230593FF
:1013F0004FF4805206920793012103A802F0C0FF28
:1014000020B915B05DF804FBFFF710FFFFF70EFFE2
:10141000003802400070004070B503F087FAFFF713
:10142000A7FFFFF73BFDFFF703FFFFF71DFFFFF7E8
:101430004FFF00F02DFA354B01221989586803F04F
:10144000FBF9334B01221989586803F0F5F9314B48
:1014500001221989586803F0EFF903F08DFA054667
:10146000012603F089FA401BB0F57A6F1ED2274B94
:101470001989586803F0E6F9642003F083FA2648D6
:1014800006F090FD254C204605F0C4FD94F89C32F2
:10149000DBB2032BE5D11D4B00221989586803F0FC
:1014A000CBF91F4806F07EFD0026DAE7EEB905F01D
:1014B00001F926B31B4A00211B4805F029F91B4BF3
:1014C00018601B4A00211B4805F022F91A4B1860CE
:1014D00005F0F0F8194A0021194805F019F9194BDF
:1014E000186005F0F9F8002070BD0C4805F08DFC7F
:1014F000064B01221989586803F09EF9D7E7124A72
:101500000021124805F004F9D4E700BF00000020D4
:10151000180000200C0000208C9700080003002019
:10152000A897000818980008310F0008BC01002097
:101530003C980008FD100008D0010020D09700085A
:10154000C1110008B8010020F4970008550F0008E9
:1015500008B551EC100B0022074BFFF74DF841EC9A
:10156000100B07F08DFD51EC100B0022024BFFF722
:101570006DF941EC100B08BD00005940000000005F
:10158000F8B5FEF7BFFF0022274BFFF735F80646F8
:101590000F461BA3D3E90023FFF72EF804460D46A0
:1015A00032463B4600202149FEF76EFE02460B46BE
:1015B00020462946FFF74AF913A3D3E90023FFF792
:1015C00045F941EC100B07F0ABFD51EC100B10A3EB
:1015D000D3E90023FEF75AFE02460B460EA1D1E9DD
:1015E0000001FFF733F90EA3D3E90023FEF74CFE09
:1015F00041EC100BFFF7ACFFF8BD00BFAFF300806C
:10160000000000008095F74000000000006AF840EC
:1016100010E0B7AF297F2A400000000000DCAE4098
:1016200066666666661271400000303F0000F03F5B
:10163000FEE7FEE7FEE7FEE7FEE7704708B5024873
:1016400000F0A1FC08BD00BFB802002008B50248A8
:1016500001F057FB08BD00BFDC0F002000B583B0D0
:10166000002200920D4B596C41F480415964596C31
:1016700001F48041009100990192196C41F0805170
:1016800019641B6C03F080530193019B0F216FF0D1
:10169000010003F0F3F803B05DF804FB00380240EA
:1016A00000B589B000230393049305930693079331
:1016B000026803F1804303F590339A4202D009B0E7
:1016C0005DF804FB0021019103F58C335A6C42F460
:1016D00080725A645A6C02F480720192019A0291EB
:1016E0001A6B42F001021A631B6B03F001030293B1
:1016F000029B012303930323049303A9014802F0EF
:1017000033FFDCE70000024030B589B000230393CB
:1017100004930593069307930268144B9A4201D0F1
:1017200009B030BD00250195114C236B43F0020335
:101730002363236B03F002030193019BC0230393F4
:1017400012230493032306930423079303A9094850
:1017500002F00AFF0295236C43F400132364236C08
:1017600003F400130293029BDAE700BF0054004029
:1017700000380240000402400368B3F1804F00D0FB
:10178000704782B000230193054B1A6C42F00102AE
:101790001A641B6C03F001030193019B02B07047B4
:1017A0000038024000B587B00023019302930393F1
:1017B000049305930368B3F1804F02D007B05DF83E
:1017C00004FB002300930A4B1A6B42F001021A63D8
:1017D0001B6B03F001030093009B0423019312236E
:1017E00002930123059301A9024802F0BDFEE5E73B
:1017F000003802400000024030B589B005460024A0
:1018000001941E4B5A6C42F480225A645B6C03F4C0
:1018100080230193019B02A903A802F087FE02F036
:1018200075FE03461648A0FB03239B0C013B15489D
:10183000154A026040F2E732C2604360046184608E
:10184000846100F0A5FC044610B1204609B030BD0B
:101850000C4800F057FB04460028F6D11A2003F08C
:1018600045F80F2D01D90124EFE7002229461A205F
:1018700003F004F8054B1D60E7E700BF00380240A5
:1018800083DE1B43B8020020004801408C0000208A
:1018900008B500220F49104805F0A0FA70B90F49A9
:1018A0000D4805F0CBFA60B90D490B4806F0B8FABF
:1018B00050B9094805F0DCFA48B908BDFFF7B6FC95
:1018C000EDE7FFF7B3FCEFE7FFF7B0FCF1E7FFF759
:1018D000ADFCF2E724000020000300209800002067
:1018E0007400002012230B80004870474000002045
:1018F00004230B80004870475400002000239342CB
:101900001ED200B510E00CF1370C01F813C0000135
:101910004FEA430C0CF1010C4FF0000E01F80CE003
:101920000133DBB2934209D24FEA107CB0F1204F71
:10193000E9D20CF1300C01F813C0E8E75DF804FBC4
:101940007047000038B50B4BD3F8100AD3F8144A8F
:10195000D3F8183AC01800D138BD074D0822A91C89
:10196000FFF7CCFF042205F112012046FFF7C6FF66
:10197000F2E700BF0070FF1F5800002008B51A23CF
:101980000B80FFF7DFFF014808BD00BF58000020B3
:1019900008B50A4628B90549054805F0BAFF0348C5
:1019A00008BD0249024805F0B4FFF8E7DC05002055
:1019B0006098000810B50A46034C2146034805F01C
:1019C000A8FF204610BD00BFDC0500207898000865
:1019D00008B50A4628B90549054805F09AFF0348A5
:1019E00008BD0249024805F094FFF8E7DC05002035
:1019F0008C98000808B50A4628B90549054805F03D
:101A000088FF034808BD0249024805F082FFF8E755
:101A1000DC050020989800080020704700207047DF
:101A20000020704738B50446074D0146284606F0A9
:101A300010FA284606F036FA012385F89F3222680C
:101A4000024B1A60002038BD00030020DC07002094
:101A500010B5074C00220749204606F0ECF906496C
:101A6000204606F0F6F9204606F01CFA002010BDCC
:101A700000030020DC0B0020DC070020094BD3F81A
:101A8000BC32D3F814320BB10120704710B5054CAD
:101A90000A460146204606F0CEF9204606F0E5F952
:101AA00010BD00BF0003002030B589B000230393B0
:101AB00004930593069307930368B3F1A04F01D0F5
:101AC00009B030BD00250195164C236B43F001038E
:101AD0002363236B03F001030193019B4FF4C05375
:101AE000039302230493032306930A23079303A972
:101AF0000D4802F039FD636B43F080036363029588
:101B0000636C43F480436364636C03F48043029327
:101B1000029B2A460521432002F0B0FE432002F03A
:101B2000E5FECDE7003802400000024008B503683A
:101B3000B3F1A04F00D008BD064A536B23F08003D9
:101B400053634FF4C051044802F0EEFD432002F00D
:101B5000DBFEF0E7003802400000024008B500F26A
:101B60009C41D0F8E00405F099F908BD08B501EBF7
:101B7000C10300EB8303D3F86022D0F8E00405F042
:101B80005FFA08BD08B501EBC10300EB83031A6AD5
:101B9000D0F8E00405F0B7FA08BD08B5D0F8E004C5
:101BA00005F0F9F908BD10B50446C379022B09D137
:101BB0000121D4F8E00405F0CFF9D4F8E00405F0F1
:101BC00099F910BDFFF732FBF2E7000010B50446AB
:101BD000D0F8E00405F0C3F92268D2F8003E43F0E3
:101BE0000103C2F8003EE37A23B1034A136943F0CC
:101BF0000603136110BD00BF00ED00E008B5D0F88A
:101C0000E00405F0BBF908BD08B5D0F8E00405F024
:101C1000EAF908BD08B5D0F8E00405F0CDF908BD33
:101C200008B5D0F8E00405F0F5F908BD08B5D0F81E
:101C3000E00405F0F1F908BD02780AB10020704710
:101C400010B503461548C0F8E034C3F8C8024FF099
:101C5000A0430360042303710222C2710023837135
:101C600042728372C37203738373C37300F044FDC3
:101C700080B90A4C8021204601F047FB4022002118
:101C8000204601F01CFB80220121204601F017FBB9
:101C9000002010BDFFF7CAFAEBE700BFDC0F002001
:101CA000D0F8C83211F0800F08D101F07F0101EBAC
:101CB000C10103EB810191F85602704701F07F01E9
:101CC00001EBC10103EB8101887D704708B5D0F8B5
:101CD000C80200F051FF08BD00487047C014002042
:101CE0007047032805D8DFE800F00504020501204D
:101CF00070470320704708B5D0F8C80200F07DFD9A
:101D0000FFF7EFFF08BD08B5D0F8C80200F08CFD62
:101D1000FFF7E7FF08BD08B5D0F8C80200F0A6FD40
:101D2000FFF7DFFF08BD08B594461A466346D0F8B2
:101D3000C80200F07EFEFFF7D4FF08BD08B5D0F85A
:101D4000C80200F0BCFEFFF7CCFF08BD08B5D0F814
:101D5000C80200F03FFFFFF7C4FF08BD08B5D0F888
:101D6000C80200F07AFFFFF7BCFF08BD08B5D0F845
:101D7000C80200F04BFEFFF7B4FF08BD08B5D0F86D
:101D8000C80200F002FFFFF7ACFF08BD08B5D0F8AD
:101D9000C80200F0CCFEFFF7A4FF08BD70B4036AD0
:101DA000026A22F0010202624668826922F073022E
:101DB0000C6844EA020523F002028B6813430D4CC1
:101DC000A04209D00B4CA0420DD0466085614A6804
:101DD0004263036270BC704723F00803CA68134370
:101DE00023F00403EEE726F440764A6932438E6915
:101DF0001643EAE70000014030B4036A026A22F4A5
:101E0000807202624568C26922F073020C68224344
:101E100023F400738C6843EA04230F4CA04209D0DA
:101E20000D4CA0420ED04560C2614A68C263036295
:101E300030BC704723F40063CC6843EA042323F4E6
:101E40008063EDE725F440554C6945EA04158C693B
:101E500045EA0415E7E700BF0000014030B4036A1B
:101E6000026A22F4805202624468C26922F4E642A5
:101E70000D6842EA052223F400538D6843EA0533D6
:101E8000074DA84206D04460C2614A6802640362FA
:101E900030BC704724F480444D6944EA8514F2E76D
:101EA0000000014010B4036A046A24F001040462D3
:101EB000846924F0F00C4CEA021223F00A030B436D
:101EC000826103625DF8044B704710B4036A046AD0
:101ED00024F010040462846924F4704C4CEA023249
:101EE00023F0A00343EA0113826103625DF8044B0F
:101EF0007047836823F070030B4343F0070383604C
:101F00007047000090F83D30DBB2012B2FD1022347
:101F100080F83D300268D36843F00103D360036862
:101F2000154A934218D0B3F1804F15D0A2F57C42E8
:101F3000934211D002F5806293420DD002F5806287
:101F4000934209D002F59A32934205D01A6842F0C2
:101F500001021A60002070479A6802F00702062A00
:101F600007D01A6842F001021A6000207047012071
:101F700070470020704700BF000001407047704765
:101F800070477047704770B504460368DE681D6986
:101F900015F0020F10D016F0020F0DD06FF00202F4
:101FA0001A610123037703689B6913F0030F5ED066
:101FB000FFF7E6FF0023237715F0040F12D016F089
:101FC000040F0FD023686FF004021A6102232377F5
:101FD00023689B6913F4407F4FD02046FFF7D0FF62
:101FE0000023237715F0080F12D016F0080F0FD03A
:101FF00023686FF008021A61042323772368DB69E2
:1020000013F0030F40D02046FFF7BAFF00232377D9
:1020100015F0100F12D016F0100F0FD023686FF0CC
:1020200010021A61082323772368DB6913F4407FC9
:1020300031D02046FFF7A4FF0023237715F0010FCE
:1020400002D016F0010F2DD115F0800F02D016F03E
:10205000800F2FD115F0400F02D016F0400F31D174
:1020600015F0200F02D016F0200F33D170BDFFF70E
:1020700086FF2046FFF785FF9CE72046FFF77FFF9E
:102080002046FFF77EFFABE72046FFF778FF2046AC
:10209000FFF777FFBAE72046FFF771FF2046FFF70B
:1020A00070FFC9E723686FF001021A612046FFF74D
:1020B000B1F8C9E723686FF080021A61204600F08A
:1020C000B2FAC7E723686FF040021A612046FFF7B3
:1020D00059FFC5E723686FF020021A61204600F01F
:1020E000A1FAC3E70368294A90420ED0B0F1804FAD
:1020F0000BD0A2F57C42904207D002F5806290425C
:1021000003D002F58062904203D123F070034A6845
:1021100013431E4A90421AD0B0F1804F17D0A2F557
:102120007C42904213D002F5806290420FD002F5BB
:10213000806290420BD002F59A32904207D002F5AD
:102140008062904203D002F58062904203D123F472
:102150004073CA68134323F080034A691343036042
:102160008B68C3620B688362084B98420AD00123D4
:102170004361036913F0010F03D0036923F00103E6
:10218000036170470B690363F1E700BF0000014082
:1021900040B310B5044690F83D30F3B1022384F803
:1021A0003D30214651F8040BFFF79CFF012384F8D2
:1021B000463084F83E3084F83F3084F8403084F86C
:1021C000413084F8423084F8433084F8443084F855
:1021D000453084F83D30002010BD80F83C30FFF7DA
:1021E000CBFADBE70120704740B310B5044690F806
:1021F0003D30F3B1022384F83D30214651F8040B01
:10220000FFF770FF012384F8463084F83E3084F8ED
:102210003F3084F8403084F8413084F8423084F80C
:10222000433084F8443084F8453084F83D30002051
:1022300010BD80F83C30FFF7A1FEDBE701207047BE
:1022400030B4036A026A22F01002026244688269B2
:1022500022F4E6420D6842EA052223F020038D684D
:1022600043EA05130E4DA84209D00D4DA8420ED0E9
:10227000446082614A688263036230BC704723F025
:102280008003CD6843EA051323F04003EDE724F40F
:1022900040644D6944EA85048D6944EA8504E7E7B2
:1022A0000000014038B590F83C30012B66D0044660
:1022B0000D46012380F83C300C2A5AD8DFE802F0A2
:1022C000075959591B5959593059595944000068EF
:1022D000FFF764FD2268936943F008039361226865
:1022E000936923F0040393612268936929690B437E
:1022F000936100203EE00068FFF7A2FF2268936927
:1023000043F4006393612268936923F480639361CB
:1023100022689369296943EA01239361002029E037
:102320000068FFF769FD2268D36943F00803D361B1
:102330002268D36923F00403D3612268D369296931
:102340000B43D361002015E00068FFF787FD22688A
:10235000D36943F40063D3612268D36923F48063B3
:10236000D3612268D369296943EA0123D36100203C
:1023700000E00120002384F83C3038BD0220FCE757
:1023800010B4846824F47F4C42EA03220A4342EAF0
:102390000C0282605DF8044B704790F83C30012BD2
:1023A00078D010B50446012380F83C30022380F831
:1023B0003D300268936823F47F4323F077039360F2
:1023C0000B68602B4CD029D8402B54D00CD9502B03
:1023D00022D1CA6849680068FFF764FD502120686F
:1023E000FFF787FD002005E0202B0DD009D9302B09
:1023F0000AD00120012384F83D30002384F83C30CA
:1024000010BD0BB1102B05D119462068FFF771FDE7
:102410000020EFE70120EDE70120EBE7B3F5805F57
:1024200034D0B3F5005F0CD1CB684A688968006886
:10243000FFF7A6FF2268936843F48043936000206F
:10244000D8E7702B24D1CB684A6889680068FFF709
:1024500097FF2268936843F0770393600020C9E7F1
:10246000CA6849680068FFF730FD60212068FFF7FF
:1024700040FD0020BEE7CA6849680068FFF712FD0A
:1024800040212068FFF735FD0020B3E70020B1E7C9
:102490000120AFE70220704701F01F01012303FA7A
:1024A00001FC036A23EA0C030362036A02FA01F1E6
:1024B0000B4303627047000010B50446084600292C
:1024C00032D194F83E30DBB2013B18BF0123002B20
:1024D00063D1002841D1022384F83E300122014615
:1024E0002068FFF7D9FF23682E4A934245D023681E
:1024F0002C4A934246D0B3F1804F43D0A2F57C42A0
:1025000093423FD002F5806293423BD002F5806255
:10251000934237D002F59A32934233D01A6842F090
:1025200001021A60002037E0042908D008290DD0E4
:1025300094F84130DBB2013B18BF0123C7E794F8A0
:102540003F30DBB2013B18BF0123C0E794F84030B5
:10255000DBB2013B18BF0123B9E7042805D00828E6
:1025600007D0022384F84130B8E7022384F83F30D3
:10257000B4E7022384F84030B0E75A6C42F40042DA
:102580005A64B4E79A6802F00702062A07D01A686C
:1025900042F001021A60002010BD0120FCE700207B
:1025A000FAE700BF0000014090F83C30012B35D025
:1025B00010B4012380F83C30022380F83D300368DA
:1025C0005A689C6822F0700C0A6842EA0C025A6051
:1025D0000368134A934212D0B3F1804F0FD0A2F593
:1025E0007C4293420BD002F58062934207D002F501
:1025F0008062934203D002F59A32934204D124F0D0
:1026000080044A6814439C60012380F83D30002315
:1026100080F83C3018465DF8044B70470220704744
:1026200000000140704770472DE9F04383B0D0F8B7
:10263000008001EBC10300EB83039A6A5B6A9A4254
:1026400054D807460C469B1A01EBC10200EB8202EC
:10265000D2699A4200D31A4602F103094FEA990956
:1026600015E006F103094FEA9909BB7904EBC405AB
:1026700007EB8505296A0093B3B2E2B2404601F048
:102680007EF92B6A33442B62AB6A3344AB6208EBAE
:10269000441303F510639B699BB24B4512D304EBC3
:1026A000C40207EB8202916A536A99420AD24BB183
:1026B0005B1A04EBC40207EB8202D6699E42D0D3B8
:1026C0001E46CEE704EBC40007EB80077A6ABB6ABC
:1026D0009A420FD804F00F040123A340D8F83448DD
:1026E00024EA0304C8F83448002000E0012003B0C5
:1026F000BDE8F0830020FAE730B583B000287AD037
:102700000446056890F89534C3B1032384F89534E2
:10271000B5F1A04F17D0206800F0E2FE237C8DF8C1
:102720000030231D0ECB206800F019FE70B102238B
:1027300084F895340125284603B030BD80F89434E0
:10274000FFF7B2F9E1E70023A371E4E70021206875
:1027500001F056FB024608B9034617E0022384F84D
:1027600095340125E7E703EBC30104EB8101012068
:1027700048750B75CB8500200876C861086203EBAD
:10278000C30104EB810148620133DBB22079984236
:10279000E9D816E002EBC20304EB8303002183F8BF
:1027A000551283F8542283F85812C3F85C12C3F808
:1027B000601202EBC20304EB8303C3F8641201321C
:1027C000D2B29042E6D8237C8DF80030231D0ECB88
:1027D000206800F0DBFE054620B1022384F8953422
:1027E0000125A8E700236374012384F89534206849
:1027F00001F0C3FA9FE701259DE738B590B1044683
:10280000032380F89534006801F079FA054610B189
:102810000125284638BD2046FFF788F9002384F8B3
:102820009534F6E70125F4E7036890F89424012A2B
:102830001AD010B50446012280F89424DA6812F008
:10284000400F02D0427B012A09D0206800F042FEEE
:10285000206801F084FA002084F8940410BD9A6B7B
:1028600042F480329A63F0E70220704738B5056879
:1028700090F89434012B1DD00446012380F8943441
:10288000284600F02DFE206801F077FA102120681C
:1028900000F02CFEEB6813F0400F02D0637B012B9D
:1028A00003D0002084F8940438BDAB6B23F480334C
:1028B000AB63F6E70220F7E770B504460D46006803
:1028C000066C00EB411303F530639A68A179012986
:1028D00011D038498E4256D03DB905EBC50304EB03
:1028E0008303D3F86432002B5ED0E9B22046FFF7B1
:1028F0003DF9002070BD12F0080F09D02E498E421C
:10290000F7D912F4004FF4D04FF400429A60F0E788
:1029100012F0200F02D020229A60EAE712F0280F6E
:10292000E7D125498E4206D912F4004F03D04FF467
:1029300000429A60DDE705EBC50204EB8202D2F8A3
:1029400074121B69C3F31203CB1AC2F868327DB943
:1029500005EBC50204EB8202D2F864226AB105EBF2
:10296000C50204EB8202D2F860120B44C2F8603256
:10297000E9B22046FFF7FAF8BBE704F29C420121D6
:1029800001F080FAF4E712F4004F03D04FF4004254
:102990009A60AEE712F0200F01D020229A60E9B2CF
:1029A0002046FFF7E3F8A4E704F29C42002101F07F
:1029B00069FA9AE70A31544F0A30544F38B5044641
:1029C00003681D6C03EB4113D3F8081B0E4A9542B4
:1029D00007D903F5306311F4004F02D04FF40042E1
:1029E0009A602046FFF7BAF8074B9D4202D9A379B7
:1029F000012B01D0002038BD04F29C420121206847
:102A000001F040FAF6E700BF0A30544F90F89434D2
:102A1000012B0CD010B50446012380F89434417486
:102A2000006801F08CF9002084F8940410BD0220A5
:102A3000704738B505468C4611F0800F2BD101F058
:102A40000F0E0EEBCE04A40004F514740444211DF3
:102A50000EEBCE0E00EB8E0E00208EF855020CF021
:102A60000F0C81F800C0C2F30A028A600B714A7829
:102A70000AB1A1F81AC0022B1CD095F89434012B8E
:102A80001BD0012385F89434286800F05AFE0020FA
:102A900085F8940438BD01F00F0000EBC0018900F7
:102AA00010312944043100EBC00005EB8000012403
:102AB0004475D4E700234B71DFE70220EAE710B545
:102AC00004460A4611F0800F20D101F00F0000EB00
:102AD000C0039B0003F514732344191D00EBC000D1
:102AE00004EB8000002380F8553202F00F020A70D8
:102AF00094F89434012B18D0012384F8943420687E
:102B000000F06EFE002084F8940410BD01F00F0068
:102B100000EBC0039B0010332344191D00EBC000E1
:102B200004EB800001234375DFE70220EDE710B5D9
:102B3000144601F00F0C0CEBCC01890001F5147167
:102B4000014404310CEBCC0E00EB8E0ECEF860226B
:102B5000CEF864320023CEF868328EF855328EF803
:102B600054C28279012A04D0006800F01FFF0020BF
:102B700010BDCEF87042F7E701F00F0101EBC10183
:102B800000EB8101D1F86802704710B5144601F0DE
:102B90000F0C0CEBCC0189001031014404310CEB1B
:102BA000CC0E00EB8E0ECEF82020CEF82430002381
:102BB000CEF8283001238EF815308EF814C08279B3
:102BC0009A4204D0006800F0F1FE002010BDCEF85B
:102BD0003040F7E738B501F00F050279AA4238D343
:102BE00004460B4611F0800F1FD101EBC101890093
:102BF00001F514710144043103EBC30300EB8303BB
:102C0000002283F8552201238B700D7094F89434C0
:102C1000012B20D0012384F89434206801F014F8AB
:102C200085B1002084F8940438BD05EBC501890006
:102C300010310144043105EBC50300EB830301228D
:102C40005A75E0E704F29C42A179206801F01AF974
:102C5000E7E70120E8E70220E6E701F00F03027949
:102C60009A4230D310B5044611F0800F1ED103EB09
:102C7000C301890001F514710144043103EBC3025F
:102C800000EB8202002082F8550200228A700B704D
:102C900094F89434012B18D0012384F894342068DC
:102CA00000F0FFFF002084F8940410BD03EBC30183
:102CB000890010310144043103EBC30200EB8202AE
:102CC00001205075E1E7012070470220EDE708B5CB
:102CD00011F0800F0CD101F00F0101EBC10189004F
:102CE00001F5147101440431006800F0E9FD08BDEC
:102CF00001F00F0101EBC1018900103101440431E1
:102D0000F2E72DE9F04F83B004460568284601F04C
:102D100073F810B103B0BDE8F08F0646206801F0EB
:102D20003AF80028F6D005F50067BB68C3F30D2319
:102D3000C4F8D434206801F02EF810F0020F04D04B
:102D40002268536903F002035361206801F023F8FD
:102D500010F0100F13D02268936923F010039361D1
:102D6000D5F8208008F00F09C8F34343022B4BD05D
:102D7000062B6FD02268936943F01003936120689B
:102D800001F009F810F4002F76D1206801F003F863
:102D900010F4802F40F0E080206800F0FCFF002855
:102DA000C0F26181206800F0F6FF10F4006F09D0D6
:102DB000BB6813F0010F40F06E812268536903F481
:102DC00000635361206800F0E6FF10F4805F40F07C
:102DD0006681206800F0DFFF10F4005F40F0B381EF
:102DE000206800F0D8FF10F0080F40F0C481206880
:102DF00000F0D1FF10F0800F00F0D781AB6923F015
:102E00008003AB610126C0E147F6F07318EA030FB7
:102E1000B0D04FEA181B4FEAC903019309EBC90A66
:102E200004EB8A0AC8F30A12DAF86012284600F0A6
:102E3000E1FECBF30A0BDAF860325B44CAF8603289
:102E4000019B4B4404EB8303D3F868325B44CAF81C
:102E500068328FE7082204F29C41284600F0CAFE3F
:102E6000C8F30A1809EBC90204EB8202D2F86832EF
:102E70004344C2F868327DE7206800F090FF804646
:102E8000B14635E005EB49130122C3F8082B49464A
:102E90002046FFF711FD3CE005EB49130822C3F87B
:102EA000082B49462046FFF789FD35E009EBC903A9
:102EB00004EB830393F85732012B41D005EB491300
:102EC0000222C3F8082B1AF0200F04D005EB491397
:102ED0002022C3F8082B1AF4005F05D005EB491334
:102EE0004FF40052C3F8082B09F101094FEA5808C2
:102EF000B8F1000F3FF449AF18F0010FF4D05FFABA
:102F000089FB5946206800F05AFF824610F0010FF5
:102F1000B8D11AF0080FBFD11AF0100F04D005EB8A
:102F200049131022C3F8082B1AF0020FCBD06B699B
:102F300013F0800FBAD07B6843F480637B60B5E701
:102F400009EBC90304EB8303002283F85722594697
:102F50002046FEF759FEB1E7206800F028FF8046C2
:102F6000B14625E059462046FEF70CFE1AF0080F40
:102F700004D005EB49130822C3F808291AF0100FF2
:102F800004D005EB49131022C3F808291AF0400FAA
:102F900004D005EB49134022C3F808291AF0020FA8
:102FA00040D11AF0800F59D109F101094FEA5808B0
:102FB000B8F1000F3FF4F0AE18F0010FF4D05FFA53
:102FC00089FB5946206800F003FF824610F0010F8C
:102FD000CCD009F00F03012101FA03F27B6B23EA45
:102FE00002037B6305EB4913C3F80819A3798B42ED
:102FF000B8D109EBC90304EB8303D9691A6A0A44FF
:103000001A62B9F1000FADD109EBC90304EB8303D8
:103010005B6A002BA6D104F29C420121206800F0DB
:1030200031FF9FE74946284600F060FA09EBC903E3
:1030300004EB8303DB7D012B05D005EB4913022252
:10304000C3F80829ADE709EBC90304EB83030022A9
:10305000DA7559462046FEF7DDFDEEE74946204683
:10306000FFF7E2FAA0E77B6823F001037B6094F8A6
:10307000CC34012B08D02046FEF7C0FD22685369EE
:1030800003F0004353618DE6002184F8CC14204600
:1030900000F03FF9F2E72046FEF798FD8DE67B68E9
:1030A00023F001037B601021206800F01FFA1AE072
:1030B00005EB46134FF67F31C3F80819D3F8002902
:1030C00022F40012C3F80029C3F8081BD3F8002B20
:1030D00022F40012C3F8002BD3F8002B42F0006258
:1030E000C3F8002B01362379B342E1D8FB6943F0E2
:1030F0000113FB61E37BDBB1D7F8843043F00B03B2
:10310000C7F884307B6C43F00B037B64D5F8003840
:1031100023F4FE63C5F8003804F29C42A1792068CC
:1031200000F0B0FE2268536903F48053536150E607
:103130007B6943F4005343F02B037B613B6943F00D
:103140000B033B61E2E7206800F08BFE206800F093
:10315000E7FAE071266801F0C3F90146E2793046EA
:1031600000F046F92046FEF71EFD2268536903F47D
:103170000053536134E62046FEF70FFD2268536981
:1031800003F00803536132E601362379B3420CD9C8
:1031900006EBC60304EB830393F85732012BF3D1FC
:1031A000F1B22046FFF793FDEEE7206800F0F3FD53
:1031B00010F4801F25D1206800F0EDFD10F4001FF1
:1031C00059D0012326E001362379B3421BD905EB00
:1031D0004613D3F8002906EBC60304EB83031B7EDA
:1031E000012BF0D1002AEEDA06EBC60304EB8303D1
:1031F0000122DA7566F07F01C9B22046FFF767FD4C
:10320000E1E70126E0E72268536903F48013536184
:10321000D1E7013322799A4228D905EB4312D2F83B
:10322000001B03EBC30204EB820292F85822012A2E
:10323000EFD10029EDDA01F48031D4F8D42402F082
:1032400001029142E5D103EBC30204EB82020121AA
:1032500082F85712AA6942F08002AA616A6912F0E4
:10326000800FD6D17B6843F400737B60226853697A
:1032700003F400135361206800F08DFD10F0804FBF
:1032800010D1206800F087FD10F0040F3FF442AD2C
:1032900023685D6815F0040F0DD1226853682B4335
:1032A000536037E52046FEF7BBFC2268536903F004
:1032B00080435361E5E72046FEF7B8FCEDE710B424
:1032C0000468606A31B940EA0240A06200205DF8FB
:1032D000044B70478C46A36A00EB1340002308E0C0
:1032E00003F1400104EB8101496800EB1140013317
:1032F000DBB20CF1FF318B42F2D340EA02400CF119
:103300003F0104EB81014860E0E703685962002057
:103310007047704782B000230193019B01330193F2
:10332000019BB3F1706F15D80369002BF5DA002308
:103330000193036943F001030361019B013301938E
:10334000019BB3F1706F08D8036913F0010FF4D13A
:10335000002000E0032002B070470320FBE784B0A8
:1033600010B5044603A880E80E009DF81130012B2B
:1033700021D1A36B23F48033A363E36823F4840394
:1033800023F04003E360E36823F44013E3609DF817
:103390001830012B0AD02046FFF7BCFF9DF80E30F5
:1033A000012B1CD0BDE8104004B07047E36843F423
:1033B0008013E360EFE7E36843F04003E3602046F7
:1033C000FFF7A8FF9DF8153023B9A36B43F48033B2
:1033D000A363E3E7A36B23F48033A363DEE7A3686F
:1033E00043F00603A360A36843F02003A360D9E77A
:1033F000022A0AD00921C26822F47052C260C3684E
:1034000043EA8123C36000207047234B0B44234AC7
:1034100093422FD9224B0B44224A93422CD9A1F537
:103420007403A3F51053204A934227D9A1F1837363
:10343000A3F5E7431D4A934222D31D4B0B441D4A7B
:1034400093421FD91C4B0B441C4A93421CD31C4B68
:103450000B441C4A934219D3A1F1B773A3F55853F7
:10346000194A934214D3194B0B44194A934211D26F
:103470000721C0E70F21BEE70E21BCE70D21BAE707
:103480000C21B8E70B21B6E70A21B4E70921B2E71E
:103490000821B0E70621AEE7405327FFFF340C00B8
:1034A000401E1BFF3F420F007F4F120020D613002B
:1034B00060B6E5FE5FE3160000D3CEFE40771B004A
:1034C000C05BB3FEC091210020753800E05459FE66
:1034D000E09C4100836843F0010383600020704753
:1034E000836823F0010383600020704782B00023CB
:1034F0000193019B01330193019BB3F1706F15D8C8
:103500000369002BF5DA00230193890141F02001C2
:103510000161019B01330193019BB3F1706F08D8E6
:10352000036913F0200FF4D1002000E0032002B063
:1035300070470320FBE782B000230193019B013316
:103540000193019BB3F1706F13D80369002BF5DA77
:103550000023019310230361019B01330193019B1D
:10356000B3F1706F08D8036913F0100FF4D1002085
:1035700000E0032002B070470320FBE7D0F80038DA
:103580001943C0F8001800207047000084B0F8B557
:10359000044607A880E80E00002306E003F140027D
:1035A00004EB82020021516001330E2BF6D99DF805
:1035B000266006BBD4F8043843F00203C4F804388C
:1035C000A36B43F40013A363A36B23F40023A3634F
:1035D000A36B23F48023A3630023C4F8003E9DF86B
:1035E0002130012B15D19DF81F306BB900212046E9
:1035F000FFF7C4FF11E0A36B23F40013A363A36BD5
:1036000043F40023A363E7E701212046FFF7B6FF59
:1036100003E003212046FFF7B1FF10212046FFF70A
:1036200065FF054600B101252046FFF784FF00B184
:10363000012504F5006C0023CCF81030CCF81430D0
:10364000CCF81C300AE0CBB94FF00060C2F800099A
:1036500000220A614FF67F328A6001339DF81C1008
:10366000994210D904EB431202F51061D2F8000917
:103670000028E8DB0020C2F80009E9E74FF090409D
:10368000C2F80009E4E700230AE0BBB14FF090471D
:10369000C2F8007B002202614FF67F328260013364
:1036A000994210D904EB431202F53060D2F8007B46
:1036B000002FEADB0027C2F8007BEBE74FF0006742
:1036C000C2F8007BE6E7DCF8103023F48073CCF816
:1036D00010300023A3616FF0804363619DF81E30BA
:1036E0001BB9A36943F01003A361A2690B4B1343F9
:1036F000A3619DF822301BB1A36943F00803A361C5
:10370000012E04D02846BDE8F84004B07047A369F4
:1037100043F0804343F00403A361F3E700383C80A7
:10372000D0F8083813F0060307D0022B07D0062B79
:1037300001D00F2070470220704700207047022000
:10374000704710B591F800C04B78012B23D000F5DD
:10375000006ED0F81C380CF00F040122A24043EA9E
:103760000243C0F81C3800EB4C10D0F8003B13F4B7
:10377000004F0ED1D0F8003B8A68C2F30A020979E3
:1037800042EA8142134343F0805343F40043C0F8BC
:10379000003B002010BDD0F81C280CF00F0E03FADF
:1037A0000EF39BB21343C0F81C3800EB4C10D0F85A
:1037B000003913F4004FECD1D0F800398A68C2F315
:1037C0000A02097942EA814242EA8C5C43EA0C032C
:1037D00043F0805343F40043C0F80039D9E70000B8
:1037E00030B40B784A78012A26D000EB4313D3F883
:1037F000002B002A52DBD0F83C480A7802F00F0276
:103800004FF0010C0CFA02F224EA0242C0F83C2804
:10381000D0F81C28097801F00F010CFA01FC22EA0B
:103820000C42C0F81C28D3F8001B234A0A40C3F8F6
:10383000002B002030BC704700EB4313D3F8002965
:10384000002A1EDBD0F83C580A7802F00F0201244F
:1038500004FA02F292B225EA0202C0F83C28D0F83B
:103860001C28097801F00F018C40A4B222EA04045C
:10387000C0F81C48D3F80019104A0A40C3F80029C0
:10388000D7E7D3F8002942F00062C3F80029D3F843
:10389000002942F08042C3F80029D3E7D3F8002B77
:1038A00042F00062C3F8002BD3F8002B42F08042B4
:1038B000C3F8002B9FE700BF0078F3EF007833ECEC
:1038C00010B483B0024600230193487801280BD03E
:1038D0000B7802EB4313D3F8000B00282DDB0020FC
:1038E00003B05DF8044B70470B7802EB4313D3F839
:1038F0000049002C01DB0020F2E7D3F8004944F036
:103900000064C3F800490B7802EB4313D3F8004975
:1039100044F08044C3F80049019B01330193019CAA
:1039200042F210739C42DBD80B7802EB4313D3F8BE
:103930000039002BF0DB0020D2E7D3F8000B40F079
:103940000060C3F8000B0B7802EB4313D3F8000BB5
:1039500040F08040C3F8000B019B013301930198B4
:1039600042F21073984208D80B7802EB4313D3F855
:10397000003B002BF0DB0020B2E70120B0E710B5E0
:103980009DF8084084B903334FEA930E4FF0000CC2
:1039900008E000EB023303F5805351F8044B1C6040
:1039A0000CF1010CF445F4D3002010BDF0B583B048
:1039B0000C784B78012B2FD000EB441C0CF53063B6
:1039C0001D69ED0CED041D611D6925F0FF5525F401
:1039D000C0151D61002C40F0CF800C690CB18C68C3
:1039E0000C618C680C621D69C4F312042C431C61C9
:1039F0001C6944F400241C61012A00F0E0800B796A
:103A0000012B00F0E280DCF8003B43F00443CCF8EB
:103A1000003B002003B0F0BD0B6983BB00EB4413F7
:103A2000D3F8105925F0FF5525F4C015C3F81059E7
:103A3000D3F8105945F40025C3F81059D3F810599C
:103A4000ED0CED04C3F81059012A53D000EB4414D7
:103A5000D4F8003943F00443C4F800390B79012B42
:103A600071D00B69002BD4D0D0F834380A7802F02A
:103A70000F0101228A401343C0F83438C9E700EB34
:103A8000441303F510631D69ED0CED041D611D6900
:103A900025F0FF5525F4C0151D6184B90E698D68A8
:103AA000AE4200D90D611D6945F400251D611D69F7
:103AB0000E69C6F3120C45EA0C051D61C4E70D69D9
:103AC0008E683544013DB5FBF6F51E69484F07EA9F
:103AD000C54C46EA0C061E610E79012EE7D11E691F
:103AE00026F0C0461E611E696D0705F0C0453543CE
:103AF0001D61DCE7CB691BB100EB4412C2F814393D
:103B00000B79012B08D000EB4410D0F8003943F0BA
:103B10000443C0F800397CE7D0F8083813F4807FFC
:103B200008D100EB4412D2F8003943F00053C2F838
:103B30000039E8E700EB4412D2F8003943F0805333
:103B4000C2F80039DFE7D0F8083813F4807F0CD1D1
:103B5000D4F8003943F00053C4F8003900920B8ABE
:103B60000A78C968FFF70BFF53E7D4F8003943F030
:103B70008053C4F80039F1E70C6954B91C698D68A9
:103B8000C5F312052C431C611C6944F400241C611C
:103B900032E78D682C44013CB4FBF5F4A4B204FB7D
:103BA00005F50D621D69124E06EAC4442C431C61E2
:103BB0001C690D6AC5F312052C431C611CE7CA6819
:103BC000002A3FF41CAF5A6119E7D0F8083813F403
:103BD000807F06D1DCF8003B43F00053CCF8003B7B
:103BE00011E7DCF8003B43F08053CCF8003B0AE7D8
:103BF0000000F81F00B583B0844608464FEA920ED5
:103C000002F00302002305E00CF58051096840F83A
:103C1000041B01337345F7D39AB10CF5805CDCF8D3
:103C2000003001934FF0000C5FFA8CF3D900019B38
:103C3000CB4000F8013B0CF1010C013A92B2002A92
:103C4000F2D103B05DF804FB0B784A78012A14D056
:103C500000EB4310D0F8002B002A06DB2BB1D0F884
:103C6000003B23F08043C0F8003BD0F8003B43F416
:103C70000013C0F8003B0020704700EB4310D0F861
:103C80000029002A06DB2BB1D0F8003923F080434D
:103C9000C0F80039D0F8003943F40013C0F80039F7
:103CA000E9E70B784A78012A0ED000EB4310D0F8F0
:103CB000003B23F40013C0F8003B0B79023BDBB25E
:103CC000012B15D90020704700EB4310D0F80039C4
:103CD00023F40013C0F800390B79023BDBB2012B4F
:103CE000F0D8D0F8003943F08053C0F80039E9E744
:103CF000D0F8003B43F08053C0F8003BE2E710B53A
:103D00000446002208E004EB42134FF67F31C3F86B
:103D10000819C3F8081B01320E2AF4D90022C4F88E
:103D20001028C4F81428C4F81C282046FFF703FC08
:103D300000B110BD10212046FFF7D8FBF9E7D0F8FD
:103D4000003823F4FE63C0F80038D0F800380901C9
:103D500001F4FE611943C0F8001800207047D0F844
:103D6000003E23F00303C0F8003ED0F8043823F0EF
:103D70000203C0F8043800207047D0F8003E23F05A
:103D80000303C0F8003ED0F8043843F00203C0F843
:103D90000438002070474269806910407047D0F8AD
:103DA000183800F50060C0691840000C7047D0F862
:103DB000183800F50060C069184080B2704700EB09
:103DC0004111D1F8082B00F50060406910407047A0
:103DD00010B4D0F81048D0F8343801F00F02D340B6
:103DE000DB01DBB2234300EB411000F5106080687B
:103DF00018405DF8044B7047406900F001007047BF
:103E000038B50546C36823F0C043C360012913D009
:103E100019BBC36843F08043C36000240A2000F04C
:103E2000B1FD0A342846FFF7E7FF08B1C72CF5D9E2
:103E3000C82C14D0002038BDC36843F00053C360C1
:103E400000240A2000F09EFD0A342846FFF7D4FF24
:103E50000128EDD0C72CF4D9EAE70120EBE70120D7
:103E6000E9E7D0F8003923F4FF6323F00703C0F833
:103E70000039D0F8043843F48073C0F804380020C7
:103E80007047000010B4046C154B9C4203D9D0F865
:103E9000003B002B16DB0024C0F8104BD0F8104B71
:103EA00044F40024C0F8104BD0F8104B44F0180430
:103EB000C0F8104BD0F8104B44F0C044C0F8104B81
:103EC000012903D000205DF8044B7047C0F8142B83
:103ED000D0F8003B43F08023C0F8003BF2E700BF7E
:103EE0000A30544F002800F0E08170B582B00446DB
:103EF000036813F0010F3BD09F4B9B6803F00C034A
:103F0000042B2CD09C4B9B6803F00C03082B21D076
:103F10006368B3F5803F4FD0B3F5A02F52D0964BD6
:103F20001A6822F480321A601A6822F480221A6019
:103F30006368002B50D000F01FFD05468E4B1B68B8
:103F400013F4003F14D100F017FD401B6428F5D98D
:103F50000320B1E1884B5B6813F4800FD8D0864B07
:103F60001B6813F4003F03D06368002B00F09F81AF
:103F7000236813F0020F54D07F4B9B6813F00C0F93
:103F80003ED07D4B9B6803F00C03082B33D0E368D5
:103F9000002B68D0794B01221A6000F0EDFC054639
:103FA000754B1B6813F0020F54D100F0E5FC401B69
:103FB0000228F5D903207FE16F4A136843F4803368
:103FC0001360B5E76C4B1A6842F480221A601A68D5
:103FD00042F480321A60ABE700F0CEFC0546664B37
:103FE0001B6813F4003FC3D000F0C6FC401B6428DC
:103FF000F5D9032060E1604B5B6813F4800FC6D1F4
:104000005D4B1B6813F0020F03D0E368012B40F0F7
:104010005081594A136823F0F803216943EAC10328
:104020001360236813F0080F42D063696BB3534BDE
:104030000122C3F8802E00F09FFC05464E4B5B6FBB
:1040400013F0020F34D100F097FC401B0228F5D981
:10405000032031E1484A136823F0F803216943EA59
:10406000C1031360DDE7454B00221A6000F084FCB9
:104070000546414B1B6813F0020FD2D000F07CFCC8
:10408000401B0228F5D9032016E13C4B0022C3F85F
:10409000802E00F071FC0546374B5B6F13F0020F6A
:1040A00006D000F069FC401B0228F5D9032003E18B
:1040B000236813F0040F77D02F4B1B6C13F0805F35
:1040C00033D1002301932C4B1A6C42F080521A64B6
:1040D0001B6C03F080530193019B0125284B1B6847
:1040E00013F4807F23D0A368012B34D0052B38D064
:1040F000214B1A6F22F001021A671A6F22F0040294
:104100001A67A368002B3DD000F036FC06461A4B18
:104110001B6F13F0020F46D100F02EFC801B41F202
:1041200088339842F3D90320C6E00025D6E7144A25
:10413000136843F48073136000F01EFC0646104BB6
:104140001B6813F4807FCED100F016FC801B022880
:10415000F5D90320B0E0084A136F43F00103136759
:10416000CFE7054B1A6F42F004021A671A6F42F04C
:1041700001021A67C5E700BF00380240000047424D
:104180000070004000F0F8FB0646524B1B6F13F026
:10419000020F08D000F0F0FB801B41F288339842F8
:1041A000F3D9032088E0EDB9A369002B00F08380E8
:1041B000484A926802F00C02082A51D0022B17D00C
:1041C000454B00221A6600F0D7FB0446414B1B68A2
:1041D00013F0007F42D000F0CFFB001B0228F5D97E
:1041E000032069E03B4A136C23F080531364DBE740
:1041F000394B00221A6600F0BFFB0546354B1B68A1
:1042000013F0007F06D000F0B7FB401B0228F5D961
:10421000032051E0E369226A1343626A43EA82138E
:10422000A26A5208013A43EA0243E26A43EA02639D
:10423000284A5360284B01221A6600F09DFB044671
:10424000244B1B6813F0007F06D100F095FB001B88
:104250000228F5D903202FE000202DE000202BE0DC
:10426000012B2BD01B4B5B6803F48001E269914268
:1042700026D103F03F02216A8A4223D1616A47F6C0
:10428000C0721A40B2EB811F1ED103F44031A26A02
:104290005208013AB1EB024F18D103F07063E26AA1
:1042A000B3EB026F14D1002006E00120704701201B
:1042B00002E0012000E0002002B070BD0120FBE719
:1042C0000120F9E70120F7E70120F5E70120F3E7F6
:1042D0000120F1E7003802400000474208B5254BB5
:1042E0009B6803F00C03042B3FD0082B3FD1214BDC
:1042F0005A6802F03F025B6813F4800F12D01D4B26
:104300005968C1F388111C480023A1FB0001FCF788
:1043100043FC184B5B68C3F3014301335B00B0FB04
:10432000F3F025E0134B5968C1F3881C4FEA4C1198
:10433000B1EB0C006EEB0E0E4FEA8E1343EA906366
:104340008101091A63EB0E03DB0043EA5173C900D4
:1043500011EB0C0C43F10003990200234FEA8C206F
:1043600041EA9C51FCF718FCD3E7034800E00348FE
:1043700008BD00BF0038024040787D010024F400F1
:10438000002800F09B8070B50D4604464F4B1B681B
:1043900003F007038B4208D2CBB24C4A1370136868
:1043A00003F007038B4240F08B80236813F0020F69
:1043B00017D013F0040F04D0454A936843F4E05338
:1043C0009360236813F0080F04D0414A936843F4C4
:1043D000604393603E4A936823F0F003A1680B4367
:1043E0009360236813F0010F32D06368012B21D052
:1043F0009A1E012A25D9364A126812F0020F61D09E
:1044000033498A6822F0030213438B6000F0B4FA48
:1044100006462F4B9B6803F00C036268B3EB820FD8
:1044200016D000F0A9FA801B41F288339842F0D9E7
:10443000032042E0264A126812F4003FE0D1012036
:104440003BE0234A126812F0007FD9D1012034E00A
:104450001E4B1B6803F00703AB4207D9EAB21B4BA4
:104460001A701B6803F00703AB422DD1236813F0C9
:10447000040F06D0164A936823F4E053E1680B4317
:104480009360236813F0080F07D0114A936823F450
:104490006043216943EAC1039360FFF71FFF0C4BA0
:1044A0009B68C3F303130B4AD35CD8400A4B1860D4
:1044B0000A4B1868FDF7A0F9002070BD0120704775
:1044C0000120FAE70120F8E70120F6E7003C02406E
:1044D00000380240A8980008900000208C000020BE
:1044E000014B1868704700BF9000002008B5FFF727
:1044F000F7FF044B9B68C3F38223034AD35CD84085
:1045000008BD00BF00380240B898000808B5FFF7A2
:10451000E7FF044B9B68C3F34233034AD35CD840A4
:1045200008BD00BF00380240B89800080F230360A0
:104530000B4B9A6802F0030242609A6802F0F002A4
:1045400082609A6802F4E052C2609B68DB0803F460
:10455000E0530361034B1B6803F007030B607047D4
:1045600000380240003C024000230F2B00F2D280B2
:1045700070B582B060E085685E000324B44025EA2F
:104580000405CC68B4402C438460456825EA0205E4
:104590004C68C4F300129A402A4342605AE0DC0897
:1045A000083450F8246003F0070295000F22AA4057
:1045B00026EA020E0A69AA4042EA0E0240F82420C6
:1045C0005CE0042200E0002202FA0EF22A430234E8
:1045D000514D45F82420514A94686FEA0C0224EAB0
:1045E0000C054E6816F4801F01D04CEA04054B4CB4
:1045F000A560E46802EA04054E6816F4001F01D0C5
:104600004CEA0405454CE560646802EA04054E681E
:1046100016F4003F01D04CEA0405404C6560246864
:1046200022404D6815F4803F01D04CEA04023B4C17
:10463000226001330F2B6BD801229A400C6804EAE8
:10464000020C32EA0404F4D14C6804F00304013C87
:10465000012C90D94A6802F00302032A09D0C468E9
:104660005D000322AA4024EA02048A68AA40224389
:10467000C2604A6802F00302022A90D004684FEA3E
:10468000430E032202FA0EF224EA02044A6802F000
:10469000030202FA0EF2224302604A6812F4403F1B
:1046A000C7D0002201921E4A546C44F480445464E2
:1046B000526C02F480420192019A9C08A51C164A91
:1046C00052F8255003F003024FEA820E0F2202FA3D
:1046D0000EF225EA0205134A90423FF474AF02F548
:1046E000806290420ED002F5806290420CD002F5BA
:1046F000806290420AD002F5806290423FF461AF3E
:10470000072261E701225FE702225DE703225BE700
:1047100002B070BD704700BF00380140003C01404E
:10472000003802400000024000230F2B7CD8F0B577
:104730002DE0042500E0002505FA0CFCA44557D027
:1047400004685D004FF0030C0CFA05FC24EA0C042D
:1047500004604FEAD30E0EF1080E50F82E4003F01D
:104760000705AE000F25B54024EA050440F82E40A9
:10477000C46824EA0C04C460446824EA020242606B
:10478000826822EA0C02826001330F2B4BD801228F
:104790009A4002EA010632EA0104F5D14FEA930E8B
:1047A0000EF10205214C54F8254003F0030C4FEAAA
:1047B0008C0C0F2505FA0CF73C401D4DA842BAD0D1
:1047C00005F58065A8420DD005F58065A8420BD09F
:1047D00005F58065A84209D005F58065A842A8D0F6
:1047E0000725A9E70125A7E70225A5E70325A3E7F4
:1047F000104C256825EA06052560656825EA06054A
:104800006560E56825EA0605E560A56825EA06060F
:10481000A660064E0EF1020456F8245025EA07055C
:1048200046F824508CE7F0BD704700BF00380140C7
:1048300000000240003C01400AB181617047090458
:1048400081617047436901EA030221EA030141EAF9
:104850000241816170470000074AD36823F4E06396
:104860001B041B0C000200F4E060034343F0BF6331
:1048700043F40033D360704700ED00E000B5194BFE
:10488000DB68C3F30223C3F1070CBCF1040F28BF9C
:104890004FF0040C03F1040EBEF1060F18D9033BD0
:1048A0004FF0FF3E0EFA0CFC21EA0C0199400EFA83
:1048B00003F322EA0303194300280BDB0901C9B201
:1048C00000F1604000F5614080F800135DF804FBE2
:1048D0000023E5E700F00F000901C9B2024B1954AB
:1048E000F4E700BF00ED00E014ED00E0002807DB76
:1048F00000F01F02400901239340024A42F8203091
:10490000704700BF00E100E000280CDB00F01F0250
:104910004009012393402030034A42F82030BFF37E
:104920004F8FBFF36F8F704700E100E008B50B4B6E
:104930001A6842F400721A601A6842F480621A60BF
:104940001A6842F480721A600320FFF785FF0F2077
:10495000FCF752FFFCF782FE002008BD003C02403D
:10496000034A1168034B1B780B441360704700BF68
:10497000E016002088000020014B1868704700BF37
:10498000E016002038B50446FFF7F6FF0546B4F1FF
:10499000FF3F02D0044B1B781C44FFF7EDFF401B88
:1049A000A042FAD338BD00BF880000204A4B5A68A5
:1049B00022F440325A605A6841680A435A600268D9
:1049C000536823F48073536002685368016943EAB3
:1049D000012353600268536823F0407353600268F8
:1049E000536881680B4353600268936823F4006343
:1049F000936002689368C1680B439360826A374B87
:104A00009A4257D00268936823F0706393600268FB
:104A10009368816A0B4393600268936823F0405364
:104A2000936002689368C16A0B439360026893685D
:104A300023F00203936002689368017E43EA410316
:104A4000936090F82030002B3FD00268536843F405
:104A5000006353600268536823F460435360016845
:104A60004B68426A013A43EA42334B600268D36AB8
:104A700023F47003D3620168CB6AC269013A43EA46
:104A80000253CB620268936823F400739360026858
:104A9000936890F8301043EA41239360026893686A
:104AA00023F48063936002689368416943EA812339
:104AB000936070470268936823F0706393600268A4
:104AC000936823F040539360B0E70268536823F47F
:104AD00000635360CAE700BF002301400100000FDC
:104AE00038B310B50446036C43B1236C13F0100FB8
:104AF0000BD00120002384F83C3010BDFCF7D0FD22
:104B00000023636484F83C30EFE7236C23F488537C
:104B100023F0020343F0020323642046FFF746FF1D
:104B200000206064236C23F0030343F0010323643B
:104B3000E0E701207047000082B00023019390F865
:104B40003C30012B6ED0012380F83C3003689A681A
:104B500012F0010F13D19A6842F001029A60344BAF
:104B60001B68344AA2FB03239B0C03EB4303019312
:104B700002E0019B013B0193019B002BF9D10268EC
:104B8000936813F0010F42D0036C23F4E06323F029
:104B9000010343F480730364536813F4806F05D0FA
:104BA000036C23F4405343F480530364036C13F405
:104BB000805F19D0436C23F006034364002380F820
:104BC0003C306FF0220313601B4B5B6813F01F0F28
:104BD0000DD103689A6812F0405F25D19A6842F0BF
:104BE00080429A6000201BE000234364E6E70368EC
:104BF000124A934201D0002012E09A6812F0405FFE
:104C000014D19A6842F080429A60002008E0036C58
:104C100043F010030364436C43F00103436400203A
:104C200002B070470220FBE70020F9E70020F7E719
:104C30009000002083DE1B43002301400020014040
:104C400090F83C30012B19D0012380F83C300268E9
:104C5000936823F00103936003689B6813F0010FCE
:104C600007D1036C23F4885323F0010343F00103BD
:104C70000364002380F83C301846704702207047D8
:104C800070B504460D4603689A6812F4806F03D02D
:104C90009B6813F4807F19D1FFF76EFE06462368E8
:104CA0001A6812F0020F20D1B5F1FF3FF7D0B5B965
:104CB00023681B6813F0020FF1D1236C43F0040347
:104CC0002364002384F83C30032032E0036C43F07B
:104CD00020030364002380F83C30012029E0FFF723
:104CE0004BFE801BA842DAD9E2E76FF012021A608D
:104CF000236C43F40073236423689A6812F0405FC6
:104D000016D1207EB0B9DA6A12F4700F03D09B6816
:104D100013F4806F0DD1236C23F480732364236C10
:104D200013F4805F05D1236C43F00103236400E09A
:104D3000002070BD0020FCE70368D86C70470000BD
:104D400030B482B00023019390F83C30012B00F086
:104D5000BB80012380F83C300B68092B41D90468E3
:104D6000E2689BB203EB43031E3B4FF0070C0CFAC7
:104D700003F322EA0303E3600468E2680B8803EBB1
:104D800043031E3B8D6805FA03F31343E3604B684E
:104D9000062B3DD80468626B03EB8303053B4FF0A1
:104DA0001F0C0CFA03F322EA030363630468626BCB
:104DB0004B6803EB8303053BB1F800C00CFA03F327
:104DC000134363630268414B9A4251D002683F4BE0
:104DD0009A4256D0002380F83C30184602B030BCCE
:104DE0007047046822699BB203EB43034FF0070C42
:104DF0000CFA03F322EA03032361046822690B8897
:104E000003EB43038D6805FA03F313432361BEE705
:104E10000C2B16D805682A6B03EB8303233B1F2456
:104E200004FA03F322EA03032B6305682A6B4B6839
:104E300003EB8303233B0C8804FA03F313432B6334
:104E4000C0E70568EA6A03EB8303413B1F2404FAC9
:104E500003F322EA0303EB620568EA6A4B6803EB9B
:104E60008303413B0C8804FA03F31343EB62A9E785
:104E70000B68122BAAD1164A536843F4800353607F
:104E8000A4E70B68103B012BA4D8114A536843F4E4
:104E9000000353600B68102B9CD10E4B1B6802F172
:104EA000467202F52E3202F28332A2FB03239B0CE0
:104EB00003EB83035B00019302E0019B013B019341
:104EC000019B002BF9D185E7022087E700200140F4
:104ED0000023014090000020002800F0CC8070B535
:104EE000044690F83D30002B77D0242384F83D30E1
:104EF0002268136823F0010313602268136843F4E7
:104F0000004313602268136823F400431360FFF723
:104F1000EDFA62685A4B9A4264D85A4B98428CBF59
:104F200000230123002B40F0A8805749A1FB00314A
:104F30008B0C25686A6822F03F0242EA91426A605F
:104F400021680A6A22F03F0266684D4DAE424FD892
:104F5000013313430B622168CA6922F44F4222F0E5
:104F6000FF026668464B9E424CD8431E7600B3FB58
:104F7000F6F3013340F6FC70034278D0C3F30B0321
:104F80001343CB6121680B6823F0C003E269206AF8
:104F9000024313430B6021688B6823F4034323F01F
:104FA000FF032269E068024313438B602168CB68EA
:104FB00023F0FF036269A06902431343CB602268B8
:104FC000136843F00103136000202064202384F859
:104FD0003D30206384F83E0070BD80F83C30FCF723
:104FE00093FB82E7294B98428CBF0023012399E76A
:104FF0004FF4967505FB03F3254DA5FB03539B0961
:105000000133A6E7A368BBB9451E06EB460CB5FB0A
:10501000FCF50135C5F30B05B5FA85F56D0945BB02
:10502000C3B9013806EB4603B0FBF3F30133C3F316
:105030000B0343F40043A3E7451E06EB860C0CEB81
:105040008C0CB5FBFCF50135C5F30B05B5FA85F500
:105050006D09E4E7013806EB860303EB8303B0FB3D
:10506000F3F30133C3F30B0343F4404388E7042312
:1050700086E7012384E7012070470120ACE700BFE9
:10508000A08601007F841E0083DE1B43FF083D00D5
:10509000D34D6210034AD2F8883043F47003C2F84B
:1050A0008830704700ED00E000F1080343604FF0E6
:1050B000FF328260C36003610023036070470023F6
:1050C0000361704743684B609A688A6051609960D9
:1050D0000861036801330360704730B40D68B5F1AF
:1050E000FF3F11D000F108031C465B681A68AA4212
:1050F000FAD963684B6099608C60616008610368ED
:105100000133036030BC70470469F2E7036941680A
:1051100082688A60416851605A68824206D00022E3
:1051200002611A68013A1A601868704782685A600A
:10513000F5E710B5044601F0FDFCA26BE36B9A4263
:1051400004D0002401F018FD204610BD0124F9E729
:1051500010B5044601F0EEFCA36B23B9012401F065
:105160000BFD204610BD0024F9E770B50446154636
:10517000866B026C5AB903681BB100200136A66326
:1051800070BD806801F018F80023A360F6E76DB9E0
:10519000406802F0F1FE226C636813446360A26809
:1051A000934219D3236863602846E7E7C06802F09A
:1051B000E3FE226C5142E3689B1AE360226893424B
:1051C00002D2A3680B44E360022D01D00020D5E792
:1051D00026B1013E0020D1E72846CFE70020CDE7E9
:1051E0000346026C6AB110B50846D9681144D9600B
:1051F0009C68A14201D31968D960D96802F0BCFE4D
:1052000010BD704738B5054601F094FC95F845404F
:1052100064B201E0013C64B2002C0ADD6B6A43B168
:1052200005F1240000F01EFF0028F3D000F0AEFFCF
:10523000F0E7FF2385F8453001F09EFC01F07AFC91
:1052400095F8444064B201E0013C64B2002C0ADDF0
:105250002B6943B105F1100000F004FF0028F3D0E2
:1052600000F094FFF0E7FF2385F8443001F084FC60
:1052700038BD38B5E0B10D46044601F05BFC23684B
:10528000E26B216C01FB0230A0600020A063636030
:10529000013A02FB0133E360FF2384F8443084F8D1
:1052A0004530FDB9236963B901F066FC012038BDC2
:1052B0004FF0500383F31188BFF36F8FBFF34F8F0D
:1052C000FEE704F1100000F0CDFE0028ECD04FF016
:1052D000E0234FF08052C3F8042DBFF34F8FBFF38C
:1052E0006F8FE1E704F11000FFF7DEFE04F1240008
:1052F000FFF7DAFED8E738B51D46049C0B4649B9DE
:105300002460E063236401212046FFF7B2FF84F8A4
:105310004C5038BD2260F4E740B94FF0500383F39E
:105320001188BFF36F8FBFF34F8FFEE710B584B0C6
:105330001C46844653B192B189B94FF0500383F3B0
:105340001188BFF36F8FBFF34F8FFEE74FF050030D
:1053500083F31188BFF36F8FBFF34F8FFEE76AB1FE
:1053600050230393039B502B13D04FF0500383F330
:105370001188BFF36F8FBFF34F8FFEE70029EFD087
:105380004FF0500383F31188BFF36F8FBFF34F8F3C
:10539000FEE7039B012384F8463000949DF8183003
:1053A0006046FFF7A8FF204604B010BDF0B585B0F9
:1053B000019288B10F461D460446B1B1022D20D19D
:1053C000E36B012B1DD04FF0500383F31188BFF323
:1053D0006F8FBFF34F8FFEE74FF0500383F31188B9
:1053E000BFF36F8FBFF34F8FFEE7036C002BE5D049
:1053F0004FF0500383F31188BFF36F8FBFF34F8FCC
:10540000FEE700F0C9FE064658B9019B002B48D0C4
:105410004FF0500383F31188BFF36F8FBFF34F8FAB
:10542000FEE700263DE02A4639462046FFF79DFE6E
:10543000636A7BB948B14FF0E0234FF08052C3F864
:10544000042DBFF34F8FBFF36F8F01F095FB012049
:1054500005B0F0BD04F1240000F004FE0028F4D0F3
:105460004FF0E0234FF08052C3F8042DBFF34F8F6D
:10547000BFF36F8FE9E701F07FFB0020E8E702A8A8
:1054800000F036FE012619E0002384F8443021E0C4
:10549000002384F8453023E02046FFF7B3FE00F0F8
:1054A000BBFC01F047FBA26BE36B9A42BBD3022D1E
:1054B000B9D0019B002BDED0002EE0D001F05CFBC8
:1054C00000F010FC01F036FB94F8442052B2B2F127
:1054D000FF3FD9D094F8452052B2B2F1FF3FD7D068
:1054E00001F04AFB01A902A800F00EFED8B920463F
:1054F000FFF71FFE0028CFD0019904F1100000F043
:105500007DFD2046FFF77EFE00F086FC0028C8D116
:105510004FF0E0234FF08052C3F8042DBFF34F8FBC
:10552000BFF36F8FBDE72046FFF76CFE00F074FC01
:1055300000208DE72DE9F84390B10F4616461C4632
:105540000546B1B1022C20D1EB6B012B1DD04FF0E1
:10555000500383F31188BFF36F8FBFF34F8FFEE7C4
:105560004FF0500383F31188BFF36F8FBFF34F8F5A
:10557000FEE7036C002BE5D04FF0500383F3118856
:10558000BFF36F8FBFF34F8FFEE701F0F9FBEFF32F
:1055900011894FF0500383F31188BFF36F8FBFF36E
:1055A0004F8FAA6BEB6B9A4206D3022C04D00020DB
:1055B00089F31188BDE8F88395F845804FFA88F89B
:1055C000AB6B224639462846FFF7CFFDB8F1FF3FC7
:1055D00006D008F101035BB285F845300120E7E70A
:1055E0006B6A0BB90120E3E705F1240000F03AFDF6
:1055F00018B126B101203060DAE70120D8E7012098
:10560000D6E7F0B585B0019290B10F460446C1B11E
:1056100000F0C2FD064600BB019B002B5ED04FF0A0
:10562000500383F31188BFF36F8FBFF34F8FFEE7F3
:105630004FF0500383F31188BFF36F8FBFF34F8F89
:10564000FEE7036C002BE3D04FF0500383F3118887
:10565000BFF36F8FBFF34F8FFEE700263EE0394662
:105660002046FFF7BDFD013DA563236923B901F085
:1056700083FA012005B0F0BD04F1100000F0F2FC47
:105680000028F4D04FF0E0234FF08052C3F8042DEF
:10569000BFF34F8FBFF36F8FE9E701F06DFA002082
:1056A000E8E702A800F024FD012621E0002384F8A9
:1056B000443029E0002384F845302BE02046FFF7F2
:1056C000A1FD00F0A9FB09E02046FFF79BFD00F0DB
:1056D000A3FB2046FFF73CFD00283FD101F02AFA4A
:1056E000A56B002DBBD1019B002BD6D0002ED8D0AE
:1056F00001F042FA00F0F6FA01F01CFA94F8443096
:105700005BB2B3F1FF3FD1D094F845305BB2B3F157
:10571000FF3FCFD001F030FA01A902A800F0F4FC5D
:105720000028D1D12046FFF713FD0028C6D00199EB
:1057300004F1240000F062FC2046FFF763FD00F056
:105740006BFB0028CAD14FF0E0234FF08052C3F822
:10575000042DBFF34F8FBFF36F8FBFE7002089E7A2
:105760000023072B0CD8074A52F833200AB1013323
:10577000F7E7044A42F8331002EBC303586070475E
:10578000704700BFE416002070B504460D4616466B
:1057900001F0D0F994F844305BB2B3F1FF3F0DD083
:1057A00094F845305BB2B3F1FF3F0BD001F0E4F960
:1057B000A36B5BB12046FFF725FD70BD002384F885
:1057C0004430EDE7002384F84530EFE732462946C0
:1057D00004F1240000F02AFCECE70000084B1B68F1
:1057E0001B6823B9074B4FF0FF321A607047044B18
:1057F0001B68DB68DB685A68024B1A60704700BFA1
:1058000028170020D01B00202DE9F04780460D46C8
:1058100017469946089EDDF824A00A9C9200A5210F
:10582000206B02F0B7FB236B07F18042013A03EBD8
:10583000820727F00707002D65D04FF0000CBCF160
:105840000F0F0BD815F80C2004EB0C0383F8342051
:1058500015F80C3013B10CF1010CF0E7002384F8BB
:105860004330372E00D93726E662E66400252565E9
:10587000201DFFF724FC04F11800FFF720FC246131
:10588000C6F13806A6616462C4F8805484F8845472
:105890004FF48562294604F1580002F07BFB04F5C1
:1058A0005173E36504F56B73236604F21443636676
:1058B00001220023C4E9402343F20E33A4F8083147
:1058C0004AF6CD33A4F80A3141F23423A4F80C315E
:1058D0004EF26D63A4F80E314DF6EC63A4F810316E
:1058E0000523A4F812310B23A4F814314A4641468B
:1058F000384601F0F1F82060BAF1000F01D0CAF883
:105900000040BDE8F087002384F83430A9E70000A8
:1059100038B5002407E004EB840293000E481844D5
:10592000FFF7C2FB0134372CF5D90C4D2846FFF7A1
:10593000BBFB0B4C2046FFF7B7FB0A48FFF7B4FB55
:105940000948FFF7B1FB0948FFF7AEFB084B1D60A4
:10595000084B1C6038BD00BF30170020A41B00207E
:10596000B81B0020DC1B0020081C0020F41B0020BA
:10597000281700202C17002010B5044601F0DAF893
:10598000224A136801331360214B1B685BB1214B22
:105990001B686BB91E4B1B68DA6AE36A9A4207D828
:1059A0001B4B1C6004E01A4B1C601368012B29D0B0
:1059B000194A1368013313606364E06A174B1B686C
:1059C000984201D9154B186000EB8000211D144B43
:1059D00003EB8000FFF776FB01F0CEF80D4B1B6860
:1059E0007BB10B4B1B68DA6AE36A9A4209D24FF02B
:1059F000E0234FF08052C3F8042DBFF34F8FBFF365
:105A00006F8F10BDFFF784FFD2E700BF901B00200F
:105A100024170020F01B00209C1B0020A01B00204E
:105A20003017002010B50446583002F057FB94F8A8
:105A3000853463B1012B11D0022B0ED04FF05003EF
:105A400083F31188BFF36F8FBFF34F8FFEE7206B97
:105A500000F0C6FF204600F0C3FF10BD204600F056
:105A6000BFFFFAE70F4B1B68D3B110B501F062F826
:105A70000D4BDB68DC68201DFFF748FB0B4A136801
:105A8000013B1360074A1368013B136001F074F88F
:105A90002046FFF7C7FF034B1B68002BE6D110BD64
:105AA000704700BF941B0020081C0020901B0020A2
:105AB00008B5FFF7D7FF074B1B68012BF9D94FF04B
:105AC000E0234FF08052C3F8042DBFF34F8FBFF394
:105AD0006F8FEEE73017002070B504460D46174B68
