:020000040800F2
:10000000000001200D1500082D1400082F14000811
:1000100031140008331400083514000800000000F3
:10002000000000000000000000000000C1550008B2
:10003000371400080000000061560008295300082A
:100040005D1500085D1500085D1500085D150008C8
:100050005D1500085D1500085D1500085D150008B8
:100060005D1500085D1500085D1500085D150008A8
:100070005D1500085D1500085D1500085D15000898
:100080005D1500085D1500085D1500080000000002
:100090000000000000000000000000005D150008E6
:1000A0005D1500085D150008391400085D1500088D
:1000B0005D1500085D1500085D1500085D15000858
:1000C0005D1500085D1500085D1500085D15000848
:1000D0005D1500085D1500085D15000800000000B2
:1000E0005D1500085D1500085D15000800000000A2
:1000F0000000000000000000000000005D15000886
:10010000000000005D1500085D1500085D15000881
:1001100000000000000000000000000000000000DF
:100120005D1500085D1500085D1500085D150008E7
:100130005D15000800000000000000000000000045
:10014000000000000000000000000000491400084A
:100150005D1500085D1500085D1500085D150008B7
:100160005D1500085D15000800000000000000009B
:10017000000000000000000000000000000000007F
:10018000000000005D1500080000000000000000F5
:040190005D150008F1
:1001C00053B94AB9002908BF00281CBF4FF0FF31BE
:1001D0004FF0FF3000F00CB8ADF1080C6DE904CE23
:1001E00007F00CFBDDF804E0DDE9022304B0704702
:1001F000704700BF844641EA000313F003036DD14A
:10020000403A41D351F8043B40F8043B51F8043BD9
:1002100040F8043B51F8043B40F8043B51F8043BE0
:1002200040F8043B51F8043B40F8043B51F8043BD0
:1002300040F8043B51F8043B40F8043B51F8043BC0
:1002400040F8043B51F8043B40F8043B51F8043BB0
:1002500040F8043B51F8043B40F8043B51F8043BA0
:1002600040F8043B51F8043B40F8043B51F8043B90
:1002700040F8043B51F8043B40F8043B51F8043B80
:1002800040F8043B403ABDD2303211D351F8043B20
:1002900040F8043B51F8043B40F8043B51F8043B60
:1002A00040F8043B51F8043B40F8043B103AEDD2CF
:1002B0000C3205D351F8043B40F8043B043AF9D220
:1002C000043208D0D2071CBF11F8013B00F8013BF3
:1002D00001D30B8803806046704700BF082A13D300
:1002E0008B078DD010F003038AD0C3F10403D21A18
:1002F000DB071CBF11F8013B00F8013B80D331F84C
:10030000023B20F8023B7BE7043AD9D3013A11F8CB
:10031000013B00F8013BF9D20B7803704B78437036
:100320008B7883706046704700000000000000007A
:1003300000000000000000000000000000000000BD
:1003400030B490F800F020F007016FF0000C10F0CE
:10035000070491F820F040F048804FF000046FF05F
:100360000700D1E9002391F840F000F1080082FA7B
:100370004CF2A4FA8CF283FA4CF3A2FA8CF34BBB46
:10038000D1E9022382FA4CF200F10800A4FA8CF2BF
:1003900083FA4CF3A2FA8CF3E3B9D1E9042382FA8D
:1003A0004CF200F10800A4FA8CF283FA4CF3A2FAA2
:1003B0008CF37BB9D1E9062301F1200182FA4CF2DA
:1003C00000F10800A4FA8CF283FA4CF3A2FA8CF341
:1003D000002BC6D0002A04BF04301A4612BAB2FA63
:1003E00082F200EBD20030BC7047D1E9002304F068
:1003F0000305C4F100004FEAC50514F0040F91F89D
:1004000040F00CFA05F562EA05021CBF63EA050339
:1004100062464FF00004AAE7000000000000000060
:1004200001F0FF01102A2BDB10F0070F08D010F8A5
:10043000013B013A8B422DD010F0070F42B3F6D1A9
:10044000F0B441EA012141EA014122F007047FF0C2
:1004500000070023F0E80256083C85EA010586EA19
:10046000010685FA47F5A3FA87F586FA47F6A5FA55
:1004700087F68EB9EED1F0BC01F0FF0102F0070261
:1004800032B110F8013B013A83EA010313B1F8D10C
:100490000020704701387047002D06BF35460338ED
:1004A000073815F0010F07D1013015F4807F02BF26
:1004B000013015F4C03F0130F0BC0138704700BF77
:1004C00081F0004102E000BF83F0004330B54FEA05
:1004D00041044FEA430594EA050F08BF90EA020F72
:1004E0001FBF54EA000C55EA020C7FEA645C7FEA05
:1004F000655C00F0E2804FEA5454D4EB5555B8BF28
:100500006D420CDD2C4480EA020281EA030382EA98
:10051000000083EA010180EA020281EA0303362D2A
:1005200088BF30BD11F0004F4FEA01314FF4801CFD
:100530004CEA113102D0404261EB410113F0004F0F
:100540004FEA03334CEA133302D0524263EB4303C6
:1005500094EA050F00F0A780A4F10104D5F1200E64
:100560000DDB02FA0EFC22FA05F2801841F10001BF
:1005700003FA0EF2801843FA05F359410EE0A5F193
:1005800020050EF1200E012A03FA0EFC28BF4CF0C4
:10059000020C43FA05F3C01851EBE37101F000457A
:1005A00007D54FF0000EDCF1000C7EEB00006EEB87
:1005B0000101B1F5801F1BD3B1F5001F0CD3490811
:1005C0005FEA30004FEA3C0C04F101044FEA445268
:1005D00012F5800F80F09A80BCF1004F08BF5FEAEF
:1005E000500C50F1000041EB045141EA050130BDCF
:1005F0005FEA4C0C404141EB0101013C28BFB1F5E1
:10060000801FE9D291F0000F04BF01460020B1FA2B
:1006100081F308BF2033A3F10B03B3F120020CDAFE
:100620000C3208DD02F1140CC2F10C0201FA0CF0DC
:1006300021FA02F10CE002F11402D8BFC2F1200C41
:1006400001FA02F120FA0CFCDCBF41EA0C019040F7
:10065000E41AA2BF01EB0451294330BD6FEA040440
:100660001F3C1CDA0C340EDC04F11404C4F120022B
:1006700020FA04F001FA02F340EA030021FA04F33D
:1006800045EA030130BDC4F10C04C4F1200220FA94
:1006900002F001FA04F340EA0300294630BD21FAD2
:1006A00004F0294630BD94F0000F83F4801306BF98
:1006B00081F480110134013D4EE77FEA645C18BF8C
:1006C0007FEA655C29D094EA050F08BF90EA020F23
:1006D00005D054EA000C04BF1946104630BD91EA1B
:1006E000030F1EBF0021002030BD5FEA545C05D11E
:1006F0004000494128BF41F0004130BD14F580045D
:100700003CBF01F5801130BD01F0004545F0FE41D0
:1007100041F470014FF0000030BD7FEA645C1ABF05
:10072000194610467FEA655C1CBF0B46024650EA3C
:10073000013406BF52EA033591EA030F41F4002168
:1007400030BD00BF90F0000F04BF0021704730B5EE
:100750004FF4806404F132044FF000054FF00001C3
:1007600050E700BF90F0000F04BF0021704730B584
:100770004FF4806404F1320410F0004548BF404259
:100780004FF000013EE700BF42004FEAE2014FEAAE
:1007900031014FEA02701FBF12F07F4393F07F4F89
:1007A00081F06051704732F07F4208BF704793F08C
:1007B0007F4F04BF41F40021704730B54FF460749F
:1007C00001F0004521F000411CE700BF50EA0102A2
:1007D00008BF704730B54FF000050AE050EA01024B
:1007E00008BF704730B511F0004502D5404261EBBB
:1007F00041014FF4806404F132045FEA915C3FF4FC
:10080000D8AE4FF003025FEADC0C18BF03325FEA98
:10081000DC0C18BF033202EBDC02C2F1200300FA49
:1008200003FC20FA02F001FA03FE40EA0E0021FA6E
:1008300002F11444BDE600BF70B54FF0FF0C4CF45C
:10084000E06C1CEA11541DBF1CEA135594EA0C0F0E
:1008500095EA0C0F00F0DEF82C4481EA030621EA49
:100860004C5123EA4C5350EA013518BF52EA033584
:1008700041F4801143F4801338D0A0FB02CE4FF036
:100880000005E1FB02E506F00042E0FB03E54FF066
:100890000006E1FB03569CF0000F18BF4EF0010E5E
:1008A000A4F1FF04B6F5007F64F5407404D25FEA5A
:1008B0004E0E6D4146EB060642EAC62141EA55510D
:1008C0004FEAC52040EA5E504FEACE2EB4F1FD0C4F
:1008D00088BFBCF5E06F1ED8BEF1004F08BF5FEACD
:1008E000500E50F1000041EB045170BD06F000467F
:1008F00046EA010140EA020081EA0301B4EB5C042C
:10090000C2BFD4EB0C0541EA045170BD41F4801123
:100910004FF0000E013C00F3AB8014F1360FDEBF48
:10092000002001F0004170BDC4F10004203C35DA24
:100930000C341BDC04F11404C4F1200500FA05F3A7
:1009400020FA04F001FA05F240EA020001F0004248
:1009500021F0004110EBD37021FA04F642EB0601BE
:100960005EEA430E08BF20EAD37070BDC4F10C04E8
:10097000C4F1200500FA04F320FA05F001FA04F2AC
:1009800040EA020001F0004110EBD37041F1000198
:100990005EEA430E08BF20EAD37070BDC4F12005A3
:1009A00000FA05F24EEA020E20FA04F301FA05F20B
:1009B00043EA020321FA04F001F0004121FA04F2B3
:1009C00020EA020000EBD3705EEA430E08BF20EA83
:1009D000D37070BD94F0000F0FD101F000464000BD
:1009E00041EB010111F4801F08BF013CF7D041EA3F
:1009F000060195F0000F18BF704703F00046520043
:100A000043EB030313F4801F08BF013DF7D043EA13
:100A10000603704794EA0C0F0CEA135518BF95EAC9
:100A20000C0F0CD050EA410618BF52EA4306D1D150
:100A300081EA030101F000414FF0000070BD50EA6F
:100A4000410606BF1046194652EA430619D094EAF9
:100A50000C0F02D150EA013613D195EA0C0F05D1E3
:100A600052EA03361CBF104619460AD181EA030137
:100A700001F0004141F0FE4141F470014FF00000EF
:100A800070BD41F0FE4141F4780170BD70B54FF08A
:100A9000FF0C4CF4E06C1CEA11541DBF1CEA13550A
:100AA00094EA0C0F95EA0C0F00F0A7F8A4EB0504EC
:100AB00081EA030E52EA03354FEA013100F08880E3
:100AC0004FEA03334FF0805545EA131343EA1263AC
:100AD0004FEA022245EA111545EA10654FEA002661
:100AE0000EF000419D4208BF964244F1FD0404F51A
:100AF000407402D25B084FEA3202B61A65EB030576
:100B00005B084FEA32024FF480104FF4002CB6EB32
:100B1000020E75EB030E22BFB61A754640EA0C00B2
:100B20005B084FEA3202B6EB020E75EB030E22BFF2
:100B3000B61A754640EA5C005B084FEA3202B6EB33
:100B4000020E75EB030E22BFB61A754640EA9C00F2
:100B50005B084FEA3202B6EB020E75EB030E22BFC2
:100B6000B61A754640EADC0055EA060E18D04FEA80
:100B7000051545EA16754FEA06164FEAC30343EA20
:100B800052734FEAC2025FEA1C1CC0D111F4801FED
:100B90000BD141EA00014FF000004FF0004CB6E7E6
:100BA00011F4801F04BF01430020B4F1FD0C88BF85
:100BB000BCF5E06F3FF6AFAEB5EB030C04BFB6EB90
:100BC000020C5FEA500C50F1000041EB045170BD83
:100BD0000EF0004E4EEA113114EB5C04C2BFD4EBB0
:100BE0000C0541EA045170BD41F480114FF0000E34
:100BF000013C90E645EA060E8DE60CEA135594EAB0
:100C00000C0F08BF95EA0C0F3FF43BAF94EA0C0FB2
:100C10000AD150EA01347FF434AF95EA0C0F7FF427
:100C200025AF104619462CE795EA0C0F06D152EA7B
:100C300003353FF4FDAE1046194622E750EA41065F
:100C400018BF52EA43067FF4C5AE50EA41047FF470
:100C50000DAF52EA43057FF4EBAE12E74FF0FF3CD5
:100C600006E000BF4FF0010C02E000BF4FF0010CA6
:100C70004DF804CD4FEA410C7FEA6C5C4FEA430C1F
:100C800018BF7FEA6C5C1BD001B050EA410C0CBF6E
:100C900052EA430C91EA030F02BF90EA020F0020D0
:100CA000704710F1000F91EA030F58BF994208BF37
:100CB00090422CBFD8176FEAE37040F001007047F4
:100CC0004FEA410C7FEA6C5C02D150EA013C07D14B
:100CD0004FEA430C7FEA6C5CD6D152EA033CD3D096
:100CE0005DF8040B704700BF8446104662468C4690
:100CF0001946634600E000BF01B5FFF7B7FF0028C3
:100D000048BF10F1000F01BD4DF808EDFFF7F4FFEB
:100D10000CBF012000205DF808FB00BF4DF808ED76
:100D2000FFF7EAFF34BF012000205DF808FB00BF99
:100D30004DF808EDFFF7E0FF94BF012000205DF8BB
:100D400008FB00BF4DF808EDFFF7CEFF94BF012070
:100D500000205DF808FB00BF4DF808EDFFF7C4FF69
:100D600034BF012000205DF808FB00BF4FEA410CB2
:100D70007FEA6C5C02D150EA013C0AD14FEA430C95
:100D80007FEA6C5C02D152EA033C02D14FF00000D2
:100D900070474FF0010070474FEA410212F5001210
:100DA00015D211D56FF47873B3EB625212D94FEAB2
:100DB000C12343F0004343EA505311F0004F23FA9C
:100DC00002F018BF404270474FF00000704750EAF1
:100DD000013005D111F0004008BF6FF000407047AE
:100DE0004FF00000704700BF0348044B834202D01D
:100DF000034B03B118477047CC070020CC070020F5
:100E0000000000000548064B1B1AD90F01EBA30197
:100E1000491002D0034B03B118477047CC0700209C
:100E2000CC0700200000000010B5064C237843B921
:100E3000FFF7DAFF044B13B10448AFF3008001233E
:100E4000237010BDD00700200000000010DF000854
:100E500008B5054B1BB105490548AFF30080BDE857
:100E60000840FFF7CFBF00BF00000000D4070020FC
:100E700010DF00084FF06043D3F8803E13F0010FFD
:100E800011D04FF06043D3F8003E13F0010F01D1B1
:100E9000704700BF4FF060431B68002BF9D0C3B20E
:100EA0004FF0604213707047FEE7000030B58BB022
:100EB0000024059406940794089409940194214B06
:100EC0001A6B42F004021A631A6B02F004020192D8
:100ED000019A02941A6B42F080021A631A6B02F0B4
:100EE00080020292029A03941A6B42F001021A6382
:100EF0001A6B02F001020392039A04941A6B42F0F7
:100F000002021A631B6B03F002030493049B0E4D51
:100F100022460621284600F0D9FE4FF400530593DF
:100F20000694079405A9094800F064FD062305937B
:100F3000012306930794089405A9284600F05AFD5A
:100F40000BB030BD003802400000024000080240F3
:100F500038B5304806F002FF2F49304803F0ADFBAA
:100F60001CE02F4C4FF0FF31206805F0D2F82D48DF
:100F700006F0F4FE284BDA7B2189606800F0A6FEBB
:100F800000231A461946206804F0E9FE0023264A89
:100F90001370214A136053609360D360224B1B7817
:100FA000012BFBD11C4C2178204806F077FE2378DA
:100FB000082BD6D0092B17D0012BE7D11C4D2C467E
:100FC0004FF0FF3154F8040B05F0A3F8194806F070
:100FD000C5FE0421204606F0E5F900231A4619460D
:100FE000286804F0BCFED1E7134C4FF0FF312068B5
:100FF00005F08FF8114806F0B1FE074BDA7B218926
:10100000606800F063FE00231A461946206804F069
:10101000A6FEBBE728DF0008EC0700209054002064
:101020000C0000205CDF00086C57002040DF000847
:10103000FC07002084DF00080000002070DF0008AB
:1010400070B50C461646002504E014F8010BFFF7B6
:1010500011FF0135B542F8DB304670BD08B50268B6
:10106000034B9A4200D008BD00F094FAFBE700BFA2
:101070000048014072B6FEE708B50A480A4B036013
:101080000A4B436000238360C3604FF480420261D7
:1010900043618361C361036200F028FE00B908BDAB
:1010A000FFF7E8FF4C08002000540040A086010034
:1010B00000B585B000230093019302930393134876
:1010C000134A0260436083600361037680F8203036
:1010D000C362104A8262C3600122C26180F830306C
:1010E000426100F017FB60B90023009301220192D6
:1010F00002936946054800F039FB20B905B05DF858
:1011000004FBFFF7B7FFFFF7B5FF00BF040800209F
:10111000002001400100000F00B595B030220021F1
:1011200008A806F06BFE002303930493059306932F
:1011300007930193214A116C41F080511164126CA4
:1011400002F080520192019A02931D4A136823F41F
:10115000404343F400431360136803F44043029395
:10116000029B012308934FF48033099302230E93CB
:101170004FF480030F93192310934FF4C07311930E
:10118000062312930823139308A801F033FD80B9B6
:101190000F23039302210491002305934FF48052FF
:1011A0000692079303A801F075FF20B915B05DF80A
:1011B00004FBFFF75FFFFFF75DFF00BF0038024051
:1011C0000070004038B500F0CBF9FFF7A5FFFFF73E
:1011D0006DFEFFF751FFFFF76BFF06F08DF800F093
:1011E000E5F9054600F0E2F9401BB0F57A6F19D237
:1011F00002211B4800F070FD642000F0DDF9194861
:1012000006F04CFD184C204603F0B1FB94F89C32DC
:10121000DBB2032BE6D100220221114800F056FD7B
:10122000002408E0104803F0A2FA012202210C4831
:1012300000F04CFD012404F083F854B10B4A002166
:101240000B4804F0ABF804F07BF804F08BF80020B6
:1012500038BD084A0021084804F0A0F8EEE700BFB6
:1012600000000240A4DF000890540020DCDF0008EA
:10127000A90E000800E00008510F000800B583B077
:10128000002200920D4B596C41F480415964596C15
:1012900001F48041009100990192196C41F0805154
:1012A00019641B6C03F080530193019B0F216FF0B5
:1012B000010000F07DFB03B05DF804FB0038024044
:1012C00000B589B000230393049305930693079315
:1012D000026803F1804303F590339A4202D009B0CB
:1012E0005DF804FB0021019103F58C335A6C42F444
:1012F00080725A645A6C02F480720192019A0291CF
:101300001A6B42F001021A631B6B03F00103029394
:10131000029B012303930323049303A9014800F0D4
:1013200069FBDCE70000024030B589B0002303937D
:1013300004930593069307930268144B9A4201D0D5
:1013400009B030BD00250195114C236B43F0020319
:101350002363236B03F002030193019BC0230393D8
:1013600012230493032306930423079303A9094834
:1013700000F040FB0295236C43F400132364236CBC
:1013800003F400130293029BDAE700BF005400400D
:10139000003802400004024030B589B00546002400
:1013A00001941D4B5A6C42F480225A645B6C03F426
:1013B00080230193019B02A903A801F041FF01F0E2
:1013C0002FFF164AA2FB00239B0C013B1448154A31
:1013D000026040F2E732C26043600461846084616D
:1013E00002F09AF8044610B1204609B030BD0C480E
:1013F00001F046FF04460028F6D11A2000F0E8FA72
:101400000F2D01D90124EFE7002229461A2000F010
:10141000CFFA054B1D60E7E70038024083DE1B432F
:10142000A00800200048014020000020FEE7FEE761
:10143000FEE7FEE7FEE7704708B5024801F060FFEF
:1014400008BD00BFA008002008B5024801F0C4F89C
:1014500008BD00BF906300200120704708B506F06A
:10146000A1FD162303604FF0FF3008BD08B54FF013
:10147000FF31FFF7F3FFFEE770B50C461646002577
:1014800006E0AFF30080214601F8010B01350C4660
:10149000B542F6DB304670BD4FF0FF3070474FF479
:1014A00000534B60002070470120704700207047B8
:1014B00010B503460C4A0D490D48006840B10C4870
:1014C00000680344521A934206D8094A136010BDBB
:1014D0000748084C0460F2E706F064FD0C23036043
:1014E0004FF0FF30F3E700BF0000012000040000D0
:1014F000E8080020B06B0020034AD2F8883043F49B
:101500007003C2F88830704700ED00E0DFF834D097
:101510000D480E490E4A002302E0D458C45004334B
:10152000C4188C42F9D30B4A0B4C002301E0136022
:101530000432A242FBD3FFF7DFFF06F039FDFFF7CD
:1015400041FE70470000012000000020CC07002071
:10155000A0E40008D0070020B06B0020FEE70000E8
:1015600008B50B4B1A6842F400721A601A6842F40C
:1015700080621A601A6842F480721A60032000F0D8
:1015800005FA0F20FFF708FFFFF778FE002008BDDF
:10159000003C0240034A1168034B1B780B44136064
:1015A000704700BFEC0800201C000020014B1868A9
:1015B000704700BFEC08002038B50446FFF7F6FF7F
:1015C0000546B4F1FF3F02D0044B1B781C44FFF7E3
:1015D000EDFF401BA042FAD338BD00BF1C00002025
:1015E0004A4B5A6822F440325A605A6841680A43AA
:1015F0005A600268536823F480735360026853682A
:10160000016943EA012353600268536823F0407381
:1016100053600268536881680B43536002689368A3
:1016200023F40063936002689368C1680B4393607E
:10163000826A374B9A4257D00268936823F07063EE
:10164000936002689368816A0B43936002689368B1
:1016500023F04053936002689368C16A0B43936020
:101660000268936823F00203936002689368017E26
:1016700043EA4103936090F82030002B3FD002688A
:10168000536843F4006353600268536823F4604373
:10169000536001684B68426A013A43EA42334B6047
:1016A0000268D36A23F47003D3620168CB6AC2690B
:1016B000013A43EA0253CB620268936823F4007351
:1016C00093600268936890F8301043EA4123936076
:1016D0000268936823F480639360026893684169A9
:1016E00043EA8123936070470268936823F0706334
:1016F00093600268936823F040539360B0E70268F8
:10170000536823F400635360CAE700BF002301401D
:101710000100000F38B310B50446036C43B1236CCD
:1017200013F0100F0BD00120002384F83C3010BDC3
:10173000FFF7C6FD0023636484F83C30EFE7236CB9
:1017400023F4885323F0020343F00203236420466A
:10175000FFF746FF00206064236C23F0030343F08F
:1017600001032364E0E701207047000030B482B039
:101770000022019290F83C20012A00F0B680034636
:10178000012280F83C200A68092A40D90468E068F0
:1017900092B202EB42021E3A4FF0070C0CFA02F230
:1017A00020EA0202E2601C68E0680A8802EB42025A
:1017B0001E3A8D6805FA02F20243E2604A68062A80
:1017C0003CD81C68606B02EB8202053A4FF01F0C9C
:1017D0000CFA02F220EA020262631C68606B4A683B
:1017E00002EB8202053AB1F800C00CFA02F20243A1
:1017F000626318683E4A904250D018683C4A904252
:1018000055D0002083F83C0002B030BC704704681B
:10181000206992B202EB42024FF0070C0CFA02F27E
:1018200020EA020222611C6820690A8802EB420257
:101830008D6805FA02F202432261BFE70C2A16D82E
:101840001D68286B02EB8202233A1F2404FA02F27D
:1018500020EA02022A631D68286B4A6802EB8202B2
:10186000233A0C8804FA02F202432A63C1E71D6896
:10187000E86A02EB8202413A1F2404FA02F220EAEB
:101880000202EA621D68E86A4A6802EB8202413A93
:101890000C8804FA02F20243EA62AAE70A68122AF2
:1018A000ABD11448426842F480024260A5E70A685E
:1018B000103A012AA5D80F48426842F4000242605B
:1018C0000A68102A9DD10C4A12680C49A1FB021229
:1018D000920C02EB82025200019202E0019A013A5C
:1018E0000192019A002AF9D18BE702208CE700BF10
:1018F00000200140002301401800002083DE1B432C
:1019000000280CDB00F01F02400901239340203027
:10191000034A42F82030BFF34F8FBFF36F8F7047F9
:1019200000E100E0002808DB0901C9B200F16040D5
:1019300000F5614080F80013704700F00F000901C6
:10194000C9B2014B1954704714ED00E000B500F026
:101950000700C0F1070CBCF1040F28BF4FF0040CC6
:10196000031D062B0FD9C31E4FF0FF3E0EFA0CF0DD
:1019700021EA000199400EFA03FE22EA0E0241EA32
:1019800002005DF804FB0023EEE70000074AD3687D
:1019900023F4E0631B041B0C000200F4E06003432B
:1019A00043F0BF6343F40033D360704700ED00E0C1
:1019B00010B50446054BD868C0F30220FFF7C6FFF8
:1019C00001462046FFF7AEFF10BD00BF00ED00E06E
:1019D000002807DB00F01F02400901239340024A60
:1019E00042F82030704700BF00E100E008B5FFF783
:1019F00087FF08BD00230F2B00F2D78070B582B09F
:101A000065E085684FEA430E032404FA0EF425EAE4
:101A10000405CC6804FA0EF42C438460446824EA7C
:101A200002044A68C2F300129A40224342605CE01A
:101A3000DC08083450F8242003F00705AD004FF00F
:101A40000F0E0EFA05FE22EA0E0E0A69AA4042EABD
:101A50000E0240F824205CE0042200E0002202FA9A
:101A60000EF22A430234514D45F82420504A94681E
:101A70006FEA0C0224EA0C054E6816F4801F01D0B0
:101A80004CEA04054A4CA560E46802EA04054E6885
:101A900016F4001F01D04CEA0405454CE56064686B
:101AA00002EA04054E6816F4003F01D04CEA040532
:101AB0003F4C6560246822404D6815F4803F01D09A
:101AC0004CEA04023A4C226001330F2B6BD80122FE
:101AD0009A400C6804EA020C32EA0404F4D14C681F
:101AE00004F00304013C012C8BD94A6802F0030284
:101AF000032A09D0C4685D000322AA4024EA020434
:101B00008A68AA402243C2604A6802F00302022A9D
:101B10008ED004684FEA430E032202FA0EF224EA42
:101B200002044A6802F0030202FA0EF22243026043
:101B30004A6812F4403FC7D0002201921D4A546CFB
:101B400044F480445464526C02F480420192019A3D
:101B50009C08A51C154A52F8255003F0030E4FEAC5
:101B60008E0E0F2202FA0EF225EA0205124A904268
:101B70003FF474AF02F5806290420ED002F58062AD
:101B800090420CD002F5806290420AD002F5806249
:101B900090423FF461AF072261E701225FE7022232
:101BA0005DE703225BE702B070BD7047003801407B
:101BB000003C0140003802400000024000230F2B8F
:101BC0007CD8F0B52DE0042500E0002505FA0CF5E1
:101BD000A54257D004685D004FF0030C0CFA05FCD9
:101BE00024EA0C0404604FEAD30E0EF1080E50F8FC
:101BF0002E4003F00706B6000F25B54024EA050481
:101C000040F82E40C46824EA0C04C460446824EA06
:101C100002024260826822EA0C02826001330F2BCA
:101C20004BD801229A4002EA010632EA0104F5D1BA
:101C30004FEA930E0EF10205214C54F8254003F0B3
:101C4000030C4FEA8C0C0F2505FA0CF73C401D4D98
:101C5000A842BAD005F58065A8420DD005F580658B
:101C6000A8420BD005F58065A84209D005F580652E
:101C7000A842A8D00725A9E70125A7E70225A5E7DF
:101C80000325A3E7104C256825EA0605256065684D
:101C900025EA06056560E56825EA0605E560A568AC
:101CA00025EA0605A560064E0EF1020456F82450FA
:101CB00025EA070546F824508CE7F0BD704700BFC1
:101CC0000038014000000240003C01400AB181613F
:101CD0007047090481617047436901EA030221EA00
:101CE000030141EA0241816170470000002800F0D1
:101CF000CC8070B5044690F83D30002B77D024237B
:101D000084F83D302268136823F0010313602268D1
:101D1000136843F4004313602268136823F40043FC
:101D2000136001F06DFA62685A4B9A4264D85A4BBC
:101D300098428CBF00230123002B40F0A880574914
:101D4000A1FB00318B0C25686A6822F03F0242EA51
:101D500091426A6021680A6A22F03F0266684D4D2E
:101D6000AE424FD8013313430B622168CA6922F493
:101D70004F4222F0FF026568464B9D424CD8431EFD
:101D80006D00B3FBF5F3013340F6FC70034278D0ED
:101D9000C3F30B031A43CA6121680B6823F0C00325
:101DA000E269206A024313430B6021688B6823F4C5
:101DB000034323F0FF032269E068024313438B606F
:101DC0002168CB6823F0FF036269A06902431343D3
:101DD000CB602268136843F0010313600020206485
:101DE000202384F83D30206384F83E0070BD80F8E5
:101DF0003C30FFF799FA82E7294B98428CBF0023C9
:101E0000012399E74FF4967505FB03F3254DA5FBD8
:101E100003539B090133A6E7A668BEB9431E05EB31
:101E2000450CB3FBFCF30133C3F30B03B3FA83F3A9
:101E30005B0943BBC6B9431E05EB4505B3FBF5F390
:101E40000133C3F30B0343F40043A3E7431E05EB45
:101E5000850C0CEB8C0CB3FBFCF30133C3F30B03CD
:101E6000B3FA83F35B09E4E7431E05EB850505EB55
:101E70008505B3FBF5F30133C3F30B0343F4404390
:101E800088E7042386E7012384E7012070470120C7
:101E9000ACE700BFA08601007F841E0083DE1B43E9
:101EA000FF083D00D34D62102DE9F04383B0D0F818
:101EB000008001EBC10300EB8303DA6D5B6D9A4296
:101EC00054D807460C469B1A01EBC10200EB820274
:101ED000926C9A4200D31A4602F103094FEA99091B
:101EE00015E006F103094FEA990904EBC40507EB75
:101EF0008505E96C3B7C0093B3B2E2B2404601F049
:101F000002FFEB6C3344EB64EB6D3344EB6508EBA1
:101F1000441303F510639B699BB24B4512D304EB4A
:101F2000C40307EB8303DA6D5B6D9A420AD24BB1AF
:101F30009B1A04EBC40207EB8202966C9E42D0D33C
:101F40001E46CEE704EBC40307EB83077A6DFB6DF7
:101F50009A420FD804F00F040122A240D8F8343876
:101F600023EA0203C8F83438002000E0012003B05F
:101F7000BDE8F0830020FAE770B58AB0002800F0D1
:101F800090800546046890F8BD343BB3032385F880
:101F9000BD34E36B13F4807F01D100232B612868EB
:101FA00001F0CEFB2C4654F8106BEC460FCCACE89D
:101FB0000F000FCCACE80F0094E803008CE803009E
:101FC0002B1D0ECB304601F0FDFA044658B102231A
:101FD00085F8BD34012420460AB070BD80F8BC34B9
:101FE00005F090FAD2E70021286802F0BAF82346FB
:101FF00016E003EBC30205EB8202012182F83D10DB
:1020000082F83C30A2F84430002182F840109164FC
:10201000D16403EBC30205EB820251650133DBB2ED
:1020200069688B42E5D316E004EBC40305EB830338
:10203000002283F87D2283F87C4283F88022C3F853
:102040008822C3F88C2204EBC40305EB8303C3F896
:1020500094220134E4B2A142E6D82C4654F8106B25
:10206000EC460FCCACE80F000FCCACE80F0094E8C6
:1020700003008CE803002B1D0ECB304601F0BCFBA7
:10208000044620B1022385F8BD340124A3E70023D0
:1020900085F83830012385F8BD34286802F020F82F
:1020A00099E7012497E738B590B10446032380F8F7
:1020B000BD34006801F0D6FF054610B10125284661
:1020C00038BD204605F060FA002384F8BD34F6E7F9
:1020D0000125F4E7026890F8BC34012B19D010B543
:1020E0000446012380F8BC34836A012B09D02068A0
:1020F00001F020FB206801F0E5FF002084F8BC041B
:1021000010BD8369012BF2D0936B43F4803393634A
:10211000EDE70220704738B5056890F8BC34012B14
:102120001CD00446012380F8BC34284601F008FB8B
:10213000206801F0D5FF1021206801F007FBA36A99
:10214000012B03D0002084F8BC0438BDA369012B07
:10215000F8D0AB6B23F48033AB63F3E70220F4E7F2
:1021600070B504460D460068066C00EB411303F59C
:1021700030639A682169012911D038498E4256D0BE
:102180003DB905EBC50304EB8303D3F89432002B70
:102190005ED0E9B2204605F017FA002070BD12F0BB
:1021A000080F09D02E498E42F7D912F4004FF4D00F
:1021B0004FF400429A60F0E712F0200F02D0202284
:1021C0009A60EAE712F0280FE7D125498E4206D936
:1021D00012F4004F03D04FF400429A60DDE705EBA4
:1021E000C50204EB8202D2F898121B69C3F31203F2
:1021F000CB1AC2F89C327DB905EBC50204EB820212
:10220000D2F894226AB105EBC50204EB8202D2F83F
:102210008C121944C2F88C12E9B2204605F0D4F9A8
:10222000BBE704F2C442012101F0DCFFF4E712F441
:10223000004F03D04FF400429A60AEE712F0200F37
:1022400001D020229A60E9B2204605F0BDF9A4E74A
:1022500004F2C442002101F0C5FF9AE70A31544F4D
:102260000A30544F38B5044603681D6C03EB411324
:10227000D3F8081B0E4A954207D903F5306311F4D1
:10228000004F02D04FF400429A60204605F094F9C6
:10229000074B9D4202D92369012B01D0002038BD94
:1022A00004F2C4420121206801F09CFFF6E700BF60
:1022B0000A30544F90F8BC34012B0DD010B50446B1
:1022C000012380F8BC3480F83810006801F0EAFE81
:1022D000002084F8BC0410BD0220704738B50546C4
:1022E0008C4611F0800F29D101F00F0E0EEBCE04B9
:1022F000A40004F51E740444211D0EEBCE0E00EB69
:102300008E0E00208EF87D020CF00F0C81F800C0BC
:10231000CA600B714A780AB1A1F808C0022B1DD01F
:1023200095F8BC34012B1CD0012385F8BC342868F7
:1023300001F03BFB002085F8BC0438BD01F00F0024
:1023400000EBC001890038312944043100EBC000A2
:1023500005EB8000012480F83D40D5E700234B7158
:10236000DEE70220E9E710B504460A4611F0800FC7
:1023700020D101F00F0000EBC0039B0003F51E739A
:102380002344191D00EBC00004EB8000002380F8FB
:102390007D3202F00F020A7094F8BC34012B19D080
:1023A000012384F8BC34206801F04CFB002084F841
:1023B000BC0410BD01F00F0000EBC0039B003833DC
:1023C0002344191D00EBC00004EB8000012380F8BA
:1023D0003D30DEE70220ECE710B501F00F0404EB1E
:1023E000C401890001F51E710144043104EBC40CE1
:1023F00000EB8C0CCCF88C22CCF894320023CCF877
:102400009C328CF87D328CF87C420369012B06D01B
:1024100064B9DAB2006801F085FB002010BD04EB5E
:10242000C40C00EB8C0CCCF89022F1E7DAB2006817
:1024300001F080FCF1E701F00F0101EBC10100EBBD
:102440008100D0F89C02704710B501F00F0404EB36
:10245000C401890038310144043104EBC40C00EBA1
:102460008C0CCCF84C20CCF854300023CCF85C30E9
:1024700001238CF83D308CF83C400369012B06D0D9
:1024800064B9DAB2006801F04DFB002010BD04EB26
:10249000C40C00EB8C0CCCF85020F1E7DAB20068E9
:1024A00001F048FCF1E738B501F00F0542689542AC
:1024B00039D804460B4611F0800F1FD101EBC10142
:1024C000890001F51E710144043103EBC30300EBE5
:1024D0008303002283F87D2201238B700D7094F812
:1024E000BC34012B21D0012384F8BC34206801F0D6
:1024F0005EFD8DB1002084F8BC0438BD05EBC5013C
:10250000890038310144043105EBC50300EB830336
:10251000012283F83D20DFE704F2C442217C2068D9
:1025200001F060FEE6E70120E7E70220E5E701F0C1
:102530000F034268934231D810B5044611F0800F62
:102540001ED103EBC301890001F51E710144043162
:1025500003EBC30200EB8202002082F87D0200221E
:102560008A700B7094F8BC34012B19D0012384F8C5
:10257000BC34206801F048FD002084F8BC0410BD84
:1025800003EBC301890038310144043103EBC3027A
:1025900000EB8202012082F83D00E0E70120704755
:1025A0000220ECE708B511F0800F0CD101F00F010B
:1025B00001EBC101890001F51E710144043100687D
:1025C00001F042FB08BD01F00F0101EBC1018900E0
:1025D000383101440431F2E72DE9F04F83B004466D
:1025E0000568284601F0B9FD10B103B0BDE8F08FD1
:1025F0000646206801F082FD0028F6D005F5006748
:10260000BB68C3F30D23C4F8FC34206801F076FDE9
:1026100010F0020F04D02268536903F002035361E3
:10262000206801F06BFD10F0100F13D02268936941
:1026300023F010039361D5F8208008F00F09C8F348
:102640004343022B4BD0062B6FD02268936943F093
:1026500010039361206801F051FD10F4002F76D132
:10266000206801F04BFD10F4802F40F0E0802068DE
:1026700001F044FD0028C0F26381206801F03EFDB6
:1026800010F4006F09D0BB6813F0010F40F07081A7
:102690002268536903F400635361206801F02EFD42
:1026A00010F4805F40F06881206801F027FD10F48D
:1026B000005F40F0B581206801F020FD10F0080FA8
:1026C00040F0C681206801F019FD10F0800F00F085
:1026D000D981AB6923F08003AB610126C2E147F6E3
:1026E000F07318EA030FB0D04FEA181A4FEAC90383
:1026F000019309EBC90B04EB8B0BC8F30A12DBF84F
:102700008C12284601F030FCDBF88C32CAF30A0A3E
:102710005344CBF88C32DBF89C32019A4A4404EBE8
:1027200082025344C2F89C328FE7082204F2C4416B
:10273000284601F019FC09EBC90304EB8303D3F825
:102740009C22C8F30A184244C3F89C227DE7206803
:1027500001F0D8FC8046B14635E005EB4913012273
:10276000C3F8082B49462046FFF7FAFC3CE005EB8E
:1027700049130822C3F8082B49462046FFF772FD8B
:1027800035E009EBC90304EB830393F87F32012B97
:1027900041D005EB49130222C3F8082B1AF0200F91
:1027A00004D005EB49132022C3F8082B1AF4005F6C
:1027B00005D005EB49134FF40052C3F8082B09F17B
:1027C00001094FEA5808B8F1000F3FF449AF18F07B
:1027D000010FF4D05FFA89FB5946206801F0A2FC92
:1027E000824610F0010FB8D11AF0080FBFD11AF0CD
:1027F000100F04D005EB49131022C3F8082B1AF070
:10280000020FCBD06B6913F0800FBAD07B6843F412
:1028100080637B60B5E709EBC90304EB8303002207
:1028200083F87F225946204604F01CFFB1E7206858
:1028300001F070FC8046B14625E05946204604F080
:10284000CFFE1AF0080F04D005EB49130822C3F895
:1028500008291AF0100F04D005EB49131022C3F811
:1028600008291AF0400F04D005EB49134022C3F8A1
:1028700008291AF0020F40D11AF0800F5BD109F13C
:1028800001094FEA5808B8F1000F3FF4F0AE18F014
:10289000010FF4D05FFA89FB5946206801F04BFC28
:1028A000824610F0010FCCD009F00F02012101FA8D
:1028B00002F27B6B23EA02037B6305EB4913C3F847
:1028C000081923698B42B8D109EBC90304EB8303D0
:1028D000DA6C996C0A44DA64B9F1000FADD109EBF6
:1028E000C90304EB83035B6D002BA6D104F2C44241
:1028F0000121206801F076FC9FE74946284600F058
:1029000025FF09EBC90304EB830393F83F30012B48
:1029100005D005EB49130222C3F80829ACE709EBFF
:10292000C90304EB8303002283F83F205946204665
:1029300004F09EFEEDE749462046FFF7B5FA9EE714
:102940007B6823F001037B6094F8F434012B08D0FA
:10295000204604F081FE2268536903F0004353616E
:102960008BE6002184F8F414204600F041F9F2E7E8
:10297000204604F059FE8BE67B6823F001037B6060
:102980001021206800F0E2FE1AE005EB46134FF636
:102990007F31C3F80819D3F8002922F40012C3F8D4
:1029A0000029C3F8081BD3F8002B22F40012C3F847
:1029B000002BD3F8002B42F00062C3F8002B013645
:1029C0006368B342E1D8FB6943F00113FB61236BF9
:1029D000DBB1D7F8843043F00B03C7F884307B6C4D
:1029E00043F00B037B64D5F8003823F4FE63C5F88D
:1029F000003804F2C442217C206801F0F3FB226815
:102A0000536903F4805353614EE67B6943F40053EA
:102A100043F02B037B613B6943F00B033B61E2E72F
:102A2000206801F0CFFB206800F0AEFFE060266870
:102A300000F0E0FB0146227B304600F009FE204614
:102A400004F0DFFD2268536903F40053536132E65A
:102A5000204604F0D0FD2268536903F00803536157
:102A600030E601366368B3420CD906EBC60304EBCB
:102A7000830393F87F32012BF3D1F1B22046FFF7A5
:102A800091FDEEE7206801F039FB10F4801F27D19B
:102A9000206801F033FB10F4001F5BD0012328E015
:102AA00001366368B3421DD905EB4613D3F80029FC
:102AB00006EBC60304EB830393F84030012BEFD100
:102AC000002AEDDA06EBC60304EB8303012283F848
:102AD0003F2066F07F01C9B22046FFF763FDDFE7C4
:102AE0000126DEE72268536903F480135361CFE7C0
:102AF000013362689A4228D905EB4312D2F8001BD1
:102B000003EBC30204EB820292F88022012AEFD188
:102B10000029EDDA01F48031D4F8FC2402F001023E
:102B20009142E5D103EBC30204EB8202012182F85A
:102B30007F12AA6942F08002AA616A6912F0800FCE
:102B4000D6D17B6843F400737B602268536903F439
:102B500000135361206801F0D1FA10F0804F10D1BA
:102B6000206801F0CBFA10F0040F3FF43EAD23686B
:102B70005D6815F0040F0DD1226853682B43536034
:102B800033E5204604F07AFD2268536903F0804360
:102B90005361E5E7204604F077FDEDE710B40468E3
:102BA000606A31B940EA0240A06200205DF8044B3F
:102BB00070478C46A36A00EB1340002308E003F142
:102BC000400104EB8101496800EB11400133DBB2A5
:102BD0000CF1FF318B42F2D340EA02400CF13F018D
:102BE00004EB81046060E0E70368596200207047ED
:102BF00070470000002800F0E08170B582B0044604
:102C0000036813F0010F3BD09F4B9B6803F00C034C
:102C1000042B2CD09C4B9B6803F00C03082B21D079
:102C20006368B3F5803F4FD0B3F5A02F52D0964BD9
:102C30001A6822F480321A601A6822F480221A601C
:102C40006368002B50D0FEF7B1FC05468E4B1B6825
:102C500013F4003F14D1FEF7A9FC401B6428F5D9FA
:102C60000320B1E1884B5B6813F4800FD8D0864B0A
:102C70001B6813F4003F03D06368002B00F09F81B2
:102C8000236813F0020F54D07F4B9B6813F00C0F96
:102C90003ED07D4B9B6803F00C03082B33D0E368D8
:102CA000002B68D0794B01221A60FEF77FFC0546A5
:102CB000754B1B6813F0020F54D1FEF777FC401BD5
:102CC0000228F5D903207FE16F4A136843F480336B
:102CD0001360B5E76C4B1A6842F480221A601A68D8
:102CE00042F480321A60ABE7FEF760FC0546664BA3
:102CF0001B6813F4003FC3D0FEF758FC401B642848
:102D0000F5D9032060E1604B5B6813F4800FC6D1F6
:102D10005D4B1B6813F0020F03D0E368012B40F0FA
:102D20005081594A136823F0F803216943EAC1032B
:102D30001360236813F0080F42D063696BB3534BE1
:102D40000122C3F8802EFEF731FC05464E4B5B6F27
:102D500013F0020F34D1FEF729FC401B0228F5D9ED
:102D6000032031E1484A136823F0F803216943EA5C
:102D7000C1031360DDE7454B00221A60FEF716FC25
:102D80000546414B1B6813F0020FD2D0FEF70EFC34
:102D9000401B0228F5D9032016E13C4B0022C3F862
:102DA000802EFEF703FC0546374B5B6F13F0020FD6
:102DB00006D0FEF7FBFB401B0228F5D9032003E1F8
:102DC000236813F0040F77D02F4B1B6C13F0805F38
:102DD00033D1002301932C4B1A6C42F080521A64B9
:102DE0001B6C03F080530193019B0125284B1B684A
:102DF00013F4807F23D0A368012B34D0052B38D067
:102E0000214B1A6F22F001021A671A6F22F0040296
:102E10001A67A368002B3DD0FEF7C8FB06461A4B85
:102E20001B6F13F0020F46D1FEF7C0FB801B41F26F
:102E300088339842F3D90320C6E00025D6E7144A28
:102E4000136843F480731360FEF7B0FB0646104B23
:102E50001B6813F4807FCED1FEF7A8FB801B0228ED
:102E6000F5D90320B0E0084A136F43F0010313675C
:102E7000CFE7054B1A6F42F004021A671A6F42F04F
:102E800001021A67C5E700BF003802400000474250
:102E900000700040FEF78AFB0646524B1B6F13F092
:102EA000020F08D0FEF782FB801B41F28833984264
:102EB000F3D9032088E0EDB9A369002B00F08380EB
:102EC000484A926802F00C02082A51D0022B17D00F
:102ED000454B00221A66FEF769FB0446414B1B680E
:102EE00013F0007F42D0FEF761FB001B0228F5D9EA
:102EF000032069E03B4A136C23F080531364DBE743
:102F0000394B00221A66FEF751FB0546354B1B680C
:102F100013F0007F06D0FEF749FB401B0228F5D9CD
:102F2000032051E0E369226A1343626A43EA821391
:102F3000A26A5208013A43EA0243E26A43EA0263A0
:102F4000284A5360284B01221A66FEF72FFB0446DD
:102F5000244B1B6813F0007F06D1FEF727FB001BF4
:102F60000228F5D903202FE000202DE000202BE0DF
:102F7000012B2BD01B4B5B6803F48001E26991426B
:102F800026D103F03F02216A8A4223D1616A47F6C3
:102F9000C0721A40B2EB811F1ED103F44031A26A05
:102FA0005208013AB1EB024F18D103F07063E26AA4
:102FB000B3EB026F14D1002006E00120704701201E
:102FC00002E0012000E0002002B070BD0120FBE71C
:102FD0000120F9E70120F7E70120F5E70120F3E7F9
:102FE0000120F1E7003802400000474208B5264BB7
:102FF0009B6803F00C03042B41D0082B41D1224BDA
:103000005A6802F03F025B6813F4800F12D01E4B27
:103010005968C1F388111D480023A1FB0001FDF789
:10302000CFF8194B5B68C3F3014301335B00B0FB7E
:10303000F3F027E0144B5868C0F388104FEA401CA7
:10304000BCEB000C6EEB0E0E4FEA8E1343EA9C6352
:103050004FEA8C11B1EB0C0163EB0E03DB0043EA8A
:103060005173C90011EB000C43F1000399020023D6
:103070004FEA8C2041EA9C51FDF7A2F8D1E70348C2
:1030800000E0034808BD00BF0038024040787D01E1
:103090000024F400002800F09B8070B50D46044623
:1030A0004F4B1B6803F007038B4208D2CBB24C4A4C
:1030B0001370136803F007038B4240F08B80236882
:1030C00013F0020F17D013F0040F04D0454A936891
:1030D00043F4E0539360236813F0080F04D0414A8F
:1030E000936843F4604393603E4A936823F0F0038F
:1030F000A1680B439360236813F0010F32D063681B
:10310000012B21D09A1E012A25D9364A126812F0C5
:10311000020F61D033498A6822F0030213438B60A7
:10312000FEF744FA06462F4B9B6803F00C036268D7
:10313000B3EB820F16D0FEF739FA801B41F28833C9
:103140009842F0D9032042E0264A126812F4003F68
:10315000E0D101203BE0234A126812F0007FD9D170
:10316000012034E01E4B1B6803F00703AB4207D974
:10317000EAB21B4B1A701B6803F00703AB422DD158
:10318000236813F0040F06D0164A936823F4E05323
:10319000E1680B439360236813F0080F07D0114ACE
:1031A000936823F46043216943EAC1039360FFF706
:1031B0001DFF0C4B9B68C3F303130B4AD35CD84031
:1031C0000A4B18600A4B1868FEF7E6F8002070BD3D
:1031D000012070470120FAE70120F8E70120F6E717
:1031E000003C0240003802402CE00008180000209B
:1031F00020000020014B1868704700BF1800002015
:1032000008B5FFF7F7FF044B9B68C3F38223034A1B
:10321000D35CD84008BD00BF0038024024E000085D
:1032200008B5FFF7E7FF044B9B68C3F34233034A3B
:10323000D35CD84008BD00BF0038024024E000083D
:103240000F2303600B4B9A6802F0030242609A68F6
:1032500002F0F00282609A6802F4E052C2609B6859
:10326000DB0803F4E0530361034B1B6803F007031F
:103270000B60704700380240003C0240704700007D
:1032800090F83D30DBB2012B2FD1022380F83D3086
:103290000268D36843F00103D3600368154A934280
:1032A00018D0B3F1804F15D0A2F57C42934211D0D3
:1032B00002F5806293420DD002F58062934209D0FC
:1032C00002F59A32934205D01A6842F001021A6060
:1032D000002070479A6802F00702062A07D01A6891
:1032E00042F001021A600020704701207047002060
:1032F000704700BF0000014070477047704770473B
:1033000010B5044603681A6912F0020F11D0DA688A
:1033100012F0020F0DD06FF002021A610123037741
:1033200003689B6913F0030F70D0FFF7E6FF0023DB
:10333000237723681A6912F0040F12D0DA6812F0AA
:10334000040F0ED06FF004021A6102232377236862
:103350009B6913F4407F5FD02046FFF7CEFF002328
:10336000237723681A6912F0080F12D0DA6812F076
:10337000080F0ED06FF008021A6104232377236828
:10338000DB6913F0030F4ED02046FFF7B6FF002392
:10339000237723681A6912F0100F12D0DA6812F03E
:1033A000100F0ED06FF010021A61082323772368E4
:1033B000DB6913F4407F3DD02046FFF79EFF0023DA
:1033C000237723681A6912F0010F03D0DA6812F02C
:1033D000010F36D123681A6912F0800F03D0DA6822
:1033E00012F0800F34D123681A6912F0400F03D015
:1033F000DA6812F0400F32D123681A6912F0200FF8
:1034000003D0DA6812F0200F30D110BDFFF774FF3F
:103410002046FFF773FF8AE72046FFF76DFF20463F
:10342000FFF76CFF9BE72046FFF766FF2046FFF79C
:1034300065FFACE72046FFF75FFF2046FFF75EFF22
:10344000BDE76FF001021A612046FDF707FEC1E7F4
:103450006FF080021A61204600F08BF8C3E76FF02E
:1034600040021A612046FFF74AFFC5E76FF02002CD
:103470001A61204600F07CF8C7E700000368254A7F
:1034800090420ED0B0F1804F0BD0A2F57C4290421A
:1034900007D002F58062904203D002F5806290422C
:1034A00003D123F070034A6813431A4A90421AD09A
:1034B000B0F1804F17D0A2F57C42904213D002F5B4
:1034C000806290420FD002F5806290420BD002F5EC
:1034D0009A32904207D002F58062904203D002F502
:1034E0008062904203D123F44073CA68134323F0EF
:1034F00080034A69134303608B68C3620B6883626D
:10350000044B984202D00123436170470B69036367
:10351000F9E700BF0000014040B310B5044690F841
:103520003D30F3B1022384F83D30214651F8040BBD
:10353000FFF7A4FF012384F8463084F83E3084F876
:103540003F3084F8403084F8413084F8423084F8C9
:10355000433084F8443084F8453084F83D3000200E
:1035600010BD80F83C30FFF789FEDBE70120704793
:103570007047704782B000230193019B0133019390
:10358000019A0F4B9A4215D80369002BF5DA0023F4
:103590000193036943F001030361019B013301932C
:1035A000019A074B9A4208D8036913F0010FF4D12E
:1035B000002000E0032002B070470320FBE700BFBB
:1035C000400D030084B010B5044603A880E80E0047
:1035D000089B012B1FD1A36B23F48033A363E36803
:1035E00023F4840323F04003E360E36823F44013EF
:1035F000E3600F9B012B09D02046FFF7BBFF069B22
:10360000012B1BD0BDE8104004B07047E36843F4C1
:103610008013E360F0E7E36843F04003E360204693
:10362000FFF7A8FF0C9B23B9A36B43F48033A3637C
:10363000E5E7A36B23F48033A363E0E7A36843F0DB
:103640000603A360A36843F02003A360DAE7000049
:10365000022A0AD00922C36823F47053C360C368E6
:1036600043EA8223C36000207047234B0B44234A64
:1036700093422FD9224B0B44224A93422CD9A1F5D5
:103680007403A3F51053204A934227D9A1F1837301
:10369000A3F5E7431D4A934222D31D4B0B441D4A19
:1036A00093421FD91C4B0B441C4A93421CD31C4B06
:1036B0000B441C4A934219D3A1F1B773A3F5585395
:1036C000194A934214D3194B0B44194A934211D20D
:1036D0000722C0E70F22BEE70E22BCE70D22BAE7A1
:1036E0000C22B8E70B22B6E70A22B4E70922B2E7B8
:1036F0000822B0E70622AEE7405327FFFF340C0054
:10370000401E1BFF3F420F007F4F120020D61300C8
:1037100060B6E5FE5FE3160000D3CEFE40771B00E7
:10372000C05BB3FEC091210020753800E05459FE03
:10373000E09C4100836843F00103836000207047F0
:10374000836823F0010383600020704782B0002368
:103750000193019B01330193019A0F4B9A4215D8B3
:103760000369002BF5DA00230193890141F0200160
:103770000161019B01330193019A074B9A4208D8DA
:10378000036913F0200FF4D1002000E0032002B001
:1037900070470320FBE700BF400D030082B0002309
:1037A0000193019B01330193019A0E4B9A4213D866
:1037B0000369002BF5DA0023019310230361019BB9
:1037C00001330193019A074B9A4208D8036913F019
:1037D000100FF4D1002000E0032002B07047032056
:1037E000FBE700BF400D0300D0F800381943C0F8D4
:1037F000001800207047000084B02DE9F041044615
:1038000007A880E80E00002306E003F1400204EB65
:1038100082020021516001330E2BF6D9119F27BB84
:10382000D4F8043843F00203C4F80438A36B43F41B
:103830000013A363A36B23F40023A363A36B23F4FC
:103840008023A3630023C4F8003E04F50065D4F888
:103850000038C4F800380C9B012B14D1099B6BB9BC
:1038600000212046FFF7C0FF11E0A36B23F40013F3
:10387000A363A36B43F40023A363E3E70121204682
:10388000FFF7B2FF03E003212046FFF7ADFF102151
:103890002046FFF75BFF804608B14FF00108204645
:1038A000FFF77CFF08B14FF0010800232B616B612B
:1038B000EB610AE0C3B94FF00060C2F800090022D2
:1038C0000A614FF67F328A6001330799994210D915
:1038D00004EB431202F51061D2F800090028E9DB7D
:1038E0000020C2F80009EAE74FF09040C2F8000952
:1038F000E5E700230AE0C3B14FF0904CC2F800CBDB
:10390000002202614FF67F3282600133994211D961
:1039100004EB431202F53060D2F8006B002EEADBB4
:103920004FF0000CC2F800CBEAE74FF0006CC2F891
:1039300000CBE5E72B6923F480732B610023A3619F
:103940006FF0804363610A9B1BB9A36943F01003C6
:10395000A361A2690B4B1343A3610D9B1BB1A36928
:1039600043F00803A361012F04D04046BDE8F041B5
:1039700004B07047A36943F0804343F00403A3619C
:10398000F3E700BF00383C80D0F8083813F0060396
:1039900007D0022B07D0062B01D00F207047022042
:1039A0007047002070470220704710B591F800C0A2
:1039B0004B78012B23D000F5006ED0F81C380CF0AA
:1039C0000F040122A24043EA0243C0F81C3800EB76
:1039D0004C10D0F8003B13F4004F0ED1D0F8003B50
:1039E000CA68C2F30A02097942EA8142134343F0EA
:1039F000805343F40043C0F8003B002010BDD0F8D2
:103A00001C280CF00F0E03FA0EF39BB21343C0F800
:103A10001C3800EB4C10D0F8003913F4004FECD1F7
:103A2000D0F80039CA68C2F30A02097942EA814231
:103A300042EA8C52134343F0805343F40043C0F8EE
:103A40000039DAE730B40B784A78012A26D000EB47
:103A50004313D3F8002B002A52DBD0F83C480A78F5
:103A600002F00F024FF0010C0CFA02F224EA0242BB
:103A7000C0F83C28D0F81C28097801F00F010CFA96
:103A800001FC22EA0C42C0F81C28D3F8001B234A90
:103A90000A40C3F8002B002030BC704700EB4313F2
:103AA000D3F80029002A1EDBD0F83C580A7802F02F
:103AB0000F02012404FA02F292B225EA0202C0F8CF
:103AC0003C28D0F81C28097801F00F018C40A4B2E2
:103AD00022EA0402C0F81C28D3F80019104A0A4050
:103AE000C3F80029D7E7D3F8002942F00062C3F8F1
:103AF0000029D3F8002942F08042C3F80029D3E717
:103B0000D3F8002B42F00062C3F8002BD3F8002B4F
:103B100042F08042C3F8002B9FE700BF0078F3EF2C
:103B2000007833EC70B40B784C78012C29D000EB82
:103B3000431000F530631C69E40CE4041C611C694B
:103B400024F0FF5424F4C0141C618C690CB1CC68BF
:103B50008C61CC68CC611C6944F400241C611C6934
:103B6000CD69C5F3120C44EA0C041C61012A66D02D
:103B7000D0F8003B43F00443C0F8003B002070BC89
:103B800070478C696CBB00EB4314D4F8105925F0D6
:103B9000FF5525F4C015C4F81059D4F8105945F450
:103BA0000025C4F81059D4F81059ED0CED04C4F8F0
:103BB0001059012A34D000EB4313D3F8002942F006
:103BC0000442C3F800298B69002BD7D0D0F83438D1
:103BD000097801F00F0101228A401343C0F83438FC
:103BE000CCE700EB431404F510642569ED0CED04FB
:103BF0002561256925F0FF5525F4C0152561CD689F
:103C00008E69AE4200D98D61256945F40025256194
:103C100025698E69C6F3120C45EA0C052561C8E7D3
:103C20004A691AB100EB4311C1F8142900EB4313A0
:103C3000D3F8002942F00442C3F800299EE70A693C
:103C4000002A95D05A6193E710B483B0024600234E
:103C50000193487801280BD00B7802EB4313D3F87B
:103C6000000B00282DDB002003B05DF8044B7047EB
:103C70000B7802EB4313D3F80049002C01DB002042
:103C8000F2E7D3F8004944F00064C3F800490B7828
:103C900002EB4313D3F8004944F08044C3F80049D1
:103CA000019B01330193019C42F210739C42DBD8CB
:103CB0000B7802EB4313D3F80039002BF0DB002024
:103CC000D2E7D3F8000B40F00060C3F8000B0B788C
:103CD00002EB4313D3F8000B40F08040C3F8000B15
:103CE000019B01330193019842F21073984208D866
:103CF0000B7802EB4313D3F8003B002BF0DB0020E2
:103D0000B2E70120B0E710B59DF8084084B903334D
:103D10004FEA930E4FF0000C08E000EB023303F57E
:103D2000805351F8044B1C600CF1010CF445F4D3A2
:103D3000002010BDF0B583B00B784C78012C33D047
:103D400000EB431303F5306CDCF81040E40CE404A2
:103D5000CCF81040DCF8104024F0FF5424F4C014D8
:103D6000CCF810408C69002C40F0C780DCF8104083
:103D7000CD68C5F312052C43CCF81040DCF8104098
:103D800044F40024CCF81040012A00F0D0800A79D5
:103D9000012A00F0D380D3F8002B42F00442C3F88C
:103DA000002B002003B0F0BD8C6984BB00EB4314F2
:103DB000D4F8105925F0FF5525F4C015C4F8105952
:103DC000D4F8105945F40025C4F81059D4F8105906
:103DD000ED0CED04C4F81059012A4CD000EB43134C
:103DE000D3F8004944F00444C3F800490C79012C8D
:103DF0006AD08B69002BD4D0D0F83438097801F020
:103E00000F0101228A401343C0F83438C9E700EBA0
:103E10004314D4F81059ED0CED04C4F81059D4F83B
:103E2000105925F0FF5525F4C015C4F81059D4F8E1
:103E300010698D69CF683D44013DB5FBF7F5494FE9
:103E400007EAC5453543C4F81059D4F810598E69AE
:103E5000C6F312063543C4F8105904F510640D7901
:103E6000012DB9D1256925F0C0452561256945F0A9
:103E700000552561B0E74A691AB100EB4314C4F854
:103E800014290A79012A08D000EB4313D3F800293A
:103E900042F00442C3F8002983E7D0F8082812F45E
:103EA000807F08D100EB4311D1F8002942F0005285
:103EB000C1F80029E8E700EB4311D1F8002942F0EE
:103EC0008052C1F80029DFE7D0F8084814F4807F59
:103ED0000CD1D3F8004944F00054C3F800490092D3
:103EE0000B8B0A780969FFF70EFF5AE7D3F80049F0
:103EF00044F08054C3F80049F1E7CD682C44013CFC
:103F0000B4FBF5F4A4B204FB05F5CD61DCF8105068
:103F1000144E06EAC4442C43CCF81040DCF81040A0
:103F2000CD69C5F312052C43CCF810402CE70A6983
:103F3000002A3FF42CAFCCF8142028E7D0F808284A
:103F400012F4807F06D1D3F8002B42F00052C3F860
:103F5000002B20E7D3F8002B42F08052C3F8002B4F
:103F600019E700BF0000F81F10B5844608464FEA65
:103F7000920E02F00302002305E00CF5805109685F
:103F800040F8041B01337345F7D37AB10CF5805C1C
:103F9000DCF800400021CBB2DB0024FA03F300F888
:103FA000013B0131013A92B2002AF4D110BD0B78E5
:103FB0004A78012A14D000EB4310D0F8002B002AD5
:103FC00006DB2BB1D0F8003B23F08043C0F8003B68
:103FD000D0F8003B43F40013C0F8003B00207047CA
:103FE00000EB4310D0F80029002A06DB2BB1D0F8F3
:103FF000003923F08043C0F80039D0F8003943F489
:104000000013C0F80039E9E70B784A78012A0ED08E
:1040100000EB4310D0F8003B23F40013C0F8003B42
:104020000B79023BDBB2012B15D90020704700EB66
:104030004310D0F8003923F40013C0F800390B798D
:10404000023BDBB2012BF0D8D0F8003943F08053AB
:10405000C0F80039E9E7D0F8003B43F08053C0F8DE
:10406000003BE2E710B50446002208E004EB4213EF
:104070004FF67F31C3F80819C3F8081B01320E2A26
:10408000F4D90022C4F81028C4F81428C4F81C2855
:104090002046FFF783FB00B110BD10212046FFF73B
:1040A00055FBF9E7D0F8003823F4FE63C0F8003878
:1040B000D0F80038090101F4FE610B43C0F8003864
:1040C00000207047D0F8003E23F00303C0F8003E04
:1040D000D0F8043823F00203C0F8043800207047F9
:1040E000D0F8003E23F00303C0F8003ED0F80438B7
:1040F00043F00203C0F80438002070474269806929
:1041000010407047D0F8183800F50060C0691840BA
:10411000000C7047D0F8183800F50060C0691840EE
:1041200080B2704700EB4111D1F8082B00F5006018
:10413000406910407047D0F81028D0F8343801F0AA
:104140000F0C23FA0CF3DB01DBB2134300EB41103D
:1041500000F51060806818407047406900F0010069
:10416000704738B50546C36823F0C043C3600129D2
:1041700013D019BBC36843F08043C36000240120FF
:10418000FDF71AFA01342846FFF7E7FF08B1312C92
:10419000F5D9322C14D0002038BDC36843F0005349
:1041A000C36000240120FDF707FA01342846FFF719
:1041B000D4FF0128EDD0312CF4D9EAE70120EBE758
:1041C0000120E9E7D0F8003923F4FF6323F0070367
:1041D000C0F80039D0F8043843F48073C0F80438CC
:1041E0000020704710B4046C154B9C4203D9D0F8E2
:1041F000003B002B16DB0024C0F8104BD0F8104B0E
:1042000044F40024C0F8104BD0F8104B44F01804CC
:10421000C0F8104BD0F8104B44F0C044C0F8104B1D
:10422000012903D000205DF8044B7047C0F8142B1F
:10423000D0F8003B43F08023C0F8003BF2E700BF1A
:104240000A30544F10B5D0F8D43203F1B00250F810
:1042500022408CB100EB820043687BB194F80002ED
:10426000FF280DD09B6894F8012221469847FF2330
:1042700084F80032002010BD0320FCE70020FAE79C
:104280000020F8E70A23038000487047A0000020C0
:10429000F8B506460F4F8221384600F053FC05461C
:1042A0000121384600F04EFC04468121384600F0DA
:1042B00049FC0DB11022AA711CB1402222710022CA
:1042C000627118B14022027100224271432333808F
:1042D0000048F8BD24000020F8B506460F4F8221A3
:1042E000384600F02FFC05460121384600F02AFC34
:1042F00004468121384600F025FC0DB11022AA7138
:104300001CB1402222710022627118B14022027158
:1043100000224271432333800048F8BD240000206E
:10432000F8B506460F4F8221384600F00BFC0546D3
:104330000121384600F006FC04468121384600F091
:1043400001FC0DB11022AA711CB1002222710222BF
:10435000627118B10022027102224271432333803C
:104360000048F8BD2400002038B5D0F8D432B0336E
:1043700050F8235095B1044603F0D7F9C5F80C0264
:10438000D4F8D432B03304EB83046368DB6805F5FA
:104390000371D5F804029847002038BD0320FCE7DC
:1043A00038B5D0F8C852D0F8D432B03350F82340E2
:1043B00084B301F00F0303EB830200EB82029269E6
:1043C0004AB103EBC30C05EB8C05AD6CB2FBF5FCFD
:1043D00005FB1C2292B10023C4F81432D0F8D43269
:1043E000B03300EB830043681B69ABB10A4604F5A8
:1043F0000471D4F808029847002038BD03EB83030A
:1044000000EB830300249C612346224603F0E6F977
:104410002046F2E70320F0E70020EEE7F0B583B096
:10442000D0F8D43203F1B00250F8227000228DF897
:104430000720ADF80420002F7BD004460D460978F4
:1044400011F0600634D0202E6CD1EA882AB311F026
:10445000800F07D16B7887F80032EA883F2A13D89B
:10446000D2B212E0B03300EB83035B689B6839463D
:1044700068789847EA88072A28BF072239462046E5
:1044800000F010FF002651E0402287F80122394653
:10449000204600F01CFF002648E0B03300EB830309
:1044A0005B689B68002229466878984700263DE0B3
:1044B0006F780B2F31D8DFE807F006393030303015
:1044C00030303030162690F89C32DBB2032B04D00B
:1044D000294600F074FB032628E0022201A900F01F
:1044E000E1FE3E4622E090F89C32DBB2032B04D082
:1044F000294600F064FB032618E001220DF10701B4
:1045000000F0D0FE12E090F89C32DBB2032B0DD00D
:10451000294600F054FB032608E0294600F04FFB33
:10452000032603E0294600F04AFB0326304603B089
:10453000F0BD0326FAE738B50446812103F02EF9D1
:10454000002525870121204603F028F9A4F8785199
:104550008221204603F022F9A4F84C50A4F84E50D2
:10456000D4F8D43203F1B00254F822209AB1B03317
:1045700004EB83035B685B689847D4F8D432B033AC
:1045800054F8230003F0DCF8D4F8D432B03344F804
:104590002350C4F8BC52002038BD70B504464FF417
:1045A000077003F0C9F8002849D005464FF4077298
:1045B000002103F023FCD4F8D432B03344F8235064
:1045C000C4F8BC52237C002B41D14FF4007302226B
:1045D0008121204603F0D7F8012626874FF4007387
:1045E00002223146204603F0CEF8A4F87861102369
:1045F000A4F84E30082303228221204603F0C3F89A
:104600000123A4F84C300026C5F80462D4F8D43253
:10461000B03304EB83035B681B689847C5F81462EA
:10462000C5F81862D5F8042262B3257C1DBB4FF48F
:1046300000730121204603F0D9F8284670BDD4F854
:10464000D432B033002244F823200225F5E740237A
:1046500002228121204603F096F801262687402376
:1046600002223146204603F08EF8A4F87861102328
:10467000A4F84E30BEE740230121204603F0B6F8EF
:104680000025DAE70225D8E739B1D0F8D432B033C3
:1046900000EB830041600020704703207047D0F892
:1046A000D432B03350F823302BB1C3F80812C3F81A
:1046B00010220020704703207047D0F8D432B03366
:1046C00050F823301BB1C3F80412002070470320B8
:1046D000704708B5D0F8D432B03350F823208AB1EF
:1046E000D2F814320BB1012008BD0123C2F81432F4
:1046F000D2F81032C362D2F80822812103F06EF89A
:104700000020F1E70320EFE710B5D0F8D432B03342
:1047100050F8232092B1047C44B94FF40073D2F8CE
:104720000422012103F062F8204610BD4023D2F894
:104730000422012103F05AF80024F5E70324F3E7EB
:1047400098B108B503460020C3F8B802C3F8C40204
:10475000C3F8D00209B1C3F8B412012183F89C1246
:104760001A70184602F096FF08BD0320704710B576
:10477000044603F000F8012384F89C32D4F8B832E0
:104780001BB15B682179204698470023C4F8C432E6
:10479000C4F8B432C4F8D032204602F0DCFF10BDB9
:1047A00010B582B00023ADF8063089B10446C0F8D8
:1047B000B812CB6A23B10DF106009847C4F8D002B5
:1047C000D4F8D8320133C4F8D832002002B010BD7A
:1047D0000320FBE708B502F0C6FF08BD08B5D0F816
:1047E000B83213B11B68984708BD0020FCE708B534
:1047F000D0F8B8325B68984700B908BD0320FCE7E1
:1048000038B5044600F2AA25284600F0C4F9012371
:10481000C4F89432B4F8B032C4F8983294F8AA12BA
:1048200001F01F03012B0DD0022B10D02BB101F092
:104830008001204602F0BAFF03E02946204600F03E
:104840007FFB38BD2946204600F0B5FBF9E7294635
:10485000204600F0F2FBF4E7F8B50446012380F8A7
:104860009C320023C0F894324360C0F8A43280F830
:10487000A032D0F8B832DBB15B68DBB100219847D9
:104880000746C8B9402300221146204602F07BFFAC
:104890000126A4F864614025C4F860512B4600222B
:1048A0008021204602F06FFFA68425623846F8BDBD
:1048B0000027E7E70027E5E70327E3E70174002087
:1048C000704790F89C32DBB280F89D32042380F868
:1048D0009C320020704790F89C32DBB2042B01D050
:1048E0000020704790F89D32DBB280F89C32F7E7E9
:1048F00008B590F89C32DBB2032B01D0002008BD34
:10490000D0F8B832002BF9D0DB69002BF6D09847ED
:10491000F4E708B5D0F8D432AE3350F823205AB1BA
:1049200090F89C32DBB2032B01D0002008BD136A43
:1049300023B198470020F9E70320F7E70020F5E7C7
:1049400008B5D0F8D432AE3350F823205AB190F8DD
:104950009C32DBB2032B01D0002008BD536A23B187
:1049600098470020F9E70320F7E70020F5E700204B
:10497000704708B5012380F89C32D0F8B83223B1D3
:104980005B680179984710B908BD0020FCE7032057
:10499000FAE7002070470020704738B504460D46FE
:1049A000002943D11346D0F89422032A01D00846A7
:1049B00038BDD0F85C11D0F86021914212D890F83F
:1049C000AA3203F01F03012B17D0022B1CD028465C
:1049D00094F89C32DBB2032B1BD0204600F08EFCF7
:1049E0002846E5E7891AC0F85C118A4228BF0A46C2
:1049F000194600F07BFC2846DAE790F8AE12FFF784
:104A0000C8FF0028E9D1E3E790F8AE12FFF7C3FF33
:104A1000F7E700F1AE0354F823301A69002ADCD01E
:104A2000C4F8D4021B6920469847D6E701F07F01FD
:104A3000FFF7B1FF90B994F89C32DBB2032BB7D1EA
:104A400000F1AE0354F823309A69002AB0D0C4F8BC
:104A5000D4029B69294620469847A9E70020A7E78A
:104A600038B504460D4600294BD11346D0F89422A0
:104A7000022A07D094F8A00218B1002384F8A032CB
:104A8000284638BDC269016A8A420ED88A4218D0C7
:104A900094F89C32DBB2032B27D08021204602F011
:104AA00085FE204600F035FCE4E7521AC261194643
:104AB00000F005FC00231A461946204602F096FE37
:104AC000D8E783699942E3D8D0F898229342DFD29D
:104AD0000022114600F0F3FB0021C4F898120B46A7
:104AE0000A46204602F082FEC4E7D4F8B832DA68FB
:104AF000002AD2D00022C4F8D422DB68204698478E
:104B0000CBE741F08001FFF746FF90B994F89C3263
:104B1000DBB2032BB5D100F1AE0354F823305A6950
:104B2000002AAED0C4F8D4025B69294620469847D3
:104B3000A7E70020A5E70B88027813440B800378D1
:104B400018447047428803789A4218D930B583B028
:104B500004460D46ADF806306388BDF806209A423B
:104B60000AD20DF10601FFF7E6FF4378052BF3D1DA
:104B70008378AB42F0D100E0002003B030BD0020CC
:104B800070470346002002E00130C0B201331A78BA
:104B9000002AF9D170470B7803704B7843708B78FB
:104BA000CA7843EA022343800B794A7943EA022315
:104BB00083808B79CA7943EA0223C380704710B59A
:104BC0000446802102F0F2FD0021204602F0EEFDB5
:104BD00010BD30B583B004460D460023ADF8063055
:104BE0004A88130A013B062B00F2AB80DFE803F092
:104BF000041F33A9A98D9A00D0F8B4321B680DF1B7
:104C00000601007C9847EA88002A00F0A380BDF8DE
:104C10000630002B00F099809A4228BF1A46ADF862
:104C200006200146204600F03DFB03B030BD037C6A
:104C300043B9D0F8B8329B6A0DF1060098470223B9
:104C40004370E0E7D0F8B832DB6A0DF10600984710
:104C500002234370D7E7D2B2052A52D8DFE802F028
:104C600003101D2A3744D0F8B4325B6823B10DF12C
:104C70000601007C9847C6E72946FFF7A0FFD4E766
:104C8000D0F8B4329B6823B10DF10601007C98473F
:104C9000B9E72946FFF793FFC7E7D0F8B432DB68DE
:104CA00023B10DF10601007C9847ACE72946FFF7D8
:104CB00086FFBAE7D0F8B4321B6923B10DF10601C3
:104CC000007C98479FE72946FFF779FFADE7D0F8CA
:104CD000B4325B6923B10DF10601007C984792E77D
:104CE0002946FFF76CFFA0E7D0F8B4329B6923B1E7
:104CF0000DF10601007C984785E72946FFF75FFF25
:104D000093E72946FFF75BFF8FE7037C33B9D0F8C1
:104D1000B8325B6B0DF10600984774E72946FFF740
:104D20004EFF82E7037C43B9D0F8B8321B6B0DF11C
:104D3000060098470723437065E72946FFF73FFFC2
:104D400073E72946FFF73BFF6FE729462046FFF749
:104D500036FF6AE7204600F0D1FA66E738B5044628
:104D60008B88FBB9CB88EBB94B887F2B1AD803F023
:104D70007F0590F89C32DBB2032B0CD080F89E525A
:104D8000294602F023FD204600F0B8FA35B102238F
:104D900084F89C3209E0FFF712FF06E0012384F853
:104DA0009C3202E02046FFF70AFF38BD70B504468A
:104DB0000E468D782F4B1D70012D10D890F89C3227
:104DC000DBB2022B0FD0032B26D0FFF7F8FE294BC6
:104DD00019782046FFF70BFD0325284670BDFFF725
:104DE000EEFE0325F9E7A5B145602946FFF7F6FC7D
:104DF000054638B131462046FFF7E1FE022384F82C
:104E00009C32EAE7204600F079FA032384F89C32CA
:104E1000E3E700F073FAE0E7CDB141688D4225D0B9
:104E2000C9B2FFF7E4FC134B197861602046FFF725
:104E3000D5FC0546B0B131462046FFF7C0FE2179CA
:104E40002046FFF7D4FC022384F89C32C5E70223F6
:104E500080F89C3245602946FFF7C9FC204600F0E7
:104E60004DFABAE7204600F049FAB6E700F046FAF4
:104E70000025B2E7F008002008B5CB88012B0BD144
:104E800090F89C32DBB2022B09D9032B09D1012205
:104E9000011D00F007FA01E0FFF791FE08BD5BB2CB
:104EA00013B9FFF78CFEF9E70146002341F8083FEC
:104EB000012200F0F7F9F1E708B590F89C32013BC8
:104EC000022B12D8CB88022B0CD10123C360D0F85F
:104ED000A4320BB10323C360022200F10C0100F0E5
:104EE000E1F908BDFFF76BFEFBE7FFF768FEF8E7A7
:104EF00008B54B88012B04D0022B07D0FFF75FFECB
:104F000008BDC0F8A43200F0F9F9F9E78B881B0A54
:104F100080F8A03200F0F2F9F2E708B590F89C3280
:104F2000013B022B09D84B88012B00D008BD002380
:104F3000C0F8A43200F0E2F9F8E7FFF740FEF5E729
:104F400038B50C7804F06004202C06D0402C04D036
:104F50006CB1FFF734FE002407E0D0F8D432AE3352
:104F600050F823309B6898470446204638BD4D785A
:104F7000092D1DD8DFE805F012191C161C08051CA8
:104F80000F0BFFF726FEF0E7FFF7E8FEEDE7FFF770
:104F90000DFF0446E9E7FFF76FFFE6E7FFF78CFF39
:104FA0002C46E2E7FFF7A4FFDFE7FFF7B6FFDCE7F9
:104FB000FFF705FED9E770B505460C460B7803F000
:104FC0006003202B07D0402B05D023B1FFF7F7FD5E
:104FD0000026304670BD95F89C32013B022B26D846
:104FE0002179012905D921462846FFF7E8FD002649
:104FF000EFE72846FFF7CDFC68B900F1AE0255F89F
:105000002220916889B1C5F8D402936821462846C8
:105010009847064600E00326E388002BD9D1002EEE
:10502000D7D1284600F06AF9D3E70326F4E72146F2
:105030002846FFF7C4FD0026CBE72DE9F0410646E0
:105040000D468B88DFB20C7804F06004202C08D069
:10505000402C06D0DCB1FFF7B2FD00242046BDE8AD
:10506000F08139463046FFF796FC0446002840F0B0
:10507000F880C6F8D40200F1AE0356F823309B68DE
:10508000002BEBD02946304698470446E6E791F8D6
:105090000180B8F1010F31D0B8F1030F05D0B8F19C
:1050A000000F67D0FFF78BFDD8E790F89C32DBB29A
:1050B000022B04D0032B12D0FFF781FDCEE70FB1F6
:1050C000802F04D129463046FFF779FDC6E73946DF
:1050D00002F06CFB8021304602F068FBBEE74B8893
:1050E00023B91FB1802F01D0CB881BB1304600F00F
:1050F00005F9B3E7394602F059FBF7E790F89C321F
:10510000DBB2022B04D0032B12D0FFF758FDA5E72A
:105110000FB1802F04D129463046FFF750FD9DE79F
:10512000394602F043FB8021304602F03FFB95E711
:105130004B88002B92D117F07F0F17D1304600F02B
:10514000DDF839463046FFF726FC002886D1C6F840
:10515000D40200F1AE0256F822209268002A00F034
:105160008280294630469047044677E7394602F068
:1051700025FBE3E790F89C22D2B2022A05D0032A4D
:1051800027D0FFF71CFD444668E70FB1802F13D1ED
:1051900013F0800F14D107F07F0707EB8707B900E2
:1051A00001F5A8713144043100230B60022230461E
:1051B00000F078F8444651E7FFF701FD44464DE71B
:1051C00007F07F0707EB8707B9001031314404313E
:1051D000EAE75BB2002B1FDB07F00F0202EB820253
:1051E00000EB8202B2F864211AB3002B25DB07F032
:1051F0007F0303EB83039C0004F5A8743444043458
:105200000FB1802F22D10023236002222146304695
:1052100000F048F8444621E707F00F0202EB820253
:1052200000EB8202928C002ADFD1FFF7C8FC4446D3
:1052300014E7FFF7C4FC444610E707F07F0303EBD5
:1052400083039C00103434440434D9E73946304693
:1052500002F054FA10B101232360D6E70023236043
:10526000D3E70024FAE60446F8E6D0B170B50D465F
:1052700016460446FFF785FC431C5B009BB2338057
:105280002B7003236B70022307E0EA5401345A1C8D
:10529000D2B20021A9540233DBB22278002AF4D121
:1052A00070BD704708B513460222C0F8942283618E
:1052B000C3610A46002102F091FA002008BD08B53A
:1052C00013460A46002102F089FA002008BD08B5FD
:1052D00013460322C0F89422C0F85831C0F85C315C
:1052E0000A46002102F082FA002008BD08B51346E4
:1052F0000A46002102F07AFA002008BD08B504220F
:10530000C0F8942200231A46194602F067FA0020DA
:1053100008BD08B50522C0F8942200231A46194694
:1053200002F064FA002008BD08B54FF0E0231B69C5
:1053300001F0B6FC012800D108BD00F0C3F9FBE77D
:10534000EFF305832BB9064B186828B901221A60C0
:1053500070476FF0050070474FF0FF30704700BF97
:10536000F8110020EFF3058373B90A4B1B68012B7A
:105370000DD110B50024084BDC77064B02221A60D1
:1053800001F002FA204610BD6FF0050070474FF0A3
:10539000FF307047F811002000ED00E0F0B587B055
:1053A00000240594EFF305847CBB70B32AB3156821
:1053B000936903B918235C1E372C4AD8546814F03B
:1053C000010F48D1566976B14FEA960C946834B112
:1053D000D768B7F5C07F02D3176907B1C6B92CB13A
:1053E0004FF0FF340EE04FF0800CEFE7D4688CB93B
:1053F000146994B14FF0FF3404E0154600241823DB
:105400004FF0800C012C0AD0ACB1059807B0F0BD6C
:105410000124F7E74FF0FF34F4E70024F2E71469C2
:1054200092680292019400930B466246294601F06D
:105430003BF90590E9E705AA019200930B461FFA94
:105440008CF2294601F06DF90128DED00023059386
:10545000DBE70020DAE70020D8E70000034B036019
:10546000034B0B6080231360704700BF781000204F
:10547000780E0020034B0360034B0B604FF48073E6
:1054800013607047F80C0020F408002000F10803B6
:1054900043604FF0FF328260C3600361002303600A
:1054A000704700230361704743684B609A688A60C5
:1054B000516099600861036801330360704730B43C
:1054C0000D68B5F1FF3F11D000F108031C465B6881
:1054D0001A68AA42FAD963684B6099608C6061606F
:1054E000086103680133036030BC70470469F2E768
:1054F0000369416882688A60416851605A688242E3
:1055000006D0002202611A68013A1A6018687047D2
:1055100082685A60F5E7000082B0002301930D4BCA
:105520001B68B3F1FF3F08D04FF0500383F311889D
:10553000BFF36F8FBFF34F8FFEE74FF0500383F33E
:105540001188BFF36F8FBFF34F8F019B002BFCD0EF
:1055500002B07047AC00002008480068006880F383
:1055600008884FF0000080F3148862B661B6BFF37C
:105570004F8FBFF36F8F00DF00BF000008ED00E02A
:10558000DFF80C00016841F4700101607047000011
:1055900088ED00E04FF0807340F8043C21F00101F9
:1055A00040F8081C054B40F80C3C40F8202C6FF0EC
:1055B000020340F8243C4438704700BF19550008E6
:1055C000074B19680868B0E8F04F80F30988BFF30B
:1055D0006F8F4FF0000080F311887047AFF30080A9
:1055E000605300204FF0500383F31188BFF36F8F97
:1055F000BFF34F8F0B4A136801331360012B00D0A8
:1056000070474FF0E023D3F8043D13F0FF0FF7D0BD
:105610004FF0500383F31188BFF36F8FBFF34F8FA9
:10562000FEE700BFAC000020094B1B6843B94FF0F8
:10563000500383F31188BFF36F8FBFF34F8FFEE7E3
:10564000013B034A13600BB983F31188704700BF15
:10565000AC0000200000000000000000000000007E
:10566000EFF30980BFF36F8F154B1A681EF0100F10
:1056700008BF20ED108A20E9F04F10602DE90900E5
:105680004FF0500080F31188BFF34F8FBFF36F8F3F
:1056900001F0E6F94FF0000080F3118809BC1968A9
:1056A0000868B0E8F04F1EF0100F08BFB0EC108A89
:1056B00080F30988BFF36F8F704700BFAFF300809E
:1056C0006053002008B54FF0500383F31188BFF3F7
:1056D0006F8FBFF34F8F01F0BBF828B14FF0E0237D
:1056E0004FF08052C3F8042D002383F3118808BDC6
:1056F0004FF0E022002313619361054B1B680549BD
:10570000A1FB03139B09013B5361072313617047FE
:1057100018000020D34D62104FF0E023D3F8002D85
:105720003D4B9A421CD04FF0E023D3F8002D3B4B69
:105730009A421ED030B583B0394B1A78D2B201925A
:10574000FF221A701B78DBB28DF803309DF803300E
:1057500003F05003334A1370334B07221A601BE0E7
:105760004FF0500383F31188BFF36F8FBFF34F8F58
:10577000FEE74FF0500383F31188BFF36F8FBFF341
:105780004F8FFEE7284A1368013B13609DF80330F2
:105790005B00DBB28DF803309DF8033013F0800F0F
:1057A000F0D1214B1B68032B08D04FF0500383F33B
:1057B0001188BFF36F8FBFF34F8FFEE71B021A4AAA
:1057C000136003F4E0631360019BDBB2144A1370AF
:1057D0004FF0E024D4F8203D43F47003C4F8203D9A
:1057E000D4F8203D43F07043C4F8203DFFF780FF1C
:1057F00000250E4B1D60FFF7C3FED4F8343F43F085
:105800004043C4F8343FFFF7A7FE01F029F9FFF742
:1058100083FE284603B030BD71C20F4170C20F41F4
:1058200000E400E000120020FC110020AC00002089
:10583000EFF305830F2B0FD9114A9B5CDBB2114AA2
:1058400012789A4208D94FF0500383F31188BFF3BE
:105850006F8FBFF34F8FFEE74FF0E023D3F80C3D7F
:1058600003F4E063084A1268934208D94FF05003EA
:1058700083F31188BFF36F8FBFF34F8FFEE770473D
:10588000F0E300E000120020FC110020124A12F0A8
:10589000070F1ED0D11D21F00701C1F5705313442D
:1058A0000A460E480260002141601344083B23F081
:1058B00007030B48036059601960991A516013601F
:1058C000084B1960084B1960084B4FF000421A60F2
:1058D00070474FF47053E4E7241200201C1200209C
:1058E00018120020101200201412002004120020B0
:1058F000164B1A461B688342FBD3516802EB010C1E
:10590000844509D0416800EB010C634509D0036070
:10591000904219D0106070474068014451601046B1
:10592000F0E710B40A4C2468A3420BD05B6819441A
:10593000416013681B680360904200D010605DF8FE
:10594000044B70470460F7E7704700BF1C1200204B
:105950001812002038B5044600F06CFF384B1B6865
:10596000B3B1384B1B681C4250D1002C50D004F10D
:10597000080214F0070F02D022F007020832002AB2
:1059800055D0314B1B68934253D330490C6804E027
:10599000FFF77CFFE5E721461C466368934202D28D
:1059A0002368002BF7D1264B1B68A34243D00D6818
:1059B000083523680B6063689B1A102B10D9A01858
:1059C00010F0070F08D04FF0500383F31188BFF396
:1059D0006F8FBFF34F8FFEE743606260FFF788FF72
:1059E000626819490B689B1A0B60194909688B4258
:1059F00001D217490B60134B1B68134363600023EC
:105A00002360144A13680133136002E0002500E0AC
:105A1000002500F0A9FF15F0070F0ED04FF050033E
:105A200083F31188BFF36F8FBFF34F8FFEE700251D
:105A3000EFE70025EDE70025EBE7284638BD00BF7E
:105A40001812002004120020141200201C12002042
:105A5000101200200C120020002834D038B5044663
:105A6000A0F1080550F8043C174A1268134208D107
:105A70004FF0500383F31188BFF36F8FBFF34F8F45
:105A8000FEE750F8081C41B14FF0500383F3118832
:105A9000BFF36F8FBFF34F8FFEE723EA020340F897
:105AA000043C00F0C7FE54F8041C084A13680B4479
:105AB00013602846FFF71CFF054A13680133136083
:105AC00000F052FF38BD704704120020141200206D
:105AD000081200200346406A18B11B6B1868C0F119
:105AE0003800704710B50446FFF77CFDA26BE36BEE
:105AF0009A4204D00024FFF797FD204610BD0124F0
