:020000040800F2
:1000000000000120250A0008AD090008AF0900081A
:10001000B1090008B3090008B50900080000000094
:10002000000000000000000000000000B11E0008F9
:10003000B709000800000000511F0008BB1B0008A2
:10004000750A0008750A0008750A0008750A000894
:10005000750A0008750A0008750A0008750A000884
:10006000750A0008750A0008750A0008750A000874
:10007000750A0008750A0008750A0008750A000864
:10008000750A0008750A0008750A000800000000DB
:10009000000000000000000000000000750A0008D9
:1000A000750A0008750A0008B9090008750A0008F1
:1000B000750A0008750A0008750A0008750A000824
:1000C000750A0008750A0008750A0008750A000814
:1000D000750A0008750A0008750A0008000000008B
:1000E000750A0008750A0008750A0008000000007B
:1000F000000000000000000000000000750A000879
:1001000000000000750A0008750A0008750A00085A
:1001100000000000000000000000000000000000DF
:10012000750A0008750A0008750A0008750A0008B3
:10013000750A000800000000000000000000000038
:10014000000000000000000000000000750A000828
:10015000750A0008750A0008750A0008750A000883
:10016000750A0008750A0008000000000000000081
:10017000000000000000000000000000000000007F
:1001800000000000750A00080000000000000000E8
:04019000750A0008E4
:1001A00010B5054C237833B9044B13B10448AFF3B1
:1001B00000800123237010BD5808002000000000BB
:1001C0004C40000808B5034B1BB103490348AFF38B
:1001D000008008BD000000005C0800204C400008C2
:1001E00053B94AB9002908BF00281CBF4FF0FF319E
:1001F0004FF0FF3000F074B9ADF1080C6DE904CE9A
:1002000000F006F8DDF804E0DDE9022304B07047F1
:100210002DE9F047089D04468E46002B4DD18A42B9
:10022000944669D9B2FA82F252B101FA02F3C2F1EC
:10023000200120FA01F10CFA02FC41EA030E94407D
:100240004FEA1C48210CBEFBF8F61FFA8CF708FB9E
:1002500016E341EA034306FB07F199420AD91CEB76
:10026000030306F1FF3080F01F81994240F21C81A8
:10027000023E63445B1AA4B2B3FBF8F008FB1033F0
:1002800044EA034400FB07F7A7420AD91CEB040425
:1002900000F1FF3380F00A81A74240F207816444F5
:1002A000023840EA0640E41B00261DB1D44000237A
:1002B000C5E900433146BDE8F0878B4209D9002DDE
:1002C00000F0EF800026C5E9000130463146BDE868
:1002D000F087B3FA83F6002E4AD18B4202D38242D2
:1002E00000F2F980841A61EB030301209E46002D81
:1002F000E0D0C5E9004EDDE702B9FFDEB2FA82F2D6
:10030000002A40F09280A1EB0C014FEA1C471FFA33
:100310008CFE0126200CB1FBF7F307FB131140EA1A
:1003200001410EFB03F0884208D91CEB010103F1E7
:10033000FF3802D2884200F2CB804346091AA4B2A9
:10034000B1FBF7F007FB101144EA01440EFB00FE7D
:10035000A64508D91CEB040400F1FF3102D2A645E2
:1003600000F2BB800846A4EB0E0440EA03409CE781
:10037000C6F12007B34022FA07FC4CEA030C20FA2E
:1003800007F401FA06F31C43F9404FEA1C4900FA4E
:1003900006F3B1FBF9F8200C1FFA8CFE09FB1811CB
:1003A00040EA014108FB0EF0884202FA06F20BD93E
:1003B0001CEB010108F1FF3A80F08880884240F28E
:1003C0008580A8F102086144091AA4B2B1FBF9F0D2
:1003D00009FB101144EA014100FB0EFE8E4508D9CD
:1003E0001CEB010100F1FF346CD28E456AD9023852
:1003F000614440EA0840A0FB0294A1EB0E01A14237
:10040000C846A64656D353D05DB1B3EB080261EBA4
:100410000E0101FA07F722FA06F3F1401F43C5E97E
:10042000007100263146BDE8F087C2F12003D840B4
:100430000CFA02FC21FA03F3914001434FEA1C47F6
:100440001FFA8CFEB3FBF7F007FB10360B0C43EAE8
:10045000064300FB0EF69E4204FA02F408D91CEB98
:10046000030300F1FF382FD29E422DD90238634496
:100470009B1B89B2B3FBF7F607FB163341EA034136
:1004800006FB0EF38B4208D91CEB010106F1FF3885
:1004900016D28B4214D9023E6144C91A46EA00467C
:1004A00038E72E46284605E70646E3E61846F8E60E
:1004B0004B45A9D2B9EB020864EB0C0E0138A3E757
:1004C0004646EAE7204694E74046D1E7D0467BE738
:1004D000023B614432E7304609E76444023842E7B0
:1004E000704700BF844641EA000313F003036DD157
:1004F000403A41D351F8043B40F8043B51F8043BE7
:1005000040F8043B51F8043B40F8043B51F8043BED
:1005100040F8043B51F8043B40F8043B51F8043BDD
:1005200040F8043B51F8043B40F8043B51F8043BCD
:1005300040F8043B51F8043B40F8043B51F8043BBD
:1005400040F8043B51F8043B40F8043B51F8043BAD
:1005500040F8043B51F8043B40F8043B51F8043B9D
:1005600040F8043B51F8043B40F8043B51F8043B8D
:1005700040F8043B403ABDD2303211D351F8043B2D
:1005800040F8043B51F8043B40F8043B51F8043B6D
:1005900040F8043B51F8043B40F8043B103AEDD2DC
:1005A0000C3205D351F8043B40F8043B043AF9D22D
:1005B000043208D0D2071CBF11F8013B00F8013B00
:1005C00001D30B8803806046704700BF082A13D30D
:1005D0008B078DD010F003038AD0C3F10403D21A25
:1005E000DB071CBF11F8013B00F8013B80D331F859
:1005F000023B20F8023B7BE7043AD9D3013A11F8D9
:10060000013B00F8013BF9D20B7803704B78437043
:100610008B7883706046704730B58BB000240594AA
:1006200006940794089409940194214B1A6B42F0A4
:1006300004021A631A6B02F004020192019A0294F6
:100640001A6B42F080021A631A6B02F08002029267
:10065000029A03941A6B42F001021A631A6B02F0B9
:1006600001020392039A04941A6B42F002021A6385
:100670001B6B03F002030493049B0E4D22460621DC
:10068000284600F071FB4FF400530593069407943D
:1006900005A9094800F088FA06230593012306936B
:1006A0000794089405A9284600F07EFA0BB030BDE7
:1006B00000380240000002400008024008B5022154
:1006C000034800F057FB642001F02FFBF7E700BF61
:1006D0000000024010B50B4B1A6800210A4801F0D7
:1006E000A7FA044640F6B83001F01FFB204601F09F
:1006F000FEFA40F6B83001F018FB204601F006FB88
:10070000F0E700BF74080020BD06000808B50268C5
:10071000034B9A4200D008BD00F0C8F9FBE700BFC8
:100720000048014072B6FEE708B50B484FF0A04301
:100730000360042343600222C260002303618261DC
:10074000C36103624362C362036300F01CFB00B930
:1007500008BDFFF7E7FF00BF7C08002000B595B09B
:100760003022002108A803F0CFF90023039304935B
:100770000593069307930193204A116C41F0805131
:100780001164126C02F080520192019A02931C4A89
:10079000136823F4404343F400431360136803F4E5
:1007A00040430293029B012308934FF48033099343
:1007B00002230E934FF480030F9319231093C02349
:1007C000119304231293139308A800F073FB88B9C4
:1007D0000F23039302230493002305934FF48052C5
:1007E00006920793012103A800F0B2FD20B915B0CD
:1007F0005DF804FBFFF796FFFFF794FF0038024017
:100800000070004010B500F037F9FFF7A7FFFFF7C1
:1008100003FFFFF789FF012202210D4800F0A4FA2F
:10082000002408E04FF4FA7000F052F90221084861
:1008300000F0A0FA0134042CF4DD01F0CBF9054BF3
:100840001A680021044801F0F3F901F0D5F9FEE738
:100850000000024078080020D506000800B583B0EB
:10086000002200920D4B596C41F480415964596C3F
:1008700001F48041009100990192196C41F080517E
:1008800019641B6C03F080530193019B0F216FF0DF
:10089000010000F043F903B05DF804FB00380240AA
:1008A00030B589B00023039304930593069307930F
:1008B0000368B3F1A04F01D009B030BD0025019508
:1008C000124C236B43F001032363236B03F00103FA
:1008D0000193019B4FF4C05303930223049303231A
:1008E00006930A23079303A9094800F05DF9636B97
:1008F00043F0800363630295636C43F48043636455
:10090000636C03F480430293029BD5E700380240F6
:100910000000024030B589B00546002401941E4B0A
:100920005A6C42F480225A645B6C03F48023019376
:10093000019B02A903A800F0D1FD00F0BFFD034612
:100940001648A0FB03239B0C013B1548154A026087
:1009500040F2E732C260436004618460846100F069
:1009600029FF044610B1204609B030BD0C4800F004
:10097000D5FD04460028F6D11A2000F007F90F2D06
:1009800001D90124EFE7002229461A2000F0C6F819
:10099000054B1D60E7E700BF0038024083DE1B43C4
:1009A000880D00200048014008000020FEE7FEE717
:1009B000FEE7FEE7FEE7704708B5024800F0EEFDEF
:1009C00008BD00BF880D002010B503460C4A0D4934
:1009D0000D48006840B10C4800680344521A934225
:1009E00006D8094A136010BD0748084C0460F2E7B6
:1009F00003F060F80C2303604FF0FF30F3E700BF13
:100A00000000012000040000D00D0020C05F002085
:100A1000034AD2F8883043F47003C2F88830704734
:100A200000ED00E0DFF834D00D480E490E4A0023F7
:100A300002E0D458C4500433C4188C42F9D30B4A92
:100A40000B4C002301E013600432A242FBD3FFF7FA
:100A5000DFFF03F035F8FFF7D5FE704700000120F7
:100A60000000002054080020AC4000085808002076
:100A7000BC5F0020FEE7000008B50B4B1A6842F48B
:100A800000721A601A6842F480621A601A6842F4AE
:100A900080721A60032000F02FF80F20FFF73AFF52
:100AA000FFF7DCFE002008BD003C0240034A11684D
:100AB000034B1B780B441360704700BFD40D00201C
:100AC00004000020014B1868704700BFD40D0020BF
:100AD00038B50446FFF7F6FF0546B4F1FF3F02D0F4
:100AE000044B1B781C44FFF7EDFF401BA042FAD3D8
:100AF00038BD00BF04000020074AD36823F4E06338
:100B00001B041B0C000200F4E060034343F0BF63CE
:100B100043F40033D360704700ED00E000B5194B9B
:100B2000DB68C3F30223C3F1070CBCF1040F28BF39
:100B30004FF0040C03F1040EBEF1060F18D9033B6D
:100B40004FF0FF3E0EFA0CFC21EA0C0199400EFA20
:100B500003F322EA0303194300280BDB0901C9B29E
:100B600000F1604000F5614080F800135DF804FB7F
:100B70000023E5E700F00F000901C9B2024B195448
:100B8000F4E700BF00ED00E014ED00E0002807DB13
:100B900000F01F02400901239340024A42F820302E
:100BA000704700BF00E100E000230F2B00F2D2806D
:100BB00070B582B060E085685E000324B44025EA29
:100BC0000405CC68B4402C438460456825EA0205DE
:100BD0004C68C4F300129A402A4342605AE0DC0891
:100BE000083450F8246003F0070295000F22AA4051
:100BF00026EA020E0A69AA4042EA0E0240F82420C0
:100C00005CE0042200E0002202FA0EF22A430234E1
:100C1000514D45F82420514A94686FEA0C0224EAA9
:100C20000C054E6816F4801F01D04CEA04054B4CAD
:100C3000A560E46802EA04054E6816F4001F01D0BE
:100C40004CEA0405454CE560646802EA04054E6818
:100C500016F4003F01D04CEA0405404C656024685E
:100C600022404D6815F4803F01D04CEA04023B4C11
:100C7000226001330F2B6BD801229A400C6804EAE2
:100C8000020C32EA0404F4D14C6804F00304013C81
:100C9000012C90D94A6802F00302032A09D0C468E3
:100CA0005D000322AA4024EA02048A68AA40224383
:100CB000C2604A6802F00302022A90D004684FEA38
:100CC000430E032202FA0EF224EA02044A6802F0FA
:100CD000030202FA0EF2224302604A6812F4403F15
:100CE000C7D0002201921E4A546C44F480445464DC
:100CF000526C02F480420192019A9C08A51C164A8B
:100D000052F8255003F003024FEA820E0F2202FA36
:100D10000EF225EA0205134A90423FF474AF02F541
:100D2000806290420ED002F5806290420CD002F5B3
:100D3000806290420AD002F5806290423FF461AF37
:100D4000072261E701225FE702225DE703225BE7FA
:100D500002B070BD704700BF00380140003C014048
:100D600000380240000002400AB181617047090466
:100D700081617047436901EA030221EA030141EA04
:100D800002418161704770B58AB0002800F0908000
:100D90000546046890F8BD343BB3032385F8BD34A1
:100DA000E36B13F4807F01D100232B61286800F0EE
:100DB0009CFD2C4654F8106BEC460FCCACE80F00B1
:100DC0000FCCACE80F0094E803008CE803002B1D67
:100DD0000ECB304600F044FD044658B1022385F89E
:100DE000BD34012420460AB070BD80F8BC34FFF742
:100DF00057FDD2E70021286800F0AEFE234616E03A
:100E000003EBC30205EB8202012182F83D1082F858
:100E10003C30A2F84430002182F840109164D16443
:100E200003EBC30205EB820251650133DBB2696853
:100E30008B42E5D316E004EBC40305EB83030022E9
:100E400083F87D2283F87C4283F88022C3F88822CD
:100E5000C3F88C2204EBC40305EB8303C3F894228C
:100E60000134E4B2A142E6D82C4654F8106BEC46AB
:100E70000FCCACE80F000FCCACE80F0094E80300F7
:100E80008CE803002B1D0ECB304600F08BFD044692
:100E900020B1022385F8BD340124A3E7002385F89F
:100EA0003830012385F8BD34286800F043FE99E707
:100EB000012497E7002800F0E08170B582B0044675
:100EC000036813F0010F3BD09F4B9B6803F00C03AA
:100ED000042B2CD09C4B9B6803F00C03082B21D0D7
:100EE0006368B3F5803F4FD0B3F5A02F52D0964B37
:100EF0001A6822F480321A601A6822F480221A607A
:100F00006368002B50D0FFF7DDFD05468E4B1B6854
:100F100013F4003F14D1FFF7D5FD401B6428F5D929
:100F20000320B1E1884B5B6813F4800FD8D0864B67
:100F30001B6813F4003F03D06368002B00F09F810F
:100F4000236813F0020F54D07F4B9B6813F00C0FF3
:100F50003ED07D4B9B6803F00C03082B33D0E36835
:100F6000002B68D0794B01221A60FFF7ABFD0546D4
:100F7000754B1B6813F0020F54D1FFF7A3FD401B04
:100F80000228F5D903207FE16F4A136843F48033C8
:100F90001360B5E76C4B1A6842F480221A601A6835
:100FA00042F480321A60ABE7FFF78CFD0546664BD2
:100FB0001B6813F4003FC3D0FFF784FD401B642877
:100FC000F5D9032060E1604B5B6813F4800FC6D154
:100FD0005D4B1B6813F0020F03D0E368012B40F058
:100FE0005081594A136823F0F803216943EAC10389
:100FF0001360236813F0080F42D063696BB3534B3F
:101000000122C3F8802EFFF75DFD05464E4B5B6F56
:1010100013F0020F34D1FFF755FD401B0228F5D91C
:10102000032031E1484A136823F0F803216943EAB9
:10103000C1031360DDE7454B00221A60FFF742FD54
:101040000546414B1B6813F0020FD2D0FFF73AFD63
:10105000401B0228F5D9032016E13C4B0022C3F8BF
:10106000802EFFF72FFD0546374B5B6F13F0020F05
:1010700006D0FFF727FD401B0228F5D9032003E126
:10108000236813F0040F77D02F4B1B6C13F0805F95
:1010900033D1002301932C4B1A6C42F080521A6416
:1010A0001B6C03F080530193019B0125284B1B68A7
:1010B00013F4807F23D0A368012B34D0052B38D0C4
:1010C000214B1A6F22F001021A671A6F22F00402F4
:1010D0001A67A368002B3DD0FFF7F4FC06461A4BB5
:1010E0001B6F13F0020F46D1FFF7ECFC801B41F29F
:1010F00088339842F3D90320C6E00025D6E7144A86
:10110000136843F480731360FFF7DCFC0646104B52
:101110001B6813F4807FCED1FFF7D4FC801B02281C
:10112000F5D90320B0E0084A136F43F001031367B9
:10113000CFE7054B1A6F42F004021A671A6F42F0AC
:1011400001021A67C5E700BF0038024000004742AD
:1011500000700040FFF7B6FC0646524B1B6F13F0C1
:10116000020F08D0FFF7AEFC801B41F28833984293
:10117000F3D9032088E0EDB9A369002B00F0838048
:10118000484A926802F00C02082A51D0022B17D06C
:10119000454B00221A66FFF795FC0446414B1B683D
:1011A00013F0007F42D0FFF78DFC001B0228F5D919
:1011B000032069E03B4A136C23F080531364DBE7A0
:1011C000394B00221A66FFF77DFC0546354B1B683C
:1011D00013F0007F06D0FFF775FC401B0228F5D9FD
:1011E000032051E0E369226A1343626A43EA8213EF
:1011F000A26A5208013A43EA0243E26A43EA0263FE
:10120000284A5360284B01221A66FFF75BFC04460C
:10121000244B1B6813F0007F06D1FFF753FC001B23
:101220000228F5D903202FE000202DE000202BE03C
:10123000012B2BD01B4B5B6803F48001E2699142C8
:1012400026D103F03F02216A8A4223D1616A47F620
:10125000C0721A40B2EB811F1ED103F44031A26A62
:101260005208013AB1EB024F18D103F07063E26A01
:10127000B3EB026F14D1002006E00120704701207B
:1012800002E0012000E0002002B070BD0120FBE779
:101290000120F9E70120F7E70120F5E70120F3E756
:1012A0000120F1E7003802400000474208B5254B15
:1012B0009B6803F00C03042B3FD0082B3FD1214B3C
:1012C0005A6802F03F025B6813F4800F12D01D4B86
:1012D0005968C1F388111C480023A1FB0001FEF7E7
:1012E0007FFF184B5B68C3F3014301335B00B0FB26
:1012F000F3F025E0134B5968C1F3881C4FEA4C11F9
:10130000B1EB0C006EEB0E0E4FEA8E1343EA9063C6
:101310008101091A63EB0E03DB0043EA5173C90034
:1013200011EB0C0C43F10003990200234FEA8C20CF
:1013300041EA9C51FEF754FFD3E7034800E003481D
:1013400008BD00BF0038024040787D010024F40051
:10135000002800F09B8070B50D4604464F4B1B687B
:1013600003F007038B4208D2CBB24C4A13701368C8
:1013700003F007038B4240F08B80236813F0020FC9
:1013800017D013F0040F04D0454A936843F4E05398
:101390009360236813F0080F04D0414A936843F424
:1013A000604393603E4A936823F0F003A1680B43C7
:1013B0009360236813F0010F32D06368012B21D0B2
:1013C0009A1E012A25D9364A126812F0020F61D0FE
:1013D00033498A6822F0030213438B60FFF772FBE4
:1013E00006462F4B9B6803F00C036268B3EB820F39
:1013F00016D0FFF767FB801B41F288339842F0D983
:10140000032042E0264A126812F4003FE0D1012096
:101410003BE0234A126812F0007FD9D1012034E06A
:101420001E4B1B6803F00703AB4207D9EAB21B4B04
:101430001A701B6803F00703AB422DD1236813F029
:10144000040F06D0164A936823F4E053E1680B4377
:101450009360236813F0080F07D0114A936823F4B0
:101460006043216943EAC1039360FFF71FFF0C4B00
:101470009B68C3F303130B4AD35CD8400A4B186034
:101480000A4B1868FFF746FA002070BD012070472C
:101490000120FAE70120F8E70120F6E7003C0240CE
:1014A00000380240644000080000002008000020CE
:1014B000014B1868704700BF0000002008B5FFF717
:1014C000F7FF044B9B68C3F34233034AD35CD84015
:1014D00008BD00BF00380240744000080F230360BD
:1014E0000B4B9A6802F0030242609A6802F0F00225
:1014F00082609A6802F4E052C2609B68DB0803F4E1
:10150000E0530361034B1B6803F007030B60704754
:1015100000380240003C02407047000090F83D3027
:10152000DBB2012B2FD1022380F83D300268D36853
:1015300043F00103D3600368154A934218D0B3F116
:10154000804F15D0A2F57C42934211D002F5806203
:1015500093420DD002F58062934209D002F59A328F
:10156000934205D01A6842F001021A6000207047C9
:101570009A6802F00702062A07D01A6842F00102B0
:101580001A6000207047012070470020704700BF9C
:1015900000000140704770477047704710B504461F
:1015A00003681A6912F0020F11D0DA6812F0020F04
:1015B0000DD06FF002021A610123037703689B6963
:1015C00013F0030F70D0FFF7E6FF002323772368A3
:1015D0001A6912F0040F12D0DA6812F0040F0ED05C
:1015E0006FF004021A610223237723689B6913F4C6
:1015F000407F5FD02046FFF7CEFF0023237723688C
:101600001A6912F0080F12D0DA6812F0080F0ED023
:101610006FF008021A61042323772368DB6913F053
:10162000030F4ED02046FFF7B6FF00232377236831
:101630001A6912F0100F12D0DA6812F0100F0ED0E3
:101640006FF010021A61082323772368DB6913F413
:10165000407F3DD02046FFF79EFF0023237723687D
:101660001A6912F0010F03D0DA6812F0010F36D1B7
:1016700023681A6912F0800F03D0DA6812F0800F25
:1016800034D123681A6912F0400F03D0DA6812F0DF
:10169000400F32D123681A6912F0200F03D0DA68A4
:1016A00012F0200F30D110BDFFF774FF2046FFF776
:1016B00073FF8AE72046FFF76DFF2046FFF76CFFB8
:1016C0009BE72046FFF766FF2046FFF765FFACE784
:1016D0002046FFF75FFF2046FFF75EFFBDE76FF094
:1016E00001021A612046FFF711F8C1E76FF080028E
:1016F0001A61204600F08BF8C3E76FF040021A61D0
:101700002046FFF74AFFC5E76FF020021A61204626
:1017100000F07CF8C7E700000368254A90420ED02D
:10172000B0F1804F0BD0A2F57C42904207D002F579
:101730008062904203D002F58062904203D123F090
:1017400070034A6813431A4A90421AD0B0F1804F8E
:1017500017D0A2F57C42904213D002F580629042ED
:101760000FD002F5806290420BD002F59A3290427F
:1017700007D002F58062904203D002F58062904269
:1017800003D123F44073CA68134323F080034A69EA
:10179000134303608B68C3620B688362044B9842F7
:1017A00002D00123436170470B690363F9E700BF6F
:1017B0000000014040B310B5044690F83D30F3B14D
:1017C000022384F83D30214651F8040BFFF7A4FFB3
:1017D000012384F8463084F83E3084F83F3084F8A2
:1017E000403084F8413084F8423084F8433084F843
:1017F000443084F8453084F83D30002010BD80F836
:101800003C30FFF789FEDBE70120704770477047E7
:1018100082B000230193019B01330193019A0F4B86
:101820009A4215D80369002BF5DA00230193036966
:1018300043F001030361019B01330193019A074BBC
:101840009A4208D8036913F0010FF4D1002000E098
:10185000032002B070470320FBE700BF400D0300E8
:1018600084B010B5044603A880E80E00089B012B45
:101870001FD1A36B23F48033A363E36823F48403B1
:1018800023F04003E360E36823F44013E3600F9B1D
:10189000012B09D02046FFF7BBFF069B012B1BD075
:1018A000BDE8104004B07047E36843F48013E36080
:1018B000F0E7E36843F04003E3602046FFF7A8FF4A
:1018C0000C9B23B9A36B43F48033A363E5E7A36BBD
:1018D00023F48033A363E0E7A36843F00603A36027
:1018E000A36843F02003A360DAE7836823F00103D1
:1018F000836000207047000082B000230193019BA9
:1019000001330193019A0F4B9A4215D80369002BBA
:10191000F5DA00230193890141F020010161019B67
:1019200001330193019A074B9A4208D8036913F0D7
:10193000200FF4D1002000E0032002B07047032004
:10194000FBE700BF400D030082B000230193019B21
:1019500001330193019A0E4B9A4213D80369002B6D
:10196000F5DA0023019310230361019B01330193F6
:10197000019A074B9A4208D8036913F0100FF4D16B
:10198000002000E0032002B070470320FBE700BF07
:10199000400D0300D0F800381943C0F800180020AB
:1019A0007047000084B02DE9F041044607A880E8A4
:1019B0000E00002306E003F1400204EB8202002146
:1019C000516001330E2BF6D9119F27BBD4F8043890
:1019D00043F00203C4F80438A36B43F40013A36379
:1019E000A36B23F40023A363A36B23F48023A363DB
:1019F0000023C4F8003E04F50065D4F80038C4F8AC
:101A000000380C9B012B14D1099B6BB90021204697
:101A1000FFF7C0FF11E0A36B23F40013A363A36BD4
:101A200043F40023A363E3E701212046FFF7B2FF5D
:101A300003E003212046FFF7ADFF10212046FFF70A
:101A40005BFF804608B14FF001082046FFF77CFF9E
:101A500008B14FF0010800232B616B61EB610AE0D4
:101A6000C3B94FF00060C2F8000900220A614FF6C6
:101A70007F328A6001330799994210D904EB4312EF
:101A800002F51061D2F800090028E9DB0020C2F855
:101A90000009EAE74FF09040C2F80009E5E70023AB
:101AA0000AE0C3B14FF0904CC2F800CB00220261B3
:101AB0004FF67F3282600133994211D904EB431211
:101AC00002F53060D2F8006B002EEADB4FF0000C1C
:101AD000C2F800CBEAE74FF0006CC2F800CBE5E7B4
:101AE0002B6923F480732B610023A3616FF0804383
:101AF00063610A9B1BB9A36943F01003A361A26948
:101B00000B4B1343A3610D9B1BB1A36943F0080367
:101B1000A361012F04D04046BDE8F04104B07047F6
:101B2000A36943F0804343F00403A361F3E700BFDC
:101B300000383C80D0F8003E23F00303C0F8003E9C
:101B4000D0F8043843F00203C0F80438002070478E
:101B5000406900F00100704738B50546C36823F0BE
:101B6000C043C360012913D019BBC36843F080434D
:101B7000C36000240120FEF7ABFF01342846FFF7C5
:101B8000E7FF08B1312CF5D9322C14D0002038BD34
:101B9000C36843F00053C36000240120FEF798FFA0
:101BA00001342846FFF7D4FF0128EDD0312CF4D9B9
:101BB000EAE70120EBE70120E9E708B54FF0E02371
:101BC0001B6901F0F5FC012800D108BD00F0F2F915
:101BD000FBE70000EFF305832BB9064B186828B923
:101BE00001221A6070476FF0050070474FF0FF3018
:101BF000704700BF60140020EFF3058373B90A4BF0
:101C00001B68012B0DD110B50024084BDC77064B67
:101C100002221A6001F0BAF9204610BD6FF00500EB
:101C200070474FF0FF3070476014002000ED00E077
:101C3000F0B587B000240594EFF305847CBB70B346
:101C40002AB31568936903B918235C1E372C4AD848
:101C5000546814F0010F48D1566976B14FEA960CDA
:101C6000946834B1D768B7F5916F02D3176907B19B
:101C7000C6B92CB14FF0FF340EE04FF0800CEFE707
:101C8000D4688CB9146994B14FF0FF3404E0154660
:101C9000002418234FF0800C012C0AD0ACB1059819
:101CA00007B0F0BD0124F7E74FF0FF34F4E700245C
:101CB000F2E7146992680292019400930B4662461F
:101CC000294601F0ADF80590E9E705AA01920093D5
:101CD0000B461FFA8CF2294601F0DFF80128DED00E
:101CE00000230593DBE70020DAE70020D8E708B5FA
:101CF000EFF3058323B930B101F02AFB002008BDC2
:101D00006FF00500FBE76FF00300F8E708B5EFF3AD
:101D1000058323B930B101F0F5F8002008BD6FF05C
:101D20000500FBE76FF00300F8E708B5EFF3058364
:101D300033B908B9002008BD01F094FA0020FAE791
:101D40006FF00500F7E70000034B0360034B0B60E7
:101D500080231360704700BFD80F0020D80D0020EB
:101D6000034B0360034B0B604FF4807313607047A9
:101D7000681800206414002000F1080343604FF04D
:101D8000FF328260C3600361002303607047002359
:101D90000361704743684B609A688A60516099603C
:101DA0000861036801330360704730B40D68B5F112
:101DB000FF3F11D000F108031C465B681A68AA4275
:101DC000FAD963684B6099608C6061600861036850
:101DD0000133036030BC70470469F2E7036941686E
:101DE00082688A60416851605A68824206D0002247
:101DF00002611A68013A1A601868704782685A606E
:101E0000F5E7000082B0002301930D4B1B68B3F18E
:101E1000FF3F08D04FF0500383F31188BFF36F8F5B
:101E2000BFF34F8FFEE74FF0500383F31188BFF3EA
:101E30006F8FBFF34F8F019B002BFCD002B0704718
:101E40000C00002008480068006880F308884FF004
:101E5000000080F3148862B661B6BFF34F8FBFF302
:101E60006F8F00DF00BF000008ED00E0DFF80C001E
:101E7000016841F4700101607047000088ED00E0E6
:101E80004FF0807340F8043C21F0010140F8081C39
:101E9000054B40F80C3C40F8202C6FF0020340F852
:101EA000243C4438704700BF051E000800000000B5
:101EB000074B19680868B0E8F04F80F30988BFF352
:101EC0006F8F4FF0000080F311887047AFF30080F0
:101ED000585900204FF0500383F31188BFF36F8FE0
:101EE000BFF34F8F0B4A136801331360012B00D0EF
:101EF00070474FF0E023D3F8043D13F0FF0FF7D005
:101F00004FF0500383F31188BFF36F8FBFF34F8FF0
:101F1000FEE700BF0C000020094B1B6843B94FF0DF
:101F2000500383F31188BFF36F8FBFF34F8FFEE72A
:101F3000013B034A13600BB983F31188704700BF5C
:101F40000C00002000000000000000000000000065
:101F5000EFF30980BFF36F8F154B1A681EF0100F57
:101F600008BF20ED108A20E9F04F10602DE909002C
:101F70004FF0500080F31188BFF34F8FBFF36F8F86
:101F800001F096F94FF0000080F3118809BC196840
:101F90000868B0E8F04F1EF0100F08BFB0EC108AD0
:101FA00080F30988BFF36F8F704700BFAFF30080E5
:101FB0005859002008B54FF0500383F31188BFF340
:101FC0006F8FBFF34F8F01F045F828B14FF0E0233A
:101FD0004FF08052C3F8042D002383F3118808BD0D
:101FE0004FF0E022002313619361054B1B68054904
:101FF000A1FB03139B09013B536107231361704746
:1020000000000020D34D62104FF0E023D3F8002DE4
:102010003D4B9A421CD04FF0E023D3F8002D3B4BB0
:102020009A421ED030B583B0394B1A78D2B20192A1
:10203000FF221A701B78DBB28DF803309DF8033055
:1020400003F05003334A1370334B07221A601BE02E
:102050004FF0500383F31188BFF36F8FBFF34F8F9F
:10206000FEE74FF0500383F31188BFF36F8FBFF388
:102070004F8FFEE7284A1368013B13609DF8033039
:102080005B00DBB28DF803309DF8033013F0800F56
:10209000F0D1214B1B68032B08D04FF0500383F382
:1020A0001188BFF36F8FBFF34F8FFEE71B021A4AF1
:1020B000136003F4E0631360019BDBB2144A1370F6
:1020C0004FF0E024D4F8203D43F47003C4F8203DE1
:1020D000D4F8203D43F07043C4F8203DFFF780FF63
:1020E00000250E4B1D60FFF7C1FED4F8343F43F0CE
:1020F0004043C4F8343FFFF7A5FE01F0D9F8FFF7DD
:1021000081FE284603B030BD71C20F4170C20F413D
:1021100000E400E0F01C0020F41C00200C00002073
:10212000EFF305830F2B0FD9114A9B5CDBB2114AE9
:1021300012789A4208D94FF0500383F31188BFF305
:102140006F8FBFF34F8FFEE74FF0E023D3F80C3DC6
:1021500003F4E063084A1268934208D94FF0500331
:1021600083F31188BFF36F8FBFF34F8FFEE7704784
:10217000F0E300E0F01C0020F41C0020124A12F0F2
:10218000070F1ED0D11D21F00701C1F57053134474
:102190000A460E480260002141601344083B23F0C8
:1021A00007030B48036059601960991A5160136066
:1021B000084B1960084B1960084B4FF000421A6039
:1021C00070474FF47053E4E7FC1C002010590020C6
:1021D000F81C00200459002000590020FC58002061
:1021E000164B1A461B688342FBD3516802EB010C65
:1021F000844509D0416800EB010C634509D00360B8
:10220000904219D0106070474068014451601046F8
:10221000F0E710B40A4C2468A3420BD05B68194461
:10222000416013681B680360904200D010605DF845
:10223000044B70470460F7E7704700BF1059002057
:10224000F81C002070B5054600F0F6FE364B1B6802
:10225000A3B1364B1B681D424ED135B1083515F080
:10226000070F02D025F007050835002D46D0304B6A
:102270001B68AB4251D32F4A146804E0FFF77EFF7E
:10228000E7E722461C466368AB4202D22368002B74
:10229000F7D1254B1B68A34241D016680836236846
:1022A000136063685B1B102B10D9601910F0070FC7
:1022B00008D04FF0500383F31188BFF36F8FBFF343
:1022C0004F8FFEE743606560FFF78AFF6268184939
:1022D0000B689B1A0B60184909688B4201D216499A
:1022E0000B60124B1B681343636000232360134A87
:1022F00013680133136002E0002600E0002600F0BE
:1023000035FF16F0070F0CD04FF0500383F3118800
:10231000BFF36F8FBFF34F8FFEE70026EFE7002676
:10232000EDE7304670BD00BFF81C0020FC580020CF
:10233000005900201059002004590020085900209D
:10234000002834D038B50446A0F1080550F8043C04
:10235000174A1268134208D14FF0500383F31188D3
:10236000BFF36F8FBFF34F8FFEE750F8081C41B1EA
:102370004FF0500383F31188BFF36F8FBFF34F8F7C
:10238000FEE723EA020340F8043C00F055FE54F84F
:10239000041C084A13680B4413602846FFF720FF0B
:1023A000054A13680133136000F0E0FE38BD704742
:1023B000FC580020005900200C59002010B504469C
:1023C000FFF788FDA26BE36B9A4204D00024FFF76D
:1023D000A3FD204610BD0124F9E710B50446FFF720
:1023E00079FDA36B23B90124FFF796FD204610BDAC
:1023F0000024F9E770B504461546866B026C5AB99D
:1024000003681BB100200136A66370BD806801F02F
:10241000DFF80023A360F6E76DB94068FEF762F8C5
:10242000226C636813446360A268934219D32368E3
:1024300063602846E7E7C068FEF754F8226C514213
:10244000E3689B1AE3602268934202D2A3680B44BC
:10245000E360022D01D00020D5E726B1013E002027
:10246000D1E72846CFE70020CDE70346026C6AB1EA
:1024700010B50846D9681144D9609C68A14201D3BF
:102480001968D960D968FEF72DF810BD704738B5C6
:102490000546FFF71FFD95F8454064B201E0013C99
:1024A00064B2002C0ADD6B6A43B105F1240000F030
:1024B000E5FF0028F3D001F075F8F0E7FF2385F879
:1024C0004530FFF729FDFFF705FD95F8444064B25C
:1024D00001E0013C64B2002C0ADD2B6943B105F137
:1024E000100000F0CBFF0028F3D001F05BF8F0E71C
:1024F000FF2385F84430FFF70FFD38BD38B5E0B154
:102500000D460446FFF7E6FC2368E26B216C01FBF5
:102510000230A0600020A0636360013A02FB013337
:10252000E360FF2384F8443084F84530FDB9236923
:1025300063B9FFF7F1FC012038BD4FF0500383F37E
:102540001188BFF36F8FBFF34F8FFEE704F11000C8
:1025500000F094FF0028ECD04FF0E0234FF08052C1
:10256000C3F8042DBFF34F8FBFF36F8FE1E704F182
:102570001000FFF701FC04F12400FFF7FDFBD8E792
:1025800038B51D46049C0B4649B92460E0632364BA
:1025900001212046FFF7B2FF84F84C5038BD22607D
:1025A000F4E740B94FF0500383F31188BFF36F8F06
:1025B000BFF34F8FFEE710B584B01C46844653B17D
:1025C00092B189B94FF0500383F31188BFF36F8F35
:1025D000BFF34F8FFEE74FF0500383F31188BFF333
:1025E0006F8FBFF34F8FFEE76AB150230393039BB6
:1025F000502B13D04FF0500383F31188BFF36F8F2C
:10260000BFF34F8FFEE70029EFD04FF0500383F365
:102610001188BFF36F8FBFF34F8FFEE7039B01233A
:1026200084F8463000949DF818306046FFF7A8FF04
:10263000204604B010BDF0B585B0019288B10F46B8
:102640001D460446B1B1022D20D1E36B012B1DD0F4
:102650004FF0500383F31188BFF36F8FBFF34F8F99
:10266000FEE74FF0500383F31188BFF36F8FBFF382
:102670004F8FFEE7036C002BE5D04FF0500383F340
:102680001188BFF36F8FBFF34F8FFEE700F090FF0D
:10269000064658B9019B002B48D04FF0500383F3F6
:1026A0001188BFF36F8FBFF34F8FFEE700263DE029
:1026B0002A4639462046FFF79DFE636A7BB948B13A
:1026C0004FF0E0234FF08052C3F8042DBFF34F8F3B
:1026D000BFF36F8FFFF720FC012005B0F0BD04F1C0
:1026E000240000F0CBFE0028F4D04FF0E0234FF0A0
:1026F0008052C3F8042DBFF34F8FBFF36F8FE9E70C
:10270000FFF70AFC0020E8E702A800F0FDFE012622
:1027100019E0002384F8443021E0002384F8453098
:1027200023E02046FFF7B3FE00F020FDFFF7D2FBC9
:10273000A26BE36B9A42BBD3022DB9D0019B002B55
:10274000DED0002EE0D0FFF7E7FB00F075FCFFF7CE
:10275000C1FB94F8442052B2B2F1FF3FD9D094F8B3
:10276000452052B2B2F1FF3FD7D0FFF7D5FB01A908
:1027700002A800F0D5FED8B92046FFF71FFE0028BA
:10278000CFD0019904F1100000F044FE2046FFF77D
:102790007EFE00F0EBFC0028C8D14FF0E0234FF0A4
:1027A0008052C3F8042DBFF34F8FBFF36F8FBDE787
:1027B0002046FFF76CFE00F0D9FC00208DE72DE9E4
:1027C000F84390B10F4616461C460546B1B1022C9F
:1027D00020D1EB6B012B1DD04FF0500383F31188F8
:1027E000BFF36F8FBFF34F8FFEE74FF0500383F3BC
:1027F0001188BFF36F8FBFF34F8FFEE7036C002B81
:10280000E5D04FF0500383F31188BFF36F8FBFF310
:102810004F8FFEE7FFF784FCEFF311894FF0500371
:1028200083F31188BFF36F8FBFF34F8FAA6BEB6BEE
:102830009A4206D3022C04D0002089F31188BDE807
:10284000F88395F845804FFA88F8AB6B22463946F5
:102850002846FFF7CFFDB8F1FF3F06D008F101038E
:102860005BB285F845300120E7E76B6A0BB90120C0
:10287000E3E705F1240000F001FE18B126B10120C4
:102880003060DAE70120D8E70120D6E7F0B585B05F
:10289000019290B10F460446C1B100F089FE064690
:1028A00000BB019B002B5ED04FF0500383F31188D7
:1028B000BFF36F8FBFF34F8FFEE74FF0500383F3EB
:1028C0001188BFF36F8FBFF34F8FFEE7036C002BB0
:1028D000E3D04FF0500383F31188BFF36F8FBFF342
:1028E0004F8FFEE700263EE039462046FFF7BDFD4C
:1028F000013DA563236923B9FFF70EFB012005B055
:10290000F0BD04F1100000F0B9FD0028F4D04FF044
:10291000E0234FF08052C3F8042DBFF34F8FBFF375
:102920006F8FE9E7FFF7F8FA0020E8E702A800F068
:10293000EBFD012621E0002384F8443029E0002348
:1029400084F845302BE02046FFF7A1FD00F00EFC97
:1029500009E02046FFF79BFD00F008FC2046FFF74A
:102960003CFD00283FD1FFF7B5FAA56B002DBBD188
:10297000019B002BD6D0002ED8D0FFF7CDFA00F067
:102980005BFBFFF7A7FA94F844305BB2B3F1FF3F6B
:10299000D1D094F845305BB2B3F1FF3FCFD0FFF711
:1029A000BBFA01A902A800F0BBFD0028D1D1204646
:1029B000FFF713FD0028C6D0019904F1240000F0B0
:1029C00029FD2046FFF763FD00F0D0FB0028CAD1A7
:1029D0004FF0E0234FF08052C3F8042DBFF34F8F28
:1029E000BFF36F8FBFE7002089E700000023072BAC
:1029F0000CD8074A52F833200AB10133F7E7044AEA
:102A000042F8331002EBC30358607047704700BFB1
:102A10001859002070B504460D461646FFF75AFABD
:102A200094F844305BB2B3F1FF3F0DD094F84530D9
:102A30005BB2B3F1FF3F0BD0FFF76EFAA36B5BB154
:102A40002046FFF724FD70BD002384F84430EDE7F5
:102A5000002384F84530EFE73246294604F124008C
:102A600000F0F0FCECE7000028B141690C4A91420B
:102A70000AD0002070474FF0500383F31188BFF352
:102A80006F8FBFF34F8FFEE7836A064A934202D0EF
:102A90001BB100207047002070470120704700BF25
:102AA000285E0020105E0020084B1B681B6823B9BD
:102AB000074B4FF0FF321A607047044B1B68DB680E
:102AC000DB685A68024B1A60704700BF5C590020EF
:102AD000045E00202DE9F04780460D4617469946D2
:102AE000089EDDF824A00A9C9200A521206B01F02D
:102AF0000BF8236B07F18042013A03EB820727F0C2
:102B00000707002D65D04FF0000CBCF10F0F0BD85C
:102B100015F80C2004EB0C0383F8342015F80C3066
:102B200013B10CF1010CF0E7002384F84330372E89
:102B300000D93726E662E66400252565201DFFF7EB
:102B400026F904F11800FFF722F92461C6F13806CE
:102B5000A6616462C4F8805484F884544FF485629A
:102B6000294604F1580000F0CFFF04F55173E365E6
:102B700004F56B73236604F2144363660122002399
:102B8000C4E9402343F20E33A4F808314AF6CD33AA
:102B9000A4F80A3141F23423A4F80C314EF26D63EB
:102BA000A4F80E314DF6EC63A4F810310523A4F817
:102BB00012310B23A4F814314A4641463846FFF738
:102BC0005FF92060BAF1000F01D0CAF80040BDE8FB
:102BD000F087002384F83430A9E7000038B50024DA
:102BE00007E004EB840293000E481844FFF7C4F892
:102BF0000134372CF5D90C4D2846FFF7BDF80B4CA6
:102C00002046FFF7B9F80A48FFF7B6F80948FFF77A
:102C1000B3F80948FFF7B0F8084B1D60084B1C607B
:102C200038BD00BF64590020D85D0020EC5D002055
:102C3000105E00203C5E0020285E00205C590020D1
:102C40006059002010B50446FFF744F9224A136882
:102C500001331360214B1B685BB1214B1B686BB9BF
:102C60001E4B1B68DA6AE36A9A4207D81B4B1C604A
:102C700004E01A4B1C601368012B29D0194A136811
:102C8000013313606364E06A174B1B68984201D9F3
:102C9000154B186000EB8000211D144B03EB8000E6
:102CA000FFF778F8FFF738F90D4B1B687BB10B4B3A
:102CB0001B68DA6AE36A9A4209D24FF0E0234FF0C8
:102CC0008052C3F8042DBFF34F8FBFF36F8F10BD39
:102CD000FFF784FFD2E700BFC45D002058590020F1
:102CE000245E0020D05D0020D45D002064590020C7
:102CF00010B50446583000F07DFF94F8853463B178
:102D0000012B11D0022B0ED04FF0500383F311880A
:102D1000BFF36F8FBFF34F8FFEE7206BFFF710FB02
:102D20002046FFF70DFB10BD2046FFF709FBFAE731
:102D30000F4B1B68D3B110B5FFF7CCF80D4BDB6818
:102D4000DC68201DFFF74AF80B4A1368013B13604B
:102D5000074A1368013B1360FFF7DEF82046FFF7D0
:102D6000C7FF034B1B68002BE6D110BD704700BFA7
:102D7000C85D00203C5E0020C45D002008B5FFF760
:102D8000D7FF074B1B68012BF9D94FF0E0234FF019
:102D90008052C3F8042DBFF34F8FBFF36F8FEEE760
:102DA0006459002070B504460D46174B1E68174B3A
:102DB00018680430FFF712F8B4F1FF3F0DD0344427
:102DC000124B1B685C60A64210D9114B18680F4B60
:102DD00019680431FEF7E9FF70BD002DEFD00B4BF1
:102DE000196804310B48FEF7D5FFF5E70A4B186860
:102DF000064B19680431FEF7D8FF084B1B68A34245
:102E0000EAD9064B1C60E7E7505E002058590020C5
:102E100060590020285E00205C590020045E0020DC
:102E200030B587B00B9C8CB10C9DC5B14FF491654A
:102E30000495049DB5F5916F1AD04FF0500383F3BC
:102E40001188BFF36F8FBFF34F8FFEE74FF0500332
:102E500083F31188BFF36F8FBFF34F8FFEE74FF0FF
:102E6000500383F31188BFF36F8FBFF34F8FFEE7DB
:102E7000049D0C9D2C63022485F885440024039452
:102E8000029505AC01940A9C0094FFF723FE0C9870
:102E9000FFF7D8FE059807B030BD2DE9F04385B0A7
:102EA0000746884614461E469000FFF7CBF908B344
:102EB00081464FF49160FFF7C5F90546B0B1C0F8FF
:102EC0003090E5B1002385F88534039302950D9B7E
:102ED00001930C9B00933346224641463846FFF748
:102EE000F9FD2846FFF7AEFE012005E04846FFF752
:102EF00027FAE6E74FF0FF3005B0BDE8F0834FF06A
:102F0000FF30F9E738B568B104461D4B1B688342B2
:102F100007D0FEF7DFFF2046FFF7A6FD58B9FEF702
:102F2000FBFF38BD4FF0500383F31188BFF36F8F61
:102F3000BFF34F8FFEE7251D2846FEF74FFFE06ADF
:102F4000104B1B68984201D90E4B186000EB8000B3
:102F500029460D4B03EB8000FEF71CFFE26A084B8D
:102F60001B68DB6A9A42DAD34FF0E0234FF08052BD
:102F7000C3F8042DBFF34F8FBFF36F8FCFE700BFB0
:102F800058590020D45D00206459002010B588B045
:102F900000240594069407AA06A905A8FEF7D4FE06
:102FA000059B0293069B019300942346079A1A49B6
:102FB0001A48FFF735FF1A4B186040B100F0BCFB10
:102FC000012806D0B0F1FF3F1DD008B010BD002091
:102FD000F6E74FF0500383F31188BFF36F8FBFF311
:102FE0004F8F104B1B6858330F4A13600F4B4FF035
:102FF000FF321A600E4B01221A600E4B00221A603B
:10300000FFF702F8E1E74FF0500383F31188BFF3B5
:103010006F8FBFF34F8FFEE77C4000087D2D0008C7
:10302000005E00205859002010000020045E00209F
:10303000245E0020505E0020024A136801331360B2
:10304000704700BFCC5D0020014B1868704700BF7F
:10305000505E0020F8B53A4B1B68002B69D1394B04
:103060001D6801351D60C5B9374B1B681B6843B12E
:103070004FF0500383F31188BFF36F8FBFF34F8F6F
:10308000FEE7314A1168314B186810601960304A08
:10309000136801331360FFF707FD2E4B1B68AB422B
:1030A0003DD900272C4B1B68DB6A03EB83039A0096
:1030B0002A4B9B58012B00D90127294B1B68002B59
:1030C0003CD001273AE001271F4B1B681B6843B324
:1030D0001D4B1B68DB68DC6863689D4226D3261D98
:1030E0003046FEF77BFEA36A1BB104F11800FEF721
:1030F00075FEE36A1B4A1268934201D9194A1360AC
:1031000003EB83039A00314614481044FEF742FE55
:10311000E26A114B1B68DB6A9A42D4D2D4E70027DB
:10312000D2E70C4B4FF0FF321A60BBE7094A13603D
:10313000B8E70D4A13680133136000273846F8BD1D
:10314000CC5D0020505E00205C59002060590020BA
:10315000085E0020045E00205859002064590020B9
:10316000545E0020D45D00200C5E002038B5354B45
:103170001B6843B94FF0500383F31188BFF36F8F7F
:10318000BFF34F8FFEE7FEF7A5FE2E4B1A68013AFC
:103190001A601B68002B4FD12B4B1B680BB9002406
:1031A0004BE00024294B1B681BB3284BDB68DC6811
:1031B00004F11800FEF712FE251D2846FEF70EFE4C
:1031C000E06A234B1B68984201D9214B186000EB41
:1031D000800029461F4B03EB8000FEF7DBFDE26A0F
:1031E0001D4B1B68DB6A9A42DCD31C4B01221A6020
:1031F000D8E70CB1FFF758FC194B1C6884B9174B82
:103200001C68D4B14FF0E0234FF08052C3F8042D76
:10321000BFF34F8FBFF36F8F01240EE0013C07D047
:10322000FFF718FF0028F9D00C4B01221A60F5E7D0
:103230000B4B00221A60E2E70024FEF76DFE2046E9
:1032400038BD00BFCC5D0020C45D0020105E0020B2
:10325000D45D00206459002058590020545E00209D
:103260000C5E002010B5A8B10446104B1B6843B19A
:103270004FF0500383F31188BFF36F8FBFF34F8F6D
:10328000FEE7FFF7D9FE00212046FFF78BFDFFF791
:103290006DFF48B94FF0E0234FF08052C3F8042D82
:1032A000BFF34F8FBFF36F8F10BD00BFCC5D002009
:1032B000214B1B681BB1214B01221A6070471F4B29
:1032C00000221A601E4B1B6803EB83018A001D4914
:1032D0008A585AB90BB1013BF6E74FF0500383F31C
:1032E0001188BFF36F8FBFF34F8FFEE703EB8300AF
:1032F00082000A4450684068506003EB830C4FEA38
:103300008C020832114488420FD003EB83029100F3
:103310000C4A0A445268D1680B4A116008490B6094
:1033200013685833094A1360704740686246910039
:10333000044A0A445060E8E7CC5D0020545E002057
:10334000D45D00206459002058590020100000204E
:1033500038B50446FEF7BEFDE4B1251D2846FEF74C
:103360003DFDA36A1BB104F11800FEF737FD2946A5
:103370002348FEF70FFD94F88434DBB2012B0CD008
:10338000FEF7CAFD1F4B1B685BB91F4B1B68A342AE
:103390000ED038BD1C4B1C68DFE7002384F8843452
:1033A000EEE7FEF797FDFFF77FFBFEF7B5FDECE7D5
:1033B000144B1B68B3B1154B1B6843B14FF050035E
:1033C00083F31188BFF36F8FBFF34F8FFEE74FF08A
:1033D000E0234FF08052C3F8042DBFF34F8FBFF3AB
:1033E0006F8FD6E7064B1A68094B1B689A4203D1C8
:1033F000054B00221A60CCE7FFF75AFFC9E700BF70
:10340000285E0020245E002058590020CC5D00205A
:10341000C45D002058B110B50C46094A1168183136
:10342000FEF7C3FC01212046FFF7BCFC10BD4FF0A6
:10343000500383F31188BFF36F8FBFF34F8FFEE705
:103440005859002038B570B10D4614460A4A116823
:103450001831FEF79FFC0CB14FF0FF35214628468E
:10346000FFF7A0FC38BD4FF0500383F31188BFF382
:103470006F8FBFF34F8FFEE75859002038B5C368F0
:10348000DC6824B304F118052846FEF7A7FC184BA6
:103490001B682BBB251D2846FEF7A0FCE06A154BD8
:1034A0001B68984201D9134B186000EB8000294635
:1034B000114B03EB8000FEF76DFCE26A0F4B1B68BB
:1034C000DB6A9A4211D901200D4B186038BD4FF0CC
:1034D000500383F31188BFF36F8FBFF34F8FFEE765
:1034E00029460848FEF756FCE7E70020EEE700BF54
:1034F000CC5D0020D45D0020645900205859002084
:10350000545E0020105E0020034B1B680360034BD9
:103510001B684360704700BF085E0020505E0020BB
:10352000F8B5C8B10C460546F9B1FEF7D3FC1B4B04
:1035300019686B68C81A2268B2F1FF3F26D0184E8E
:1035400036682F68B74201D08B4224D9824215D801
:103550000023236001241AE04FF0500383F3118805
:10356000BFF36F8FBFF34F8FFEE74FF0500383F32E
:103570001188BFF36F8FBFF34F8FFEE75B1A1344C1
:1035800023602846FFF7C0FF002400E00024FEF778
:10359000C3FC2046F8BD0124F9E700BF505E0020BF
:1035A000085E0020014B01221A607047545E002023
:1035B000054B1B6833B1054B1B680BB100207047EE
:1035C0000220704701207047245E0020CC5D00205F
:1035D00000283BD038B504461E4B1B68834208D0F8
:1035E0004FF0500383F31188BFF36F8FBFF34F8FFA
:1035F000FEE7036D43B94FF0500383F31188BFF327
:103600006F8FBFF34F8FFEE7013B0365C16AC26C4A
:1036100091421DD00BB1002038BD051D2846FEF794
:10362000DDFBE06CE062C0F13803A3610A4B1B686C
:10363000984201D9084B186000EB80002946074BDF
:1036400003EB8000FEF7A6FB0120E5E700207047B2
:103650000020E1E758590020D45D00206459002083
:10366000064B1A6813682BB90123036023B9D3688A
:10367000186870470023F8E700207047585E002064
:1036800008B54160006191420CD8D21A83699A4210
:1036900001D3012008BD011D094B1868FEF785FB09
:1036A0000020F7E79A4201D2994206D2011D054B4C
:1036B0001868FEF77AFB0020ECE70120EAE700BF7C
:1036C0005C5E0020585E002030B583B0FEF702FC3F
:1036D000114B1B681BB1FEF71FFC03B030BD0F4D33
:1036E0002846FEF749FB0E4C2046FEF745FB0D4BE6
:1036F0001D600D4B1C60002300930C4B0C4A1021E5
:103700000A20FEF74EFF044B18600028E3D0094959
:10371000FFF76CF9DFE700BF7C5F0020005F00204F
:10372000145F0020585E00205C5E00202C5F0020AB
:10373000605E00208440000810B588B0FFF7C4FF29
:10374000124B1B68CBB100240594069407AA06A966
:1037500005A8FEF705FB059B0293069B0193022338
:1037600000932346079A0A490A48FFF759FB0A4B78
:10377000186010B1012008B010BD4FF0500383F362
:103780001188BFF36F8FBFF34F8FFEE77C5F002080
:103790008C4000089D3A0008805F0020B8B19C462C
:1037A00003461848006858B300B585B000910192EF
:1037B000029305291CDCFFF7FBFE022810D0002332
:1037C0001A4669460F480068FEF735FF15E04FF0CE
:1037D000500383F31188BFF36F8FBFF34F8FFEE762
:1037E0000023069A694607480068FEF724FF04E0B4
:1037F000002362466946FEF7E2FF05B05DF804FB70
:10380000002070477C5F002070B582B01B4B1B68A6
:103810001A6862B3DB681E68DC68251D2846FEF75F
:10382000DDFA236A2046984794F8283013F0040FF5
:10383000ECD0A36933449E4207D2636024612946D9
:103840000E4B1868FEF7B1FAE0E7002100910B4635
:1038500032462046FFF7A2FF0028D7D14FF0500391
:1038600083F31188BFF36F8FBFF34F8FFEE7044AD6
:10387000106802490860136002B070BD585E0020F5
:103880005C5E002038B50546FFF7DEFB0446074BBB
:103890001B68834205D800232B60044B1C60204624
:1038A00038BDFFF7B1FF01232B60F6E7285F00204A
:1038B00070B582B006460D4617490968C968CC68DC
:1038C000201DFEF78BFA94F828C01CF0040F08D1D5
:1038D0002CF0010C84F828C0236A2046984702B0D7
:1038E00070BDA16933462A4631442046FFF7C8FE21
:1038F0000028F1D0002100910B4632462046FFF708
:103900004DFF0028E8D14FF0500383F31188BFF337
:103910006F8FBFF34F8FFEE7585E002070B582B007
:1039200006460C46FFF788FB01A8FFF7ABFF019B9B
:1039300033BB05460CB9B04219D224B1124A126801
:103940001268DAB901242246711B104B1868FFF780
:1039500061F8FFF70BFCA8B94FF0E0234FF080525D
:10396000C3F8042DBFF34F8FBFF36F8F0AE0FFF74B
:10397000FDFB29463046FFF79BFF03E01C46E2E7CC
:10398000FFF7F4FB02B070BD5C5E00207C5F00209E
:1039900010B588B002E0049B002B0FDA002204A9C6
:1039A0003D4B1868FEF772FF002873D0049B002B74
:1039B000F1DA07990698059B9847ECE7069C63693E
:1039C00013B1201DFEF70AFA03A8FFF75BFF049B63
:1039D000092BE3D8DFE803F005050530375005056E
:1039E000303794F8283043F0010384F82830059BE1
:1039F000A169024619442046FFF742FE0028CDD0B7
:103A0000236A2046984794F8283013F0040FC5D055
:103A1000A269002100910B46059802442046FFF759
:103A2000BDFE0028BAD14FF0500383F31188BFF3D5
:103A30006F8FBFF34F8FFEE794F8283023F0010318
:103A400084F82830AAE794F8283043F0010384F87A
:103A500028300599A16131B1034602460144204650
:103A6000FFF70EFE9AE74FF0500383F31188BFF380
:103A70006F8FBFF34F8FFEE794F8283013F0020FDB
:103A800004D023F0010384F8283087E72046FEF7AE
:103A900057FC83E708B010BD7C5F002000B583B001
:103AA00001A8FFF7DDFD0199FFF738FFFFF770FF71
:103AB000F6E70000014B1868704700BF10000020B7
:103AC00070B50D4E0D4D761BB61006D0002455F87E
:103AD000043B01349847A642F9D1094E094D761BA3
:103AE00000F0B4FAB61006D0002455F8043B0134B7
:103AF0009847A642F9D170BDA0400008A040000838
:103B0000A8400008A0400008830730B548D0541EE4
:103B1000002A3FD0CAB2034601E0013C3AD303F881
:103B2000012B9D07F9D1032C2DD9CDB245EA0525EE
:103B30000F2C45EA054536D9A4F1100222F00F0CEE
:103B400003F1200EE6444FEA121C03F1100242E991
:103B5000045542E9025510327245F8D10CF10102C8
:103B600014F00C0F03EB021204F00F0C13D0ACF1A5
:103B7000040323F003030433134442F8045B934229
:103B8000FBD10CF003042CB1CAB21C4403F8012B86
:103B90009C42FBD130BD64461346002CF4D1F9E7BA
:103BA00003461446BFE71A46A446E0E72DE9F04174
:103BB0000E680C460546BEB137688FB1D7F8008055
:103BC000B8F1000F08D0D8F8001009B1FFF7EEFFE8
:103BD0004146284600F0CCF83946284600F0C8F89F
:103BE0003146284600F0C4F821462846BDE8F04199
:103BF00000F0BEB8224B1B68834240D0C16C70B548
:103C0000054681B100268C593CB1214624682846DE
:103C100000F0AEF8002CF8D1E96C0436802EF2D119
:103C2000284600F0A5F8296C11B1284600F0A0F84C
:103C3000D5F8484154B105F5A676B44206D02146E0
:103C40002468284600F094F8A642F8D1696D11B1B5
:103C5000284600F08DF8AB6B83B1EB6B2846984794
:103C6000D5F8E04254B1216811B12846FFF79EFF14
:103C700021462846BDE8704000F07AB870BD704714
:103C800010000020024B13B1024800F005B8704745
:103C900000000000A53C0008002301461A46184613
:103CA00000F08EB938B5084B084D5B1B9C1007D04F
:103CB000043B1D44013C55F804399847002CF9D1C8
:103CC000BDE8384000F0C8B9AC400008A840000882
:103CD000F8B5244F0C46064600F054F9BA6855680A
:103CE000C4F57E630F3325F003052B4423F47F6373
:103CF00023F00F03A3F58054B4F5805F07DB0021A8
:103D0000304600F04BF9BB682B44984204D0304653
:103D100000F03EF90020F8BD6142304600F03EF967
:103D200001300DD0104ABB682D1B45F001055D60C8
:103D3000136830461B1B136000F02AF90120F8BD00
:103D40000021304600F02AF9BA68831A0F2BDEDD15
:103D500043F001035360054B03491B68C01A086018
:103D6000D5E700BF44040020905F00204C080020ED
:103D7000002961D0F8B50C46064600F003F954F866
:103D8000042C7B4FA4F1080522F0010105EB010C86
:103D9000B868DCF80430604523F0030300F08B8042
:103DA000D207CCF8043032D454F8082CAD1A1144A0
:103DB000AA6807F1080082426AD00CEB0304D4F829
:103DC00004E0EC68D4601EF0010FA26000F0978060
:103DD00041F001036B60CCF80010B1F5007F35D2E3
:103DE0007A68CB0848090121013381401143796089
:103DF00007EBC30257F83310083AC5E9021247F837
:103E00003350CD603046BDE8F84000F0C1B80CEB4F
:103E100003025268D00710D4194407F10800DCF8F7
:103E20000830834273D0DCF80C20DA60936041F0F4
:103E300001036B606950D0E7704741F00103B1F5B1
:103E4000007F44F8043CCCF80010C9D3B1F5206FD2
:103E50004FEA512348D28B0903F1390003F13802AC
:103E6000C300F818FB580838984259D05A6822F015
:103E700003028A4202D99B689842F7D1D868C5E903
:103E800002308560DD603046BDE8F84000F080B863
:103E90000CEB03025268D20763D40B44DCE9021234
:103EA000CA60916043F001026A603046EB50BDE8A1
:103EB000F84000F06DB80B44D10707D454F8082C33
:103EC000AD1A1344D5E90212CA60916043F00102B1
:103ED0006A60284ABD6012689A4293D8264B3046E1
:103EE0001968FFF7F5FE8DE7142B0AD9542B1FD85C
:103EF0000B0B03F16F0003F16E02C300B1E719442D
:103F00008DE703F15C0003F15B02C300A9E741F018
:103F10000103C7E90455C5E902006B60695071E708
:103F200079689210012404FA02F20A437A60A6E743
:103F3000B3F5AA7F06D8CB0B03F1780003F1770223
:103F4000C3008EE740F25452934206D88B0C03F123
:103F50007D0003F17C02C30083E74FF47E737E2271
:103F60007FE741F001036B60CCF800104AE700BF27
:103F70004404002050080020B85F0020704700BFB4
:103F8000704700BF0148FFF7F9BF00BF8C5F0020FA
:103F90000148FFF7F5BF00BF8C5F002038B5074D23
:103FA0000022044608462A60FCF70EFD431C00D0A0
:103FB00038BD2B68002BFBD0236038BD845F002008
:103FC0002DE9F047DFF880A00646DAF800009846B1
:103FD0000F469146FFF7D2FF1A4B1B68D3F84841B2
:103FE00024B365681F2D26DC5EB96B1C0235DAF838
:103FF0000000636044F82570FFF7C2FF0020BDE8B1
:10400000F08704EB85010123C1F88890D4F888215A
:10401000AB401A43022EC4F88821C1F80881E4D1CC
:10402000D4F88C211343C4F88C31DEE703F5A67471
:10403000C3F84841D5E7DAF80000FFF7A1FF4FF0D9
:10404000FF30DCE79440000840040020F8B500BFD2
:10405000F8BC08BC9E467047F8B500BFF8BC08BC69
:044060009E467047C1
:104064000000000000000000010203040607080924
:10407400000000000102030449444C450000000014
:10408400546D725100000000546D72205376630029
:0440940018000020F0
:0840980078C1FF7F0100000068
:0840A000853C0008C501000881
:0440A800A10100086A
:1040AC000024F4000100000010000000AAAAAAAA33
:1040BC001800002000000000000000000403002095
:1040CC006C030020D403002000000000000000005E
:1040DC0000000000000000000000000000000000D4
:1040EC0000000000000000000000000000000000C4
:1040FC0000000000000000000000000000000000B4
:10410C0000000000000000000000000000000000A3
:10411C000000000000000000000000000000000093
:10412C000000000000000000000000000000000083
:10413C000000000000000000000000000000000073
:10414C000000000000000000000000000000000063
:10415C000000000000000000000000000000000053
:10416C0001000000000000000E33CDAB34126DE6F0
:10417C00ECDE05000B000000000000000000000059
:10418C000000000000000000000000000000000023
:10419C000000000000000000000000000000000013
:1041AC000000000000000000000000000000000003
:1041BC0000000000000000000000000000000000F3
:1044EC00885F002000000000000000004404002051
:1044FC00440400204C0400204C04002054040020F0
:10450C00540400205C0400205C040020640400209F
:10451C00640400206C0400206C040020740400204F
:10452C00740400207C0400207C04002084040020FF
:10453C00840400208C0400208C04002094040020AF
:10454C00940400209C0400209C040020A40400205F
:10455C00A4040020AC040020AC040020B40400200F
:10456C00B4040020BC040020BC040020C4040020BF
:10457C00C4040020CC040020CC040020D40400206F
:10458C00D4040020DC040020DC040020E40400201F
:10459C00E4040020EC040020EC040020F4040020CF
:1045AC00F4040020FC040020FC040020040500207E
:1045BC00040500200C0500200C050020140500202B
:1045CC00140500201C0500201C05002024050020DB
:1045DC00240500202C0500202C050020340500208B
:1045EC00340500203C0500203C050020440500203B
:1045FC00440500204C0500204C05002054050020EB
:10460C00540500205C0500205C050020640500209A
:10461C00640500206C0500206C050020740500204A
:10462C00740500207C0500207C05002084050020FA
:10463C00840500208C0500208C05002094050020AA
:10464C00940500209C0500209C050020A40500205A
:10465C00A4050020AC050020AC050020B40500200A
:10466C00B4050020BC050020BC050020C4050020BA
:10467C00C4050020CC050020CC050020D40500206A
:10468C00D4050020DC050020DC050020E40500201A
:10469C00E4050020EC050020EC050020F4050020CA
:1046AC00F4050020FC050020FC0500200406002079
:1046BC00040600200C0600200C0600201406002026
:1046CC00140600201C0600201C06002024060020D6
:1046DC00240600202C0600202C0600203406002086
:1046EC00340600203C0600203C0600204406002036
:1046FC00440600204C0600204C06002054060020E6
:10470C00540600205C0600205C0600206406002095
:10471C00640600206C0600206C0600207406002045
:10472C00740600207C0600207C06002084060020F5
:10473C00840600208C0600208C06002094060020A5
:10474C00940600209C0600209C060020A406002055
:10475C00A4060020AC060020AC060020B406002005
:10476C00B4060020BC060020BC060020C4060020B5
:10477C00C4060020CC060020CC060020D406002065
:10478C00D4060020DC060020DC060020E406002015
:10479C00E4060020EC060020EC060020F4060020C5
:1047AC00F4060020FC060020FC0600200407002074
:1047BC00040700200C0700200C0700201407002021
:1047CC00140700201C0700201C07002024070020D1
:1047DC00240700202C0700202C0700203407002081
:1047EC00340700203C0700203C0700204407002031
:1047FC00440700204C0700204C07002054070020E1
:10480C00540700205C0700205C0700206407002090
:10481C00640700206C0700206C0700207407002040
:10482C00740700207C0700207C07002084070020F0
:10483C00840700208C0700208C07002094070020A0
:10484C00940700209C0700209C070020A407002050
:10485C00A4070020AC070020AC070020B407002000
:10486C00B4070020BC070020BC070020C4070020B0
:10487C00C4070020CC070020CC070020D407002060
:10488C00D4070020DC070020DC070020E407002010
:10489C00E4070020EC070020EC070020F4070020C0
:1048AC00F4070020FC070020FC070020040800206F
:1048BC00040800200C0800200C080020140800201C
:1048CC00140800201C0800201C08002024080020CC
:1048DC00240800202C0800202C080020340800207C
:1048EC00340800203C0800203C080020FFFFFFFF9C
:0448FC0000000200B6
:0400000508000A25C0
:00000001FF
